{
  "contractName": "BaseContentManagement",
  "abi": [
    {
      "constant": true,
      "inputs": [],
      "name": "genre",
      "outputs": [
        {
          "name": "",
          "type": "bytes32"
        }
      ],
      "payable": false,
      "stateMutability": "view",
      "type": "function"
    },
    {
      "constant": true,
      "inputs": [],
      "name": "title",
      "outputs": [
        {
          "name": "",
          "type": "bytes32"
        }
      ],
      "payable": false,
      "stateMutability": "view",
      "type": "function"
    },
    {
      "constant": true,
      "inputs": [],
      "name": "author",
      "outputs": [
        {
          "name": "",
          "type": "bytes32"
        }
      ],
      "payable": false,
      "stateMutability": "view",
      "type": "function"
    },
    {
      "constant": false,
      "inputs": [
        {
          "name": "_user",
          "type": "address"
        }
      ],
      "name": "grantAccess",
      "outputs": [],
      "payable": false,
      "stateMutability": "nonpayable",
      "type": "function"
    },
    {
      "constant": false,
      "inputs": [],
      "name": "consumeContent",
      "outputs": [
        {
          "name": "",
          "type": "bytes32[]"
        }
      ],
      "payable": false,
      "stateMutability": "nonpayable",
      "type": "function"
    },
    {
      "constant": true,
      "inputs": [
        {
          "name": "_user",
          "type": "address"
        }
      ],
      "name": "hasConsumed",
      "outputs": [
        {
          "name": "",
          "type": "bool"
        }
      ],
      "payable": false,
      "stateMutability": "view",
      "type": "function"
    },
    {
      "constant": false,
      "inputs": [],
      "name": "close",
      "outputs": [],
      "payable": true,
      "stateMutability": "payable",
      "type": "function"
    }
  ],
  "bytecode": "0x608060405234801561001057600080fd5b50610810806100206000396000f3fe608060405260043610610083576000357c0100000000000000000000000000000000000000000000000000000000900463ffffffff1680630ae5e73914610088578063178ff556146100d957806317de3a41146101455780632731ebd81461017057806343d726d6146101d95780634a79d50c146101e3578063a6c3e6b91461020e575b600080fd5b34801561009457600080fd5b506100d7600480360360208110156100ab57600080fd5b81019080803573ffffffffffffffffffffffffffffffffffffffff169060200190929190505050610239565b005b3480156100e557600080fd5b506100ee6103dd565b6040518080602001828103825283818151815260200191508051906020019060200280838360005b83811015610131578082015181840152602081019050610116565b505050509050019250505060405180910390f35b34801561015157600080fd5b5061015a610695565b6040518082815260200191505060405180910390f35b34801561017c57600080fd5b506101bf6004803603602081101561019357600080fd5b81019080803573ffffffffffffffffffffffffffffffffffffffff16906020019092919050505061069b565b604051808215151515815260200191505060405180910390f35b6101e16106f4565b005b3480156101ef57600080fd5b506101f86107d8565b6040518082815260200191505060405180910390f35b34801561021a57600080fd5b506102236107de565b6040518082815260200191505060405180910390f35b600460009054906101000a900473ffffffffffffffffffffffffffffffffffffffff1673ffffffffffffffffffffffffffffffffffffffff163373ffffffffffffffffffffffffffffffffffffffff16141515610324576040517f08c379a000000000000000000000000000000000000000000000000000000000815260040180806020018281038252602b8152602001807f4f6e6c792074686520436174616c6f6720636f756c6420706572666f726d207481526020017f68697320616374696f6e2100000000000000000000000000000000000000000081525060400191505060405180910390fd5b6001600760008373ffffffffffffffffffffffffffffffffffffffff1673ffffffffffffffffffffffffffffffffffffffff16815260200190815260200160002060000160006101000a81548160ff0219169083151502179055506000600760008373ffffffffffffffffffffffffffffffffffffffff1673ffffffffffffffffffffffffffffffffffffffff16815260200190815260200160002060000160016101000a81548160ff02191690831515021790555050565b606060011515600760003373ffffffffffffffffffffffffffffffffffffffff1673ffffffffffffffffffffffffffffffffffffffff16815260200190815260200160002060000160009054906101000a900460ff1615151415156104aa576040517f08c379a00000000000000000000000000000000000000000000000000000000081526004018080602001828103825260108152602001807f55736572206e6f7420616c6c6f7765640000000000000000000000000000000081525060200191505060405180910390fd5b6000600760003373ffffffffffffffffffffffffffffffffffffffff1673ffffffffffffffffffffffffffffffffffffffff16815260200190815260200160002060000160006101000a81548160ff0219169083151502179055506001600760003373ffffffffffffffffffffffffffffffffffffffff1673ffffffffffffffffffffffffffffffffffffffff16815260200190815260200160002060000160016101000a81548160ff021916908315150217905550600660009054906101000a900473ffffffffffffffffffffffffffffffffffffffff1673ffffffffffffffffffffffffffffffffffffffff1663901afe98600054336040518363ffffffff167c0100000000000000000000000000000000000000000000000000000000028152600401808381526020018273ffffffffffffffffffffffffffffffffffffffff1673ffffffffffffffffffffffffffffffffffffffff16815260200192505050600060405180830381600087803b15801561062757600080fd5b505af115801561063b573d6000803e3d6000fd5b50505050600380548060200260200160405190810160405280929190818152602001828054801561068b57602002820191906000526020600020905b815481526020019060010190808311610677575b5050505050905090565b60025481565b6000600760008373ffffffffffffffffffffffffffffffffffffffff1673ffffffffffffffffffffffffffffffffffffffff16815260200190815260200160002060000160019054906101000a900460ff169050919050565b600660009054906101000a900473ffffffffffffffffffffffffffffffffffffffff1673ffffffffffffffffffffffffffffffffffffffff1663deea2cb66000546040518263ffffffff167c01000000000000000000000000000000000000000000000000000000000281526004018082815260200191505060206040518083038186803b15801561078557600080fd5b505afa158015610799573d6000803e3d6000fd5b505050506040513d60208110156107af57600080fd5b810190808051906020019092919050505073ffffffffffffffffffffffffffffffffffffffff16ff5b60005481565b6001548156fea165627a7a723058202af226f614e3d24c31cf8090c15128685450def7d31a1216d300571aed2c9a4c0029",
  "source": "pragma solidity ^0.5.0;\nimport \"./Catalog.sol\";\n\ncontract BaseContentManagement {\n    bytes32 public title;\n    bytes32 public author;\n    bytes32 public genre;\n    bytes32[] internal content;\n    address internal catalogAddress;\n    address payable owner;\n    Catalog internal catalog;\n\n    struct UserMetadata{\n        bool allowed;\n        bool consumed;\n    }\n\n    mapping (address => UserMetadata) users;\n\n    modifier onlyIfAllowed(){\n        require(\n            users[msg.sender].allowed == true,\n            \"User not allowed\"\n        );\n        _;\n    }\n\n    modifier isCatalog{\n        require(\n            msg.sender == catalogAddress,\n            \"Only the Catalog could perform this action!\"\n        );\n        _;\n    }\n\n    function grantAccess(address _user) external isCatalog(){\n        users[_user].allowed = true;\n        users[_user].consumed = false;\n    }\n\n    function consumeContent() external onlyIfAllowed() returns(bytes32[] memory){\n        users[msg.sender].allowed = false;\n        users[msg.sender].consumed = true;\n        catalog.ConsumedContent(title, msg.sender);\n\n        return content;\n    }\n\n    function hasConsumed(address _user) external view returns(bool){\n        return users[_user].consumed;\n    }\n\n    function close() external payable{\n        selfdestruct(catalog.GetContentOwner(title));\n    }\n    \n}",
  "sourcePath": "/home/chiara/Università/Magistrale/P2P/CobraDapp/contracts/BaseContentManagement.sol",
  "compiler": {
    "name": "solc",
    "version": "0.5.0+commit.1d4f565a.Emscripten.clang"
  },
  "schemaVersion": "3.0.3",
  "updatedAt": "2019-05-15T15:57:30.315Z",
  "devdoc": {
    "methods": {}
  },
  "userdoc": {
    "methods": {}
  }
}