{
  "contractName": "BaseContentManagement",
  "abi": [
    {
      "constant": true,
      "inputs": [],
      "name": "genre",
      "outputs": [
        {
          "name": "",
          "type": "bytes32"
        }
      ],
      "payable": false,
      "stateMutability": "view",
      "type": "function"
    },
    {
      "constant": true,
      "inputs": [],
      "name": "title",
      "outputs": [
        {
          "name": "",
          "type": "bytes32"
        }
      ],
      "payable": false,
      "stateMutability": "view",
      "type": "function"
    },
    {
      "constant": true,
      "inputs": [],
      "name": "author",
      "outputs": [
        {
          "name": "",
          "type": "bytes32"
        }
      ],
      "payable": false,
      "stateMutability": "view",
      "type": "function"
    },
    {
      "constant": false,
      "inputs": [
        {
          "name": "_user",
          "type": "address"
        }
      ],
      "name": "grantAccess",
      "outputs": [],
      "payable": false,
      "stateMutability": "nonpayable",
      "type": "function"
    },
    {
      "constant": false,
      "inputs": [],
      "name": "consumeContent",
      "outputs": [
        {
          "name": "",
          "type": "bytes32[]"
        }
      ],
      "payable": false,
      "stateMutability": "nonpayable",
      "type": "function"
    },
    {
      "constant": true,
      "inputs": [
        {
          "name": "_user",
          "type": "address"
        }
      ],
      "name": "hasConsumed",
      "outputs": [
        {
          "name": "",
          "type": "bool"
        }
      ],
      "payable": false,
      "stateMutability": "view",
      "type": "function"
    }
  ],
  "bytecode": "0x608060405234801561001057600080fd5b506107f0806100206000396000f300608060405260043610610078576000357c0100000000000000000000000000000000000000000000000000000000900463ffffffff1680630ae5e7391461007d578063178ff556146100c057806317de3a411461012c5780632731ebd81461015f5780634a79d50c146101ba578063a6c3e6b9146101ed575b600080fd5b34801561008957600080fd5b506100be600480360381019080803573ffffffffffffffffffffffffffffffffffffffff169060200190929190505050610220565b005b3480156100cc57600080fd5b506100d56103c4565b6040518080602001828103825283818151815260200191508051906020019060200280838360005b838110156101185780820151818401526020810190506100fd565b505050509050019250505060405180910390f35b34801561013857600080fd5b50610141610759565b60405180826000191660001916815260200191505060405180910390f35b34801561016b57600080fd5b506101a0600480360381019080803573ffffffffffffffffffffffffffffffffffffffff16906020019092919050505061075f565b604051808215151515815260200191505060405180910390f35b3480156101c657600080fd5b506101cf6107b8565b60405180826000191660001916815260200191505060405180910390f35b3480156101f957600080fd5b506102026107be565b60405180826000191660001916815260200191505060405180910390f35b600460009054906101000a900473ffffffffffffffffffffffffffffffffffffffff1673ffffffffffffffffffffffffffffffffffffffff163373ffffffffffffffffffffffffffffffffffffffff1614151561030b576040517f08c379a000000000000000000000000000000000000000000000000000000000815260040180806020018281038252602b8152602001807f4f6e6c792074686520436174616c6f6720636f756c6420706572666f726d207481526020017f68697320616374696f6e2100000000000000000000000000000000000000000081525060400191505060405180910390fd5b6001600660008373ffffffffffffffffffffffffffffffffffffffff1673ffffffffffffffffffffffffffffffffffffffff16815260200190815260200160002060000160006101000a81548160ff0219169083151502179055506000600660008373ffffffffffffffffffffffffffffffffffffffff1673ffffffffffffffffffffffffffffffffffffffff16815260200190815260200160002060000160016101000a81548160ff02191690831515021790555050565b606060011515600660003373ffffffffffffffffffffffffffffffffffffffff1673ffffffffffffffffffffffffffffffffffffffff16815260200190815260200160002060000160009054906101000a900460ff161515141515610491576040517f08c379a00000000000000000000000000000000000000000000000000000000081526004018080602001828103825260108152602001807f55736572206e6f7420616c6c6f7765640000000000000000000000000000000081525060200191505060405180910390fd5b6000600660003373ffffffffffffffffffffffffffffffffffffffff1673ffffffffffffffffffffffffffffffffffffffff16815260200190815260200160002060000160006101000a81548160ff0219169083151502179055506001600660003373ffffffffffffffffffffffffffffffffffffffff1673ffffffffffffffffffffffffffffffffffffffff16815260200190815260200160002060000160016101000a81548160ff02191690831515021790555060001515600560009054906101000a900473ffffffffffffffffffffffffffffffffffffffff1673ffffffffffffffffffffffffffffffffffffffff16635ab66bea336040518263ffffffff167c0100000000000000000000000000000000000000000000000000000000028152600401808273ffffffffffffffffffffffffffffffffffffffff1673ffffffffffffffffffffffffffffffffffffffff168152602001915050602060405180830381600087803b15801561060857600080fd5b505af115801561061c573d6000803e3d6000fd5b505050506040513d602081101561063257600080fd5b8101908080519060200190929190505050151514156106ff57600560009054906101000a900473ffffffffffffffffffffffffffffffffffffffff1673ffffffffffffffffffffffffffffffffffffffff1663158a33936000546040518263ffffffff167c0100000000000000000000000000000000000000000000000000000000028152600401808260001916600019168152602001915050600060405180830381600087803b1580156106e657600080fd5b505af11580156106fa573d6000803e3d6000fd5b505050505b600380548060200260200160405190810160405280929190818152602001828054801561074f57602002820191906000526020600020905b81546000191681526020019060010190808311610737575b5050505050905090565b60025481565b6000600660008373ffffffffffffffffffffffffffffffffffffffff1673ffffffffffffffffffffffffffffffffffffffff16815260200190815260200160002060000160019054906101000a900460ff169050919050565b60005481565b600154815600a165627a7a72305820ef53407a8227ac22294074c902b62fa1359e1cb944268737cc906a5cb0f8957a0029",
  "source": "pragma solidity ^0.4.23;\nimport \"./Catalog.sol\";\n\ncontract BaseContentManagement {\n    bytes32 public title;\n    bytes32 public author;\n    bytes32 public genre;\n    bytes32[] internal content;\n    address internal catalogAddress;\n    Catalog internal catalog;\n\n    struct UserMetadata{\n        bool allowed;\n        bool consumed;\n    }\n\n    mapping (address => UserMetadata) users;\n\n    modifier onlyIfAllowed(){\n        require(\n            users[msg.sender].allowed == true,\n            \"User not allowed\"\n        );\n        _;\n    }\n\n    modifier isCatalog{\n        require(\n            msg.sender == catalogAddress,\n            \"Only the Catalog could perform this action!\"\n        );\n        _;\n    }\n\n    function grantAccess(address _user) external isCatalog{\n        users[_user].allowed = true;\n        users[_user].consumed = false;\n    }\n\n    function consumeContent() external onlyIfAllowed() returns(bytes32[]){\n        users[msg.sender].allowed = false;\n        users[msg.sender].consumed = true;\n        if(catalog.IsPremium(msg.sender)==false){\n            catalog.AddViews(title);\n        }\n\n        return content;\n    }\n\n    function hasConsumed(address _user) external view returns(bool){\n        return users[_user].consumed;\n    }\n    \n}",
  "sourcePath": "/home/chiara/Università/Magistrale/P2P/CobraDapp/contracts/BaseContentManagement.sol",
  "compiler": {
    "name": "solc",
    "version": "0.4.24+commit.e67f0147.Emscripten.clang"
  },
  "schemaVersion": "2.0.1",
  "updatedAt": "2018-09-06T20:49:07.851Z"
}