{
  "contractName": "BookContentManagement",
  "abi": [
    {
      "constant": false,
      "inputs": [
        {
          "name": "_user",
          "type": "address"
        }
      ],
      "name": "grantAccess",
      "outputs": [],
      "payable": false,
      "stateMutability": "nonpayable",
      "type": "function",
      "signature": "0x0ae5e739"
    },
    {
      "constant": false,
      "inputs": [],
      "name": "consumeContent",
      "outputs": [
        {
          "name": "",
          "type": "bytes32[]"
        }
      ],
      "payable": false,
      "stateMutability": "nonpayable",
      "type": "function",
      "signature": "0x178ff556"
    },
    {
      "constant": true,
      "inputs": [],
      "name": "genre",
      "outputs": [
        {
          "name": "",
          "type": "bytes32"
        }
      ],
      "payable": false,
      "stateMutability": "view",
      "type": "function",
      "signature": "0x17de3a41"
    },
    {
      "constant": true,
      "inputs": [
        {
          "name": "_user",
          "type": "address"
        }
      ],
      "name": "hasConsumed",
      "outputs": [
        {
          "name": "",
          "type": "bool"
        }
      ],
      "payable": false,
      "stateMutability": "view",
      "type": "function",
      "signature": "0x2731ebd8"
    },
    {
      "constant": false,
      "inputs": [],
      "name": "close",
      "outputs": [],
      "payable": true,
      "stateMutability": "payable",
      "type": "function",
      "signature": "0x43d726d6"
    },
    {
      "constant": true,
      "inputs": [],
      "name": "title",
      "outputs": [
        {
          "name": "",
          "type": "bytes32"
        }
      ],
      "payable": false,
      "stateMutability": "view",
      "type": "function",
      "signature": "0x4a79d50c"
    },
    {
      "constant": true,
      "inputs": [],
      "name": "author",
      "outputs": [
        {
          "name": "",
          "type": "bytes32"
        }
      ],
      "payable": false,
      "stateMutability": "view",
      "type": "function",
      "signature": "0xa6c3e6b9"
    },
    {
      "inputs": [
        {
          "name": "_title",
          "type": "bytes32"
        },
        {
          "name": "_author",
          "type": "bytes32"
        },
        {
          "name": "_encoding",
          "type": "bytes32"
        },
        {
          "name": "_pages",
          "type": "uint256"
        },
        {
          "name": "_catalogAddress",
          "type": "address"
        },
        {
          "name": "_price",
          "type": "uint256"
        }
      ],
      "payable": false,
      "stateMutability": "nonpayable",
      "type": "constructor",
      "signature": "constructor"
    }
  ],
  "bytecode": "0x608060405234801561001057600080fd5b5060405160c080610ac7833981018060405260c081101561003057600080fd5b8101908080519060200190929190805190602001909291908051906020019092919080519060200190929190805190602001909291908051906020019092919050505085600081905550846001819055507f36323666366636620000000000000000000000000000000000000000000000006002819055506003849080600181540180825580915050906001820390600052602060002001600090919290919091505550600383600102908060018154018082558091505090600182039060005260206000200160009091929091909150555081600460006101000a81548173ffffffffffffffffffffffffffffffffffffffff021916908373ffffffffffffffffffffffffffffffffffffffff160217905550600460009054906101000a900473ffffffffffffffffffffffffffffffffffffffff16600660006101000a81548173ffffffffffffffffffffffffffffffffffffffff021916908373ffffffffffffffffffffffffffffffffffffffff160217905550600660009054906101000a900473ffffffffffffffffffffffffffffffffffffffff1673ffffffffffffffffffffffffffffffffffffffff16631d631a8133600054600154600254866040518663ffffffff167c0100000000000000000000000000000000000000000000000000000000028152600401808673ffffffffffffffffffffffffffffffffffffffff1673ffffffffffffffffffffffffffffffffffffffff16815260200185815260200184815260200183815260200182815260200195505050505050600060405180830381600087803b15801561028a57600080fd5b505af115801561029e573d6000803e3d6000fd5b50505050505050505050610810806102b76000396000f3fe608060405260043610610083576000357c0100000000000000000000000000000000000000000000000000000000900463ffffffff1680630ae5e73914610088578063178ff556146100d957806317de3a41146101455780632731ebd81461017057806343d726d6146101d95780634a79d50c146101e3578063a6c3e6b91461020e575b600080fd5b34801561009457600080fd5b506100d7600480360360208110156100ab57600080fd5b81019080803573ffffffffffffffffffffffffffffffffffffffff169060200190929190505050610239565b005b3480156100e557600080fd5b506100ee6103dd565b6040518080602001828103825283818151815260200191508051906020019060200280838360005b83811015610131578082015181840152602081019050610116565b505050509050019250505060405180910390f35b34801561015157600080fd5b5061015a610695565b6040518082815260200191505060405180910390f35b34801561017c57600080fd5b506101bf6004803603602081101561019357600080fd5b81019080803573ffffffffffffffffffffffffffffffffffffffff16906020019092919050505061069b565b604051808215151515815260200191505060405180910390f35b6101e16106f4565b005b3480156101ef57600080fd5b506101f86107d8565b6040518082815260200191505060405180910390f35b34801561021a57600080fd5b506102236107de565b6040518082815260200191505060405180910390f35b600460009054906101000a900473ffffffffffffffffffffffffffffffffffffffff1673ffffffffffffffffffffffffffffffffffffffff163373ffffffffffffffffffffffffffffffffffffffff16141515610324576040517f08c379a000000000000000000000000000000000000000000000000000000000815260040180806020018281038252602b8152602001807f4f6e6c792074686520436174616c6f6720636f756c6420706572666f726d207481526020017f68697320616374696f6e2100000000000000000000000000000000000000000081525060400191505060405180910390fd5b6001600760008373ffffffffffffffffffffffffffffffffffffffff1673ffffffffffffffffffffffffffffffffffffffff16815260200190815260200160002060000160006101000a81548160ff0219169083151502179055506000600760008373ffffffffffffffffffffffffffffffffffffffff1673ffffffffffffffffffffffffffffffffffffffff16815260200190815260200160002060000160016101000a81548160ff02191690831515021790555050565b606060011515600760003373ffffffffffffffffffffffffffffffffffffffff1673ffffffffffffffffffffffffffffffffffffffff16815260200190815260200160002060000160009054906101000a900460ff1615151415156104aa576040517f08c379a00000000000000000000000000000000000000000000000000000000081526004018080602001828103825260108152602001807f55736572206e6f7420616c6c6f7765640000000000000000000000000000000081525060200191505060405180910390fd5b6000600760003373ffffffffffffffffffffffffffffffffffffffff1673ffffffffffffffffffffffffffffffffffffffff16815260200190815260200160002060000160006101000a81548160ff0219169083151502179055506001600760003373ffffffffffffffffffffffffffffffffffffffff1673ffffffffffffffffffffffffffffffffffffffff16815260200190815260200160002060000160016101000a81548160ff021916908315150217905550600660009054906101000a900473ffffffffffffffffffffffffffffffffffffffff1673ffffffffffffffffffffffffffffffffffffffff1663901afe98600054336040518363ffffffff167c0100000000000000000000000000000000000000000000000000000000028152600401808381526020018273ffffffffffffffffffffffffffffffffffffffff1673ffffffffffffffffffffffffffffffffffffffff16815260200192505050600060405180830381600087803b15801561062757600080fd5b505af115801561063b573d6000803e3d6000fd5b50505050600380548060200260200160405190810160405280929190818152602001828054801561068b57602002820191906000526020600020905b815481526020019060010190808311610677575b5050505050905090565b60025481565b6000600760008373ffffffffffffffffffffffffffffffffffffffff1673ffffffffffffffffffffffffffffffffffffffff16815260200190815260200160002060000160019054906101000a900460ff169050919050565b600660009054906101000a900473ffffffffffffffffffffffffffffffffffffffff1673ffffffffffffffffffffffffffffffffffffffff1663deea2cb66000546040518263ffffffff167c01000000000000000000000000000000000000000000000000000000000281526004018082815260200191505060206040518083038186803b15801561078557600080fd5b505afa158015610799573d6000803e3d6000fd5b505050506040513d60208110156107af57600080fd5b810190808051906020019092919050505073ffffffffffffffffffffffffffffffffffffffff16ff5b60005481565b6001548156fea165627a7a723058203851ddaf229e76e5f41c7bee5764fa5a94d36c5307a709d273d595f611c0dc070029",
  "source": "pragma solidity ^0.5.0;\n\nimport \"./BaseContentManagement.sol\";\n\ncontract BookContentManagement is BaseContentManagement{\n\n    bytes32 private encoding;\n    uint private pages;\n    \n    constructor(bytes32 _title, bytes32 _author, bytes32 _encoding, uint _pages, address _catalogAddress, uint _price) public{\n        title = _title;\n        author = _author;\n        genre = \"626f6f6b\";\n        content.push(_encoding);\n        content.push(bytes32(_pages));\n        catalogAddress = _catalogAddress;\n        catalog = Catalog(catalogAddress);\n        catalog.LinkToTheCatalog(msg.sender, title, author, genre, _price);\n    }\n}\n\ncontract MovieContentManagement is BaseContentManagement{\n\n    bytes32 private encoding;\n    uint private bitrate;\n    uint private duration;\n    uint private width;\n    uint private height;\n    \n    constructor(bytes32 _title, bytes32 _author, bytes32 _encoding, uint _bitrate, uint _duration,\n    uint _width, uint _height, address _catalogAddress, uint _price) public{\n        title = _title;\n        author = _author;\n        genre = \"6d6f766965\";\n        content.push(_encoding);\n        content.push(bytes32(_bitrate));\n        content.push(bytes32(_duration));\n        content.push(bytes32(_width));\n        content.push(bytes32(_height));\n        catalogAddress = _catalogAddress;\n        catalog = Catalog(catalogAddress);\n        catalog.LinkToTheCatalog(msg.sender, title, author, genre, _price);\n    }\n}\n\ncontract MusicContentManagement is BaseContentManagement{\n\n    bytes32 private encoding;\n    uint private bitrate;\n    uint private duration;\n    \n    constructor(bytes32 _title, bytes32 _author, bytes32 _encoding, uint _bitrate, uint _duration, address _catalogAddress, uint _price) public{\n        title = _title;\n        author = _author;\n        genre = \"736f6e67\";\n        content.push(_encoding);\n        content.push(bytes32(_bitrate));\n        content.push(bytes32(_duration));\n        catalogAddress = _catalogAddress;\n        catalog = Catalog(catalogAddress);\n        catalog.LinkToTheCatalog(msg.sender, title, author, genre, _price);\n    }\n}",
  "sourcePath": "/home/chiara/Università/Magistrale/P2P/CobraDapp/contracts/ContentManagement.sol",
  "compiler": {
    "name": "solc",
    "version": "0.5.0+commit.1d4f565a.Emscripten.clang"
  },
  "schemaVersion": "3.0.3",
  "updatedAt": "2019-05-15T15:27:31.707Z",
  "devdoc": {
    "methods": {}
  },
  "userdoc": {
    "methods": {}
  }
}