{
  "contractName": "BookContentManagement",
  "abi": [
    {
      "constant": false,
      "inputs": [
        {
          "name": "_user",
          "type": "address"
        }
      ],
      "name": "grantAccess",
      "outputs": [],
      "payable": false,
      "stateMutability": "nonpayable",
      "type": "function"
    },
    {
      "constant": false,
      "inputs": [],
      "name": "consumeContent",
      "outputs": [
        {
          "name": "",
          "type": "bytes32[]"
        }
      ],
      "payable": false,
      "stateMutability": "nonpayable",
      "type": "function"
    },
    {
      "constant": true,
      "inputs": [],
      "name": "genre",
      "outputs": [
        {
          "name": "",
          "type": "bytes32"
        }
      ],
      "payable": false,
      "stateMutability": "view",
      "type": "function"
    },
    {
      "constant": true,
      "inputs": [
        {
          "name": "_user",
          "type": "address"
        }
      ],
      "name": "hasConsumed",
      "outputs": [
        {
          "name": "",
          "type": "bool"
        }
      ],
      "payable": false,
      "stateMutability": "view",
      "type": "function"
    },
    {
      "constant": false,
      "inputs": [],
      "name": "close",
      "outputs": [],
      "payable": true,
      "stateMutability": "payable",
      "type": "function"
    },
    {
      "constant": true,
      "inputs": [],
      "name": "title",
      "outputs": [
        {
          "name": "",
          "type": "bytes32"
        }
      ],
      "payable": false,
      "stateMutability": "view",
      "type": "function"
    },
    {
      "constant": true,
      "inputs": [],
      "name": "author",
      "outputs": [
        {
          "name": "",
          "type": "bytes32"
        }
      ],
      "payable": false,
      "stateMutability": "view",
      "type": "function"
    },
    {
      "inputs": [
        {
          "name": "_title",
          "type": "bytes32"
        },
        {
          "name": "_author",
          "type": "bytes32"
        },
        {
          "name": "_encoding",
          "type": "bytes32"
        },
        {
          "name": "_pages",
          "type": "uint256"
        },
        {
          "name": "_catalogAddress",
          "type": "address"
        },
        {
          "name": "_price",
          "type": "uint256"
        }
      ],
      "payable": false,
      "stateMutability": "nonpayable",
      "type": "constructor"
    },
    {
      "anonymous": false,
      "inputs": [
        {
          "indexed": false,
          "name": "_content",
          "type": "bytes32"
        },
        {
          "indexed": false,
          "name": "_user",
          "type": "address"
        }
      ],
      "name": "ConsumedContent",
      "type": "event"
    }
  ],
  "bytecode": "0x608060405234801561001057600080fd5b5060405160c080610bbb833981018060405260c081101561003057600080fd5b8101908080519060200190929190805190602001909291908051906020019092919080519060200190929190805190602001909291908051906020019092919050505085600081905550846001819055507f36323666366636620000000000000000000000000000000000000000000000006002819055506003849080600181540180825580915050906001820390600052602060002001600090919290919091505550600383600102908060018154018082558091505090600182039060005260206000200160009091929091909150555081600460006101000a81548173ffffffffffffffffffffffffffffffffffffffff021916908373ffffffffffffffffffffffffffffffffffffffff160217905550600460009054906101000a900473ffffffffffffffffffffffffffffffffffffffff16600660006101000a81548173ffffffffffffffffffffffffffffffffffffffff021916908373ffffffffffffffffffffffffffffffffffffffff160217905550600660009054906101000a900473ffffffffffffffffffffffffffffffffffffffff1673ffffffffffffffffffffffffffffffffffffffff166324b338a2600054836040518363ffffffff167c01000000000000000000000000000000000000000000000000000000000281526004018083815260200182815260200192505050600060405180830381600087803b15801561024257600080fd5b505af1158015610256573d6000803e3d6000fd5b5050505050505050505061094c8061026f6000396000f3fe608060405260043610610083576000357c0100000000000000000000000000000000000000000000000000000000900463ffffffff1680630ae5e73914610088578063178ff556146100d957806317de3a41146101455780632731ebd81461017057806343d726d6146101d95780634a79d50c146101e3578063a6c3e6b91461020e575b600080fd5b34801561009457600080fd5b506100d7600480360360208110156100ab57600080fd5b81019080803573ffffffffffffffffffffffffffffffffffffffff169060200190929190505050610239565b005b3480156100e557600080fd5b506100ee6103dd565b6040518080602001828103825283818151815260200191508051906020019060200280838360005b83811015610131578082015181840152602081019050610116565b505050509050019250505060405180910390f35b34801561015157600080fd5b5061015a6107d1565b6040518082815260200191505060405180910390f35b34801561017c57600080fd5b506101bf6004803603602081101561019357600080fd5b81019080803573ffffffffffffffffffffffffffffffffffffffff1690602001909291905050506107d7565b604051808215151515815260200191505060405180910390f35b6101e1610830565b005b3480156101ef57600080fd5b506101f8610914565b6040518082815260200191505060405180910390f35b34801561021a57600080fd5b5061022361091a565b6040518082815260200191505060405180910390f35b600460009054906101000a900473ffffffffffffffffffffffffffffffffffffffff1673ffffffffffffffffffffffffffffffffffffffff163373ffffffffffffffffffffffffffffffffffffffff16141515610324576040517f08c379a000000000000000000000000000000000000000000000000000000000815260040180806020018281038252602b8152602001807f4f6e6c792074686520436174616c6f6720636f756c6420706572666f726d207481526020017f68697320616374696f6e2100000000000000000000000000000000000000000081525060400191505060405180910390fd5b6001600760008373ffffffffffffffffffffffffffffffffffffffff1673ffffffffffffffffffffffffffffffffffffffff16815260200190815260200160002060000160006101000a81548160ff0219169083151502179055506000600760008373ffffffffffffffffffffffffffffffffffffffff1673ffffffffffffffffffffffffffffffffffffffff16815260200190815260200160002060000160016101000a81548160ff02191690831515021790555050565b606060011515600760003373ffffffffffffffffffffffffffffffffffffffff1673ffffffffffffffffffffffffffffffffffffffff16815260200190815260200160002060000160009054906101000a900460ff1615151415156104aa576040517f08c379a00000000000000000000000000000000000000000000000000000000081526004018080602001828103825260108152602001807f55736572206e6f7420616c6c6f7765640000000000000000000000000000000081525060200191505060405180910390fd5b6000600760003373ffffffffffffffffffffffffffffffffffffffff1673ffffffffffffffffffffffffffffffffffffffff16815260200190815260200160002060000160006101000a81548160ff0219169083151502179055506001600760003373ffffffffffffffffffffffffffffffffffffffff1673ffffffffffffffffffffffffffffffffffffffff16815260200190815260200160002060000160016101000a81548160ff02191690831515021790555060001515600660009054906101000a900473ffffffffffffffffffffffffffffffffffffffff1673ffffffffffffffffffffffffffffffffffffffff16635ab66bea336040518263ffffffff167c0100000000000000000000000000000000000000000000000000000000028152600401808273ffffffffffffffffffffffffffffffffffffffff1673ffffffffffffffffffffffffffffffffffffffff16815260200191505060206040518083038186803b15801561061f57600080fd5b505afa158015610633573d6000803e3d6000fd5b505050506040513d602081101561064957600080fd5b81019080805190602001909291905050501515141561070e57600660009054906101000a900473ffffffffffffffffffffffffffffffffffffffff1673ffffffffffffffffffffffffffffffffffffffff1663158a33936000546040518263ffffffff167c010000000000000000000000000000000000000000000000000000000002815260040180828152602001915050600060405180830381600087803b1580156106f557600080fd5b505af1158015610709573d6000803e3d6000fd5b505050505b7f901afe98613e7651c112af66f4fcb43ceb6830e841beb98e3dc092f56dc57d0360005433604051808381526020018273ffffffffffffffffffffffffffffffffffffffff1673ffffffffffffffffffffffffffffffffffffffff1681526020019250505060405180910390a160038054806020026020016040519081016040528092919081815260200182805480156107c757602002820191906000526020600020905b8154815260200190600101908083116107b3575b5050505050905090565b60025481565b6000600760008373ffffffffffffffffffffffffffffffffffffffff1673ffffffffffffffffffffffffffffffffffffffff16815260200190815260200160002060000160019054906101000a900460ff169050919050565b600660009054906101000a900473ffffffffffffffffffffffffffffffffffffffff1673ffffffffffffffffffffffffffffffffffffffff16630ce045196000546040518263ffffffff167c01000000000000000000000000000000000000000000000000000000000281526004018082815260200191505060206040518083038186803b1580156108c157600080fd5b505afa1580156108d5573d6000803e3d6000fd5b505050506040513d60208110156108eb57600080fd5b810190808051906020019092919050505073ffffffffffffffffffffffffffffffffffffffff16ff5b60005481565b6001548156fea165627a7a72305820081717a5c6a3cfe5abf30111a427b9a61fde9185b372479ddefc4be51f3d68ad0029",
  "source": "pragma solidity ^0.5.0;\n\nimport \"./BaseContentManagement.sol\";\n\ncontract BookContentManagement is BaseContentManagement{\n\n    bytes32 private encoding;\n    uint private pages;\n    \n    constructor(bytes32 _title, bytes32 _author, bytes32 _encoding, uint _pages, address _catalogAddress, uint _price) public{\n        title = _title;\n        author = _author;\n        genre = \"626f6f6b\";\n        content.push(_encoding);\n        content.push(bytes32(_pages));\n        catalogAddress = _catalogAddress;\n        catalog = Catalog(catalogAddress);\n        catalog.LinkToTheCatalog(title, _price);\n    }\n}\n\ncontract MovieContentManagement is BaseContentManagement{\n\n    bytes32 private encoding;\n    uint private bitrate;\n    uint private duration;\n    uint private width;\n    uint private height;\n    \n    constructor(bytes32 _title, bytes32 _author, bytes32 _encoding, uint _bitrate, uint _duration,\n    uint _width, uint _height, address _catalogAddress, uint _price) public{\n        title = _title;\n        author = _author;\n        genre = \"6d6f766965\";\n        content.push(_encoding);\n        content.push(bytes32(_bitrate));\n        content.push(bytes32(_duration));\n        content.push(bytes32(_width));\n        content.push(bytes32(_height));\n        catalogAddress = _catalogAddress;\n        catalog = Catalog(catalogAddress);\n        catalog.LinkToTheCatalog(title, _price);\n    }\n}\n\ncontract MusicContentManagement is BaseContentManagement{\n\n    bytes32 private encoding;\n    uint private bitrate;\n    uint private duration;\n    \n    constructor(bytes32 _title, bytes32 _author, bytes32 _encoding, uint _bitrate, uint _duration, address _catalogAddress, uint _price) public{\n        title = _title;\n        author = _author;\n        genre = \"736f6e67\";\n        content.push(_encoding);\n        content.push(bytes32(_bitrate));\n        content.push(bytes32(_duration));\n        catalogAddress = _catalogAddress;\n        catalog = Catalog(catalogAddress);\n        catalog.LinkToTheCatalog(title, _price);\n    }\n}",
  "sourcePath": "/home/chiara/Università/Magistrale/P2P/CobraDapp/contracts/ContentManagement.sol",
  "compiler": {
    "name": "solc",
    "version": "0.5.0+commit.1d4f565a.Emscripten.clang"
  },
  "schemaVersion": "3.0.3",
  "updatedAt": "2019-05-09T10:55:48.785Z",
  "devdoc": {
    "methods": {}
  },
  "userdoc": {
    "methods": {}
  }
}