{
  "contractName": "Catalog",
  "abi": [
    {
      "constant": true,
      "inputs": [],
      "name": "creator",
      "outputs": [
        {
          "name": "",
          "type": "address"
        }
      ],
      "payable": false,
      "stateMutability": "view",
      "type": "function"
    },
    {
      "constant": true,
      "inputs": [],
      "name": "premiumPrice",
      "outputs": [
        {
          "name": "",
          "type": "uint256"
        }
      ],
      "payable": false,
      "stateMutability": "view",
      "type": "function"
    },
    {
      "constant": true,
      "inputs": [],
      "name": "paymentDelay",
      "outputs": [
        {
          "name": "",
          "type": "uint256"
        }
      ],
      "payable": false,
      "stateMutability": "view",
      "type": "function"
    },
    {
      "inputs": [],
      "payable": false,
      "stateMutability": "nonpayable",
      "type": "constructor"
    },
    {
      "anonymous": false,
      "inputs": [
        {
          "indexed": false,
          "name": "_content",
          "type": "bytes32"
        },
        {
          "indexed": false,
          "name": "_user",
          "type": "address"
        }
      ],
      "name": "AccessGranted",
      "type": "event"
    },
    {
      "anonymous": false,
      "inputs": [
        {
          "indexed": false,
          "name": "_content",
          "type": "bytes32"
        },
        {
          "indexed": false,
          "name": "_author",
          "type": "bytes32"
        },
        {
          "indexed": false,
          "name": "_genre",
          "type": "uint256"
        }
      ],
      "name": "NewLinkedContent",
      "type": "event"
    },
    {
      "anonymous": false,
      "inputs": [
        {
          "indexed": false,
          "name": "_content",
          "type": "bytes32"
        },
        {
          "indexed": false,
          "name": "_user",
          "type": "address"
        }
      ],
      "name": "ContentConsumed",
      "type": "event"
    },
    {
      "anonymous": false,
      "inputs": [
        {
          "indexed": false,
          "name": "_content",
          "type": "bytes32"
        },
        {
          "indexed": false,
          "name": "_owner",
          "type": "address"
        }
      ],
      "name": "AuthorPaid",
      "type": "event"
    },
    {
      "anonymous": false,
      "inputs": [],
      "name": "ClosedCatalog",
      "type": "event"
    },
    {
      "constant": true,
      "inputs": [
        {
          "name": "_title",
          "type": "bytes32"
        }
      ],
      "name": "getContentPrice",
      "outputs": [
        {
          "name": "",
          "type": "uint256"
        }
      ],
      "payable": false,
      "stateMutability": "view",
      "type": "function"
    },
    {
      "constant": true,
      "inputs": [
        {
          "name": "_title",
          "type": "bytes32"
        }
      ],
      "name": "GetContentAddress",
      "outputs": [
        {
          "name": "",
          "type": "address"
        }
      ],
      "payable": false,
      "stateMutability": "view",
      "type": "function"
    },
    {
      "constant": true,
      "inputs": [],
      "name": "getCatalogAddress",
      "outputs": [
        {
          "name": "",
          "type": "address"
        }
      ],
      "payable": false,
      "stateMutability": "view",
      "type": "function"
    },
    {
      "constant": true,
      "inputs": [],
      "name": "NumberOfLinkedContents",
      "outputs": [
        {
          "name": "",
          "type": "uint256"
        }
      ],
      "payable": false,
      "stateMutability": "view",
      "type": "function"
    },
    {
      "constant": true,
      "inputs": [
        {
          "name": "_title",
          "type": "bytes32"
        }
      ],
      "name": "GetContentOwner",
      "outputs": [
        {
          "name": "",
          "type": "address"
        }
      ],
      "payable": false,
      "stateMutability": "view",
      "type": "function"
    },
    {
      "constant": false,
      "inputs": [
        {
          "name": "_owner",
          "type": "address"
        },
        {
          "name": "_title",
          "type": "bytes32"
        },
        {
          "name": "_author",
          "type": "bytes32"
        },
        {
          "name": "_genre",
          "type": "uint256"
        },
        {
          "name": "_requestedPrice",
          "type": "uint256"
        }
      ],
      "name": "LinkToTheCatalog",
      "outputs": [],
      "payable": false,
      "stateMutability": "nonpayable",
      "type": "function"
    },
    {
      "constant": false,
      "inputs": [
        {
          "name": "_title",
          "type": "bytes32"
        }
      ],
      "name": "DeleteContent",
      "outputs": [],
      "payable": false,
      "stateMutability": "nonpayable",
      "type": "function"
    },
    {
      "constant": true,
      "inputs": [],
      "name": "GetStatistics",
      "outputs": [
        {
          "name": "",
          "type": "bytes32[]"
        },
        {
          "name": "",
          "type": "uint256[]"
        }
      ],
      "payable": false,
      "stateMutability": "view",
      "type": "function"
    },
    {
      "constant": true,
      "inputs": [],
      "name": "GetContentList",
      "outputs": [
        {
          "name": "",
          "type": "bytes32[]"
        }
      ],
      "payable": false,
      "stateMutability": "view",
      "type": "function"
    },
    {
      "constant": true,
      "inputs": [
        {
          "name": "_x",
          "type": "uint256"
        }
      ],
      "name": "GetNewContentsList",
      "outputs": [
        {
          "name": "",
          "type": "bytes32[]"
        }
      ],
      "payable": false,
      "stateMutability": "view",
      "type": "function"
    },
    {
      "constant": true,
      "inputs": [
        {
          "name": "_genre",
          "type": "uint256"
        }
      ],
      "name": "GetLatestByGenre",
      "outputs": [
        {
          "name": "",
          "type": "bytes32"
        }
      ],
      "payable": false,
      "stateMutability": "view",
      "type": "function"
    },
    {
      "constant": true,
      "inputs": [
        {
          "name": "_author",
          "type": "bytes32"
        }
      ],
      "name": "GetLatestByAuthor",
      "outputs": [
        {
          "name": "",
          "type": "bytes32"
        }
      ],
      "payable": false,
      "stateMutability": "view",
      "type": "function"
    },
    {
      "constant": true,
      "inputs": [
        {
          "name": "_genre",
          "type": "uint256"
        }
      ],
      "name": "GetMostPopularByGenre",
      "outputs": [
        {
          "name": "",
          "type": "bytes32"
        }
      ],
      "payable": false,
      "stateMutability": "view",
      "type": "function"
    },
    {
      "constant": true,
      "inputs": [
        {
          "name": "_author",
          "type": "bytes32"
        }
      ],
      "name": "GetMostPopularByAuthor",
      "outputs": [
        {
          "name": "",
          "type": "bytes32"
        }
      ],
      "payable": false,
      "stateMutability": "view",
      "type": "function"
    },
    {
      "constant": true,
      "inputs": [
        {
          "name": "_category",
          "type": "uint256"
        }
      ],
      "name": "GetMostRated",
      "outputs": [
        {
          "name": "",
          "type": "bytes32"
        }
      ],
      "payable": false,
      "stateMutability": "view",
      "type": "function"
    },
    {
      "constant": true,
      "inputs": [
        {
          "name": "_genre",
          "type": "uint256"
        },
        {
          "name": "_category",
          "type": "uint256"
        }
      ],
      "name": "GetMostRatedByGenre",
      "outputs": [
        {
          "name": "",
          "type": "bytes32"
        }
      ],
      "payable": false,
      "stateMutability": "view",
      "type": "function"
    },
    {
      "constant": true,
      "inputs": [
        {
          "name": "_author",
          "type": "bytes32"
        },
        {
          "name": "_category",
          "type": "uint256"
        }
      ],
      "name": "GetMostRatedByAuthor",
      "outputs": [
        {
          "name": "",
          "type": "bytes32"
        }
      ],
      "payable": false,
      "stateMutability": "view",
      "type": "function"
    },
    {
      "constant": true,
      "inputs": [
        {
          "name": "_author",
          "type": "bytes32"
        }
      ],
      "name": "GetMostRatedByAuthor",
      "outputs": [
        {
          "name": "",
          "type": "bytes32"
        }
      ],
      "payable": false,
      "stateMutability": "view",
      "type": "function"
    },
    {
      "constant": false,
      "inputs": [
        {
          "name": "_interest",
          "type": "bytes32"
        }
      ],
      "name": "AddInterest",
      "outputs": [],
      "payable": false,
      "stateMutability": "nonpayable",
      "type": "function"
    },
    {
      "constant": true,
      "inputs": [],
      "name": "GetInterestsNum",
      "outputs": [
        {
          "name": "",
          "type": "uint256"
        }
      ],
      "payable": false,
      "stateMutability": "view",
      "type": "function"
    },
    {
      "constant": true,
      "inputs": [],
      "name": "GetInterests",
      "outputs": [
        {
          "name": "",
          "type": "bytes32[]"
        }
      ],
      "payable": false,
      "stateMutability": "view",
      "type": "function"
    },
    {
      "constant": false,
      "inputs": [
        {
          "name": "_content",
          "type": "bytes32"
        },
        {
          "name": "_price",
          "type": "uint256"
        },
        {
          "name": "_appreciation",
          "type": "uint256"
        },
        {
          "name": "_quality",
          "type": "uint256"
        }
      ],
      "name": "LeaveFeedback",
      "outputs": [],
      "payable": false,
      "stateMutability": "nonpayable",
      "type": "function"
    },
    {
      "constant": true,
      "inputs": [
        {
          "name": "_user",
          "type": "address"
        }
      ],
      "name": "IsPremium",
      "outputs": [
        {
          "name": "",
          "type": "bool"
        }
      ],
      "payable": false,
      "stateMutability": "view",
      "type": "function"
    },
    {
      "constant": false,
      "inputs": [
        {
          "name": "_content",
          "type": "bytes32"
        }
      ],
      "name": "GetContent",
      "outputs": [
        {
          "name": "",
          "type": "address"
        }
      ],
      "payable": true,
      "stateMutability": "payable",
      "type": "function"
    },
    {
      "constant": false,
      "inputs": [
        {
          "name": "_content",
          "type": "bytes32"
        }
      ],
      "name": "GetContentPremium",
      "outputs": [
        {
          "name": "",
          "type": "address"
        }
      ],
      "payable": false,
      "stateMutability": "nonpayable",
      "type": "function"
    },
    {
      "constant": false,
      "inputs": [
        {
          "name": "_content",
          "type": "bytes32"
        },
        {
          "name": "_user",
          "type": "address"
        }
      ],
      "name": "GiftContent",
      "outputs": [
        {
          "name": "",
          "type": "address"
        }
      ],
      "payable": true,
      "stateMutability": "payable",
      "type": "function"
    },
    {
      "constant": false,
      "inputs": [
        {
          "name": "_user",
          "type": "address"
        }
      ],
      "name": "GiftPremium",
      "outputs": [],
      "payable": true,
      "stateMutability": "payable",
      "type": "function"
    },
    {
      "constant": false,
      "inputs": [],
      "name": "BuyPremium",
      "outputs": [],
      "payable": true,
      "stateMutability": "payable",
      "type": "function"
    },
    {
      "constant": false,
      "inputs": [
        {
          "name": "_content",
          "type": "bytes32"
        },
        {
          "name": "_user",
          "type": "address"
        }
      ],
      "name": "ConsumedContent",
      "outputs": [],
      "payable": false,
      "stateMutability": "nonpayable",
      "type": "function"
    },
    {
      "constant": false,
      "inputs": [],
      "name": "CloseCatalog",
      "outputs": [],
      "payable": false,
      "stateMutability": "nonpayable",
      "type": "function"
    }
  ],
  "bytecode": "0x60806040523480156200001157600080fd5b50336000806101000a81548173ffffffffffffffffffffffffffffffffffffffff021916908373ffffffffffffffffffffffffffffffffffffffff16021790555061d21c6001819055506101f4600281905550600560048190555060006005819055506000604051908082528060200260200182016040528015620000a55781602001602082028038833980820191505090505b5060039080519060200190620000bd929190620000c4565b506200013e565b82805482825590600052602060002090810192821562000103579160200282015b8281111562000102578251825591602001919060010190620000e5565b5b50905062000112919062000116565b5090565b6200013b91905b80821115620001375760008160009055506001016200011d565b5090565b90565b613e45806200014e6000396000f3fe6080604052600436106101a0576000357c0100000000000000000000000000000000000000000000000000000000900463ffffffff168062429657146101a557806302d05d3f146101f457806309232f8a1461024b57806315be7724146102c457806320d21c5c146102db5780632126483e146103165780632eefa37f1461036f57806330654e13146103795780633a20d676146103a45780634dc1e1681461041257806351d25fe6146104565780635474a7731461050a5780635ab66bea146105635780636cf40725146105cc578063867fbfe0146106255780638e500e4f14610691578063901afe981461070c5780639c9a4a3f146107675780639eef4471146107b6578063a5ff0f1014610805578063aeed4de314610830578063bdac07631461087f578063c2ab2651146108d6578063d1628fb014610901578063d94cf6e014610991578063d97c0065146109e0578063deea2cb614610a5b578063e61ecdd914610ad6578063ef79616c14610b25578063f15b363a14610b50578063f362cc7414610bde578063fd9b508714610c2d578063ff70f85914610c68575b600080fd5b3480156101b157600080fd5b506101de600480360360208110156101c857600080fd5b8101908080359060200190929190505050610cd4565b6040518082815260200191505060405180910390f35b34801561020057600080fd5b50610209610dbb565b604051808273ffffffffffffffffffffffffffffffffffffffff1673ffffffffffffffffffffffffffffffffffffffff16815260200191505060405180910390f35b34801561025757600080fd5b506102c2600480360360a081101561026e57600080fd5b81019080803573ffffffffffffffffffffffffffffffffffffffff16906020019092919080359060200190929190803590602001909291908035906020019092919080359060200190929190505050610de0565b005b3480156102d057600080fd5b506102d9610ff7565b005b3480156102e757600080fd5b50610314600480360360208110156102fe57600080fd5b8101908080359060200190929190505050611268565b005b34801561032257600080fd5b506103596004803603604081101561033957600080fd5b81019080803590602001909291908035906020019092919050505061168d565b6040518082815260200191505060405180910390f35b610377611744565b005b34801561038557600080fd5b5061038e611889565b6040518082815260200191505060405180910390f35b6103d0600480360360208110156103ba57600080fd5b810190808035906020019092919050505061188f565b604051808273ffffffffffffffffffffffffffffffffffffffff1673ffffffffffffffffffffffffffffffffffffffff16815260200191505060405180910390f35b6104546004803603602081101561042857600080fd5b81019080803573ffffffffffffffffffffffffffffffffffffffff169060200190929190505050611b9f565b005b34801561046257600080fd5b5061046b611ce5565b604051808060200180602001838103835285818151815260200191508051906020019060200280838360005b838110156104b2578082015181840152602081019050610497565b50505050905001838103825284818151815260200191508051906020019060200280838360005b838110156104f45780820151818401526020810190506104d9565b5050505090500194505050505060405180910390f35b34801561051657600080fd5b506105616004803603608081101561052d57600080fd5b8101908080359060200190929190803590602001909291908035906020019092919080359060200190929190505050611e6a565b005b34801561056f57600080fd5b506105b26004803603602081101561058657600080fd5b81019080803573ffffffffffffffffffffffffffffffffffffffff16906020019092919050505061254d565b604051808215151515815260200191505060405180910390f35b3480156105d857600080fd5b5061060f600480360360408110156105ef57600080fd5b810190808035906020019092919080359060200190929190505050612608565b6040518082815260200191505060405180910390f35b34801561063157600080fd5b5061063a6126bf565b6040518080602001828103825283818151815260200191508051906020019060200280838360005b8381101561067d578082015181840152602081019050610662565b505050509050019250505060405180910390f35b34801561069d57600080fd5b506106ca600480360360208110156106b457600080fd5b8101908080359060200190929190505050612754565b604051808273ffffffffffffffffffffffffffffffffffffffff1673ffffffffffffffffffffffffffffffffffffffff16815260200191505060405180910390f35b34801561071857600080fd5b506107656004803603604081101561072f57600080fd5b8101908080359060200190929190803573ffffffffffffffffffffffffffffffffffffffff16906020019092919050505061285b565b005b34801561077357600080fd5b506107a06004803603602081101561078a57600080fd5b8101908080359060200190929190505050612bee565b6040518082815260200191505060405180910390f35b3480156107c257600080fd5b506107ef600480360360208110156107d957600080fd5b8101908080359060200190929190505050612dc0565b6040518082815260200191505060405180910390f35b34801561081157600080fd5b5061081a612de0565b6040518082815260200191505060405180910390f35b34801561083c57600080fd5b506108696004803603602081101561085357600080fd5b8101908080359060200190929190505050612e2a565b6040518082815260200191505060405180910390f35b34801561088b57600080fd5b50610894612ffc565b604051808273ffffffffffffffffffffffffffffffffffffffff1673ffffffffffffffffffffffffffffffffffffffff16815260200191505060405180910390f35b3480156108e257600080fd5b506108eb613004565b6040518082815260200191505060405180910390f35b34801561090d57600080fd5b5061093a6004803603602081101561092457600080fd5b810190808035906020019092919050505061300a565b6040518080602001828103825283818151815260200191508051906020019060200280838360005b8381101561097d578082015181840152602081019050610962565b505050509050019250505060405180910390f35b34801561099d57600080fd5b506109ca600480360360208110156109b457600080fd5b8101908080359060200190929190505050613144565b6040518082815260200191505060405180910390f35b3480156109ec57600080fd5b50610a1960048036036020811015610a0357600080fd5b8101908080359060200190929190505050613371565b604051808273ffffffffffffffffffffffffffffffffffffffff1673ffffffffffffffffffffffffffffffffffffffff16815260200191505060405180910390f35b348015610a6757600080fd5b50610a9460048036036020811015610a7e57600080fd5b8101908080359060200190929190505050613707565b604051808273ffffffffffffffffffffffffffffffffffffffff1673ffffffffffffffffffffffffffffffffffffffff16815260200191505060405180910390f35b348015610ae257600080fd5b50610b0f60048036036020811015610af957600080fd5b8101908080359060200190929190505050613747565b6040518082815260200191505060405180910390f35b348015610b3157600080fd5b50610b3a6137b9565b6040518082815260200191505060405180910390f35b610b9c60048036036040811015610b6657600080fd5b8101908080359060200190929190803573ffffffffffffffffffffffffffffffffffffffff1690602001909291905050506137c6565b604051808273ffffffffffffffffffffffffffffffffffffffff1673ffffffffffffffffffffffffffffffffffffffff16815260200191505060405180910390f35b348015610bea57600080fd5b50610c1760048036036020811015610c0157600080fd5b8101908080359060200190929190505050613ad7565b6040518082815260200191505060405180910390f35b348015610c3957600080fd5b50610c6660048036036020811015610c5057600080fd5b8101908080359060200190929190505050613d04565b005b348015610c7457600080fd5b50610c7d613d70565b6040518080602001828103825283818151815260200191508051906020019060200280838360005b83811015610cc0578082015181840152602081019050610ca5565b505050509050019250505060405180910390f35b600081600115156006600083815260200190815260200160002060010160149054906101000a900460ff161515141515610d9c576040517f08c379a00000000000000000000000000000000000000000000000000000000081526004018080602001828103825260228152602001807f436f6e74656e74206e6f74206c696e6b656420746f2074686520636174616c6f81526020017f672100000000000000000000000000000000000000000000000000000000000081525060400191505060405180910390fd5b6006600084815260200190815260200160002060060154915050919050565b6000809054906101000a900473ffffffffffffffffffffffffffffffffffffffff1681565b6003849080600181540180825580915050906001820390600052602060002001600090919290919091505550336006600086815260200190815260200160002060010160006101000a81548173ffffffffffffffffffffffffffffffffffffffff021916908373ffffffffffffffffffffffffffffffffffffffff160217905550846006600086815260200190815260200160002060000160006101000a81548173ffffffffffffffffffffffffffffffffffffffff021916908373ffffffffffffffffffffffffffffffffffffffff160217905550336006600086815260200190815260200160002060020160006101000a81548173ffffffffffffffffffffffffffffffffffffffff021916908373ffffffffffffffffffffffffffffffffffffffff160217905550600060066000868152602001908152602001600020600301819055506000600660008681526020019081526020016000206004018190555060016006600086815260200190815260200160002060010160146101000a81548160ff021916908315150217905550600060066000868152602001908152602001600020600501819055508060066000868152602001908152602001600020600601819055507f90ec7613241bb1ce526afce1199b1bbddb278e28a1983f97ed01f1d2e0a4e81284848460405180848152602001838152602001828152602001935050505060405180910390a15050505050565b6000809054906101000a900473ffffffffffffffffffffffffffffffffffffffff1673ffffffffffffffffffffffffffffffffffffffff163373ffffffffffffffffffffffffffffffffffffffff161415156110e1576040517f08c379a000000000000000000000000000000000000000000000000000000000815260040180806020018281038252602e8152602001807f4f6e6c7920436174616c6f672063726561746f7220636f756c6420706572666f81526020017f726d207468697320616374696f6e00000000000000000000000000000000000081525060400191505060405180910390fd5b60008090505b60038054905081101561122d5760008090506000600554111561115d576005546006600060038581548110151561111a57fe5b90600052602060002001548152602001908152602001600020600301543073ffffffffffffffffffffffffffffffffffffffff16310281151561115957fe5b0490505b6006600060038481548110151561117057fe5b9060005260206000200154815260200190815260200160002060000160009054906101000a900473ffffffffffffffffffffffffffffffffffffffff1673ffffffffffffffffffffffffffffffffffffffff166108fc829081150290604051600060405180830381858888f193505050501580156111f2573d6000803e3d6000fd5b507f35dddbe5f23861a143d6b86a203158d3665e134051f4903d5971c8f2c041b7de60405160405180910390a15080806001019150506110e7565b506000809054906101000a900473ffffffffffffffffffffffffffffffffffffffff1673ffffffffffffffffffffffffffffffffffffffff16ff5b80600115156006600083815260200190815260200160002060010160149054906101000a900460ff16151514151561132e576040517f08c379a00000000000000000000000000000000000000000000000000000000081526004018080602001828103825260228152602001807f436f6e74656e74206e6f74206c696e6b656420746f2074686520636174616c6f81526020017f672100000000000000000000000000000000000000000000000000000000000081525060400191505060405180910390fd5b813373ffffffffffffffffffffffffffffffffffffffff166006600083815260200190815260200160002060000160009054906101000a900473ffffffffffffffffffffffffffffffffffffffff1673ffffffffffffffffffffffffffffffffffffffff1614151561142e576040517f08c379a00000000000000000000000000000000000000000000000000000000081526004018080602001828103825260288152602001807f416374696f6e20616c6c6f776564206f6e6c7920666f7220636f6e74656e742081526020017f63726561746f722100000000000000000000000000000000000000000000000081525060400191505060405180910390fd5b600080905060008090505b60038054905081101561147c578460038281548110151561145657fe5b9060005260206000200154141561146f5780915061147c565b8080600101915050611439565b5060008190505b6001600380549050038110156114da576003600182018154811015156114a557fe5b90600052602060002001546003828154811015156114bf57fe5b90600052602060002001819055508080600101915050611483565b5060036001600380549050038154811015156114f257fe5b906000526020600020016000905560038054809190600190036115159190613dc8565b506006600085815260200190815260200160002060020160009054906101000a900473ffffffffffffffffffffffffffffffffffffffff1673ffffffffffffffffffffffffffffffffffffffff166343d726d66040518163ffffffff167c0100000000000000000000000000000000000000000000000000000000028152600401600060405180830381600087803b1580156115b057600080fd5b505af11580156115c4573d6000803e3d6000fd5b5050505060066000858152602001908152602001600020600080820160006101000a81549073ffffffffffffffffffffffffffffffffffffffff02191690556001820160006101000a81549073ffffffffffffffffffffffffffffffffffffffff02191690556001820160146101000a81549060ff02191690556002820160006101000a81549073ffffffffffffffffffffffffffffffffffffffff02191690556003820160009055600482016000905560058201600090556006820160009055505050505050565b600080600381111561169b57fe5b8214156116c0576011600084815260200190815260200160002060000154905061173e565b600160038111156116cd57fe5b8214156116f2576011600084815260200190815260200160002060060154905061173e565b600260038111156116ff57fe5b821415611724576011600084815260200190815260200160002060040154905061173e565b601160008481526020019081526020016000206002015490505b92915050565b60025480341415156117e4576040517f08c379a000000000000000000000000000000000000000000000000000000000815260040180806020018281038252602b8152602001807f596f75206469646e2774207061792074686520636f727265637420616d6f756e81526020017f74206f66206d6f6e65792100000000000000000000000000000000000000000081525060400191505060405180910390fd5b6001600760003373ffffffffffffffffffffffffffffffffffffffff1673ffffffffffffffffffffffffffffffffffffffff16815260200190815260200160002060000160006101000a81548160ff02191690831515021790555043600760003373ffffffffffffffffffffffffffffffffffffffff1673ffffffffffffffffffffffffffffffffffffffff1681526020019081526020016000206001018190555050565b60025481565b600060066000838152602001908152602001600020600601548034141515611945576040517f08c379a000000000000000000000000000000000000000000000000000000000815260040180806020018281038252602b8152602001807f596f75206469646e2774207061792074686520636f727265637420616d6f756e81526020017f74206f66206d6f6e65792100000000000000000000000000000000000000000081525060400191505060405180910390fd5b82600115156006600083815260200190815260200160002060010160149054906101000a900460ff161515141515611a0b576040517f08c379a00000000000000000000000000000000000000000000000000000000081526004018080602001828103825260228152602001807f436f6e74656e74206e6f74206c696e6b656420746f2074686520636174616c6f81526020017f672100000000000000000000000000000000000000000000000000000000000081525060400191505060405180910390fd5b6006600085815260200190815260200160002060020160009054906101000a900473ffffffffffffffffffffffffffffffffffffffff1673ffffffffffffffffffffffffffffffffffffffff16630ae5e739336040518263ffffffff167c0100000000000000000000000000000000000000000000000000000000028152600401808273ffffffffffffffffffffffffffffffffffffffff1673ffffffffffffffffffffffffffffffffffffffff168152602001915050600060405180830381600087803b158015611adc57600080fd5b505af1158015611af0573d6000803e3d6000fd5b505050507ff20afd7b032307b01752ee91e3f6a4b83a5b4ab631f9ab279322fd45634382c08433604051808381526020018273ffffffffffffffffffffffffffffffffffffffff1673ffffffffffffffffffffffffffffffffffffffff1681526020019250505060405180910390a16006600085815260200190815260200160002060010160009054906101000a900473ffffffffffffffffffffffffffffffffffffffff1692505050919050565b6002548034141515611c3f576040517f08c379a000000000000000000000000000000000000000000000000000000000815260040180806020018281038252602b8152602001807f596f75206469646e2774207061792074686520636f727265637420616d6f756e81526020017f74206f66206d6f6e65792100000000000000000000000000000000000000000081525060400191505060405180910390fd5b6001600760008473ffffffffffffffffffffffffffffffffffffffff1673ffffffffffffffffffffffffffffffffffffffff16815260200190815260200160002060000160006101000a81548160ff02191690831515021790555043600760008473ffffffffffffffffffffffffffffffffffffffff1673ffffffffffffffffffffffffffffffffffffffff168152602001908152602001600020600101819055505050565b606080600060038054905014151515611d66576040517f08c379a00000000000000000000000000000000000000000000000000000000081526004018080602001828103825260168152602001807f436f6e74656e74206c69737420697320656d707479210000000000000000000081525060200191505060405180910390fd5b6060600380549050604051908082528060200260200182016040528015611d9c5781602001602082028038833980820191505090505b50905060008090505b600380549050811015611e0b5760066000600383815481101515611dc557fe5b90600052602060002001548152602001908152602001600020600301548282815181101515611df057fe5b90602001906020020181815250508080600101915050611da5565b5060038181805480602002602001604051908101604052809291908181526020018280548015611e5a57602002820191906000526020600020905b815481526020019060010190808311611e46575b5050505050915092509250509091565b836006600082815260200190815260200160002060020160009054906101000a900473ffffffffffffffffffffffffffffffffffffffff1673ffffffffffffffffffffffffffffffffffffffff16632731ebd8336040518263ffffffff167c0100000000000000000000000000000000000000000000000000000000028152600401808273ffffffffffffffffffffffffffffffffffffffff1673ffffffffffffffffffffffffffffffffffffffff16815260200191505060206040518083038186803b158015611f3a57600080fd5b505afa158015611f4e573d6000803e3d6000fd5b505050506040513d6020811015611f6457600080fd5b81019080805190602001909291905050501515612035576040517f08c379a00000000000000000000000000000000000000000000000000000000081526004018080602001828103825260428152602001807f596f752063616e206c65617665206120666565646261636b206f6e6c7920696681526020017f20796f7520616c726561647920636f6e73756d65642074686520636f6e74656e81526020017f742100000000000000000000000000000000000000000000000000000000000081525060600191505060405180910390fd5b60006003838587010181151561204757fe5b04905060006006600088815260200190815260200160002060020160009054906101000a900473ffffffffffffffffffffffffffffffffffffffff1673ffffffffffffffffffffffffffffffffffffffff1663a6c3e6b96040518163ffffffff167c010000000000000000000000000000000000000000000000000000000002815260040160206040518083038186803b1580156120e457600080fd5b505afa1580156120f8573d6000803e3d6000fd5b505050506040513d602081101561210e57600080fd5b8101908080519060200190929190505050905060006006600089815260200190815260200160002060020160009054906101000a900473ffffffffffffffffffffffffffffffffffffffff1673ffffffffffffffffffffffffffffffffffffffff166317de3a416040518163ffffffff167c010000000000000000000000000000000000000000000000000000000002815260040160206040518083038186803b1580156121bb57600080fd5b505afa1580156121cf573d6000803e3d6000fd5b505050506040513d60208110156121e557600080fd5b8101908080519060200190929190505050905082600660008a8152602001908152602001600020600501819055508260086001015410156122355782600860010181905550876008600001819055505b8660086003015410156122575786600860030181905550876008600201819055505b8460086005015410156122795784600860050181905550876008600401819055505b85600860070154101561229b5785600860070181905550876008600601819055505b82601160008381526020019081526020016000206001015410156122f0578260116000838152602001908152602001600020600101819055508760116000838152602001908152602001600020600001819055505b8660116000838152602001908152602001600020600301541015612345578660116000838152602001908152602001600020600301819055508760116000838152602001908152602001600020600201819055505b846011600083815260200190815260200160002060050154101561239a578460116000838152602001908152602001600020600501819055508760116000838152602001908152602001600020600401819055505b85601160008381526020019081526020016000206007015410156123ef578560116000838152602001908152602001600020600701819055508760116000838152602001908152602001600020600601819055505b8260106000848152602001908152602001600020600101541015612444578260106000848152602001908152602001600020600101819055508760106000848152602001908152602001600020600001819055505b8660106000848152602001908152602001600020600301541015612499578660106000848152602001908152602001600020600301819055508760106000848152602001908152602001600020600201819055505b84601060008481526020019081526020016000206005015410156124ee578460106000848152602001908152602001600020600501819055508760106000848152602001908152602001600020600401819055505b8560106000848152602001908152602001600020600701541015612543578560106000848152602001908152602001600020600701819055508760106000848152602001908152602001600020600601819055505b5050505050505050565b6000600760008373ffffffffffffffffffffffffffffffffffffffff1673ffffffffffffffffffffffffffffffffffffffff16815260200190815260200160002060000160009054906101000a900460ff1680156125f0575043600154600760008573ffffffffffffffffffffffffffffffffffffffff1673ffffffffffffffffffffffffffffffffffffffff1681526020019081526020016000206001015401115b156125fe5760019050612603565b600090505b919050565b600080600381111561261657fe5b82141561263b57601060008481526020019081526020016000206000015490506126b9565b6001600381111561264857fe5b82141561266d57601060008481526020019081526020016000206006015490506126b9565b6002600381111561267a57fe5b82141561269f57601060008481526020019081526020016000206004015490506126b9565b601060008481526020019081526020016000206002015490505b92915050565b6060601260003373ffffffffffffffffffffffffffffffffffffffff1673ffffffffffffffffffffffffffffffffffffffff16815260200190815260200160002080548060200260200160405190810160405280929190818152602001828054801561274a57602002820191906000526020600020905b815481526020019060010190808311612736575b5050505050905090565b600081600115156006600083815260200190815260200160002060010160149054906101000a900460ff16151514151561281c576040517f08c379a00000000000000000000000000000000000000000000000000000000081526004018080602001828103825260228152602001807f436f6e74656e74206e6f74206c696e6b656420746f2074686520636174616c6f81526020017f672100000000000000000000000000000000000000000000000000000000000081525060400191505060405180910390fd5b6006600084815260200190815260200160002060010160009054906101000a900473ffffffffffffffffffffffffffffffffffffffff16915050919050565b813373ffffffffffffffffffffffffffffffffffffffff166006600083815260200190815260200160002060010160009054906101000a900473ffffffffffffffffffffffffffffffffffffffff1673ffffffffffffffffffffffffffffffffffffffff1614151561295b576040517f08c379a00000000000000000000000000000000000000000000000000000000081526004018080602001828103825260298152602001807f416374696f6e20616c6c6f776564206f6e6c7920666f7220636f6e74656e742081526020017f636f6e747261637421000000000000000000000000000000000000000000000081525060400191505060405180910390fd5b600015156129688361254d565b15151415612b7e57600660008481526020019081526020016000206003016000815480929190600101919050555060066000848152602001908152602001600020600401600081548092919060010191905055506005600081548092919060010191905055506004546006600085815260200190815260200160002060040154101515612b7d576006600084815260200190815260200160002060000160009054906101000a900473ffffffffffffffffffffffffffffffffffffffff1673ffffffffffffffffffffffffffffffffffffffff166108fc600f6006600087815260200190815260200160002060050154811515612a6157fe5b046006600087815260200190815260200160002060060154029081150290604051600060405180830381858888f19350505050158015612aa5573d6000803e3d6000fd5b5060045460066000858152602001908152602001600020600401540360066000858152602001908152602001600020600401819055507f211f0d87754b27366c1ca67707a52ab5a481629d08ca5c93b7a0ad910c915dec836006600086815260200190815260200160002060000160009054906101000a900473ffffffffffffffffffffffffffffffffffffffff16604051808381526020018273ffffffffffffffffffffffffffffffffffffffff1673ffffffffffffffffffffffffffffffffffffffff1681526020019250505060405180910390a15b5b7f247a6e4af28fd4ece9763a07740c7dad00b4e7d8729705cf066f30da7dbefabf8383604051808381526020018273ffffffffffffffffffffffffffffffffffffffff1673ffffffffffffffffffffffffffffffffffffffff1681526020019250505060405180910390a1505050565b60008060038054905014151515612c6d576040517f08c379a00000000000000000000000000000000000000000000000000000000081526004018080602001828103825260168152602001807f436f6e74656e74206c69737420697320656d707479210000000000000000000081525060200191505060405180910390fd5b60008060016003805490500390505b600081101515612db6578360066000600384815481101515612c9a57fe5b9060005260206000200154815260200190815260200160002060020160009054906101000a900473ffffffffffffffffffffffffffffffffffffffff1673ffffffffffffffffffffffffffffffffffffffff166317de3a416040518163ffffffff167c010000000000000000000000000000000000000000000000000000000002815260040160206040518083038186803b158015612d3857600080fd5b505afa158015612d4c573d6000803e3d6000fd5b505050506040513d6020811015612d6257600080fd5b81019080805190602001909291905050501415612d9a57600381815481101515612d8857fe5b90600052602060002001549150612db6565b6000811415612da857612db6565b808060019003915050612c7c565b5080915050919050565b600060106000838152602001908152602001600020600001549050919050565b6000601260003373ffffffffffffffffffffffffffffffffffffffff1673ffffffffffffffffffffffffffffffffffffffff16815260200190815260200160002080549050905090565b60008060038054905014151515612ea9576040517f08c379a00000000000000000000000000000000000000000000000000000000081526004018080602001828103825260168152602001807f436f6e74656e74206c69737420697320656d707479210000000000000000000081525060200191505060405180910390fd5b60008060016003805490500390505b600081101515612ff2578360066000600384815481101515612ed657fe5b9060005260206000200154815260200190815260200160002060020160009054906101000a900473ffffffffffffffffffffffffffffffffffffffff1673ffffffffffffffffffffffffffffffffffffffff1663a6c3e6b96040518163ffffffff167c010000000000000000000000000000000000000000000000000000000002815260040160206040518083038186803b158015612f7457600080fd5b505afa158015612f88573d6000803e3d6000fd5b505050506040513d6020811015612f9e57600080fd5b81019080805190602001909291905050501415612fd657600381815481101515612fc457fe5b90600052602060002001549150612ff2565b6000811415612fe457612ff2565b808060019003915050612eb8565b5080915050919050565b600030905090565b60045481565b606060006003805490501415151561308a576040517f08c379a00000000000000000000000000000000000000000000000000000000081526004018080602001828103825260168152602001807f436f6e74656e74206c69737420697320656d707479210000000000000000000081525060200191505060405180910390fd5b6060826040519080825280602002602001820160405280156130bb5781602001602082028038833980820191505090505b5090506000600160038054905003905060006001850390505b600081101515613139576003828154811015156130ed57fe5b9060005260206000200154838281518110151561310657fe5b9060200190602002018181525050818060019003925050600081141561312b57613139565b8080600190039150506130d4565b508192505050919050565b600080600380549050141515156131c3576040517f08c379a00000000000000000000000000000000000000000000000000000000081526004018080602001828103825260168152602001807f436f6e74656e74206c69737420697320656d707479210000000000000000000081525060200191505060405180910390fd5b6000809050600080600090505b6003805490508110156133665784600660006003848154811015156131f157fe5b9060005260206000200154815260200190815260200160002060020160009054906101000a900473ffffffffffffffffffffffffffffffffffffffff1673ffffffffffffffffffffffffffffffffffffffff1663a6c3e6b96040518163ffffffff167c010000000000000000000000000000000000000000000000000000000002815260040160206040518083038186803b15801561328f57600080fd5b505afa1580156132a3573d6000803e3d6000fd5b505050506040513d60208110156132b957600080fd5b8101908080519060200190929190505050148015613305575082600660006003848154811015156132e657fe5b9060005260206000200154815260200190815260200160002060030154115b15613359576006600060038381548110151561331d57fe5b9060005260206000200154815260200190815260200160002060030154925060038181548110151561334b57fe5b906000526020600020015491505b80806001019150506131d0565b508092505050919050565b6000600760003373ffffffffffffffffffffffffffffffffffffffff1673ffffffffffffffffffffffffffffffffffffffff16815260200190815260200160002060000160009054906101000a900460ff168015613414575043600154600760003373ffffffffffffffffffffffffffffffffffffffff1673ffffffffffffffffffffffffffffffffffffffff1681526020019081526020016000206001015401115b15156134ae576040517f08c379a00000000000000000000000000000000000000000000000000000000081526004018080602001828103825260268152602001807f416363657373207265737472696374656420746f205072656d69756d2061636381526020017f6f756e747321000000000000000000000000000000000000000000000000000081525060400191505060405180910390fd5b81600115156006600083815260200190815260200160002060010160149054906101000a900460ff161515141515613574576040517f08c379a00000000000000000000000000000000000000000000000000000000081526004018080602001828103825260228152602001807f436f6e74656e74206e6f74206c696e6b656420746f2074686520636174616c6f81526020017f672100000000000000000000000000000000000000000000000000000000000081525060400191505060405180910390fd5b6006600084815260200190815260200160002060020160009054906101000a900473ffffffffffffffffffffffffffffffffffffffff1673ffffffffffffffffffffffffffffffffffffffff16630ae5e739336040518263ffffffff167c0100000000000000000000000000000000000000000000000000000000028152600401808273ffffffffffffffffffffffffffffffffffffffff1673ffffffffffffffffffffffffffffffffffffffff168152602001915050600060405180830381600087803b15801561364557600080fd5b505af1158015613659573d6000803e3d6000fd5b505050507ff20afd7b032307b01752ee91e3f6a4b83a5b4ab631f9ab279322fd45634382c08333604051808381526020018273ffffffffffffffffffffffffffffffffffffffff1673ffffffffffffffffffffffffffffffffffffffff1681526020019250505060405180910390a16006600084815260200190815260200160002060010160009054906101000a900473ffffffffffffffffffffffffffffffffffffffff16915050919050565b60006006600083815260200190815260200160002060000160009054906101000a900473ffffffffffffffffffffffffffffffffffffffff169050919050565b600080600381111561375557fe5b8214156137695760086000015490506137b4565b6001600381111561377657fe5b82141561378a5760086006015490506137b4565b6002600381111561379757fe5b8214156137ab5760086004015490506137b4565b60086002015490505b919050565b6000600380549050905090565b60006006600084815260200190815260200160002060060154803414151561387c576040517f08c379a000000000000000000000000000000000000000000000000000000000815260040180806020018281038252602b8152602001807f596f75206469646e2774207061792074686520636f727265637420616d6f756e81526020017f74206f66206d6f6e65792100000000000000000000000000000000000000000081525060400191505060405180910390fd5b83600115156006600083815260200190815260200160002060010160149054906101000a900460ff161515141515613942576040517f08c379a00000000000000000000000000000000000000000000000000000000081526004018080602001828103825260228152602001807f436f6e74656e74206e6f74206c696e6b656420746f2074686520636174616c6f81526020017f672100000000000000000000000000000000000000000000000000000000000081525060400191505060405180910390fd5b6006600086815260200190815260200160002060020160009054906101000a900473ffffffffffffffffffffffffffffffffffffffff1673ffffffffffffffffffffffffffffffffffffffff16630ae5e739856040518263ffffffff167c0100000000000000000000000000000000000000000000000000000000028152600401808273ffffffffffffffffffffffffffffffffffffffff1673ffffffffffffffffffffffffffffffffffffffff168152602001915050600060405180830381600087803b158015613a1357600080fd5b505af1158015613a27573d6000803e3d6000fd5b505050507ff20afd7b032307b01752ee91e3f6a4b83a5b4ab631f9ab279322fd45634382c08585604051808381526020018273ffffffffffffffffffffffffffffffffffffffff1673ffffffffffffffffffffffffffffffffffffffff1681526020019250505060405180910390a16006600086815260200190815260200160002060010160009054906101000a900473ffffffffffffffffffffffffffffffffffffffff169250505092915050565b60008060038054905014151515613b56576040517f08c379a00000000000000000000000000000000000000000000000000000000081526004018080602001828103825260168152602001807f436f6e74656e74206c69737420697320656d707479210000000000000000000081525060200191505060405180910390fd5b6000809050600080600090505b600380549050811015613cf9578460066000600384815481101515613b8457fe5b9060005260206000200154815260200190815260200160002060020160009054906101000a900473ffffffffffffffffffffffffffffffffffffffff1673ffffffffffffffffffffffffffffffffffffffff166317de3a416040518163ffffffff167c010000000000000000000000000000000000000000000000000000000002815260040160206040518083038186803b158015613c2257600080fd5b505afa158015613c36573d6000803e3d6000fd5b505050506040513d6020811015613c4c57600080fd5b8101908080519060200190929190505050148015613c9857508260066000600384815481101515613c7957fe5b9060005260206000200154815260200190815260200160002060030154115b15613cec5760066000600383815481101515613cb057fe5b90600052602060002001548152602001908152602001600020600301549250600381815481101515613cde57fe5b906000526020600020015491505b8080600101915050613b63565b508092505050919050565b601260003373ffffffffffffffffffffffffffffffffffffffff1673ffffffffffffffffffffffffffffffffffffffff16815260200190815260200160002081908060018154018082558091505090600182039060005260206000200160009091929091909150555050565b60606003805480602002602001604051908101604052809291908181526020018280548015613dbe57602002820191906000526020600020905b815481526020019060010190808311613daa575b5050505050905090565b815481835581811115613def57818360005260206000209182019101613dee9190613df4565b5b505050565b613e1691905b80821115613e12576000816000905550600101613dfa565b5090565b9056fea165627a7a723058209e5c481cb2f67afd1ff2f4409d74494e080f5af353c26415f214c4a3204584dc0029",
  "source": "pragma solidity ^0.5.0;\nimport \"./BaseContentManagement.sol\";\n\ncontract Catalog {\n    address payable public creator;\n    uint premiumTime;\n    uint public premiumPrice;\n    bytes32[] contentList;\n    uint public paymentDelay;\n    uint allTheViews;\n\n    constructor() public{\n        creator = msg.sender;\n        /* 1 day = (24 h * 60 min * 60 sec) / 14.93 seconds per block = 53788 blocks */\n        premiumTime = 53788;\n        premiumPrice = 500;\n        paymentDelay = 5;\n        allTheViews = 0;\n        contentList = new bytes32[](0);\n    }\n\n\n    /**********************\n    *** DATA STRUCTURES ***\n    **********************/\n\n\n    struct ContentMetadata{\n        address payable owner;\n        address payable authorAddress;\n        bool isLinked;\n        BaseContentManagement content;\n        uint views;\n        uint viewsSincePayed;\n        uint averageRating;\n        uint requestedPrice;\n    }\n\n    mapping(bytes32 => ContentMetadata) addedContents;\n\n    struct PremiumInfo{\n        bool isPremium;\n        uint blockNum;\n    }\n\n    /* user address => block number of premium subscription*/\n    mapping (address => PremiumInfo) premiumUsers;\n\n    enum Category {none, appreciation, quality, price}\n\n    /*\n    Content feedback includes 3 categories: appreciation of the content, content quality and price fairness.\n    Each category could be rated with a score from 0 to 5.\n    So maximum rating is 5*3=15.\n    */\n    struct MostRated{\n        // Title of the avg most rated content\n        bytes32 average;\n        uint averageValue;\n        // Title of the most rated content w.r.t. the \"price\" category\n        bytes32 price;\n        uint priceValue;\n        // Title of the most rated content w.r.t. the \"quality\" category\n        bytes32 quality;\n        uint qualityValue;\n        // Title of the most rated content w.r.t. the \"appreciation\" category\n        bytes32 appreciation;\n        uint appreciationValue;\n    }\n\n    MostRated mostRated;\n    mapping (bytes32 => MostRated) authorToMostRated;\n    mapping (uint => MostRated) genreToMostRated;\n    mapping (address => bytes32[]) userInterests;\n    \n    \n    /*************\n    *** EVENTS ***\n    *************/\n\n    event AccessGranted(bytes32 _content, address _user);\n    event NewLinkedContent(bytes32 _content, bytes32 _author, uint _genre);\n    event ContentConsumed(bytes32 _content, address _user);\n    event AuthorPaid(bytes32 _content, address _owner);\n    event ClosedCatalog();\n\n\n    /****************\n    *** MODIFIERS ***\n    ****************/\n\n\n    /* modifier to restrict a functionality only to Premium users */\n    modifier restrictToPremium{\n        require(\n            premiumUsers[msg.sender].isPremium &&\n            (premiumUsers[msg.sender].blockNum + premiumTime) > block.number,\n            \"Access restricted to Premium accounts!\"\n        );\n        _;\n    }\n\n    modifier ifLinkedContent(bytes32 _content){\n        require(\n            addedContents[_content].isLinked == true,\n            \"Content not linked to the catalog!\"\n        );\n        _;\n    }\n\n    /* Functionalities restricted to catalog creator only */\n    modifier onlyCreator{\n        require(\n            msg.sender == creator,\n            \"Only Catalog creator could perform this action\"\n        );\n        _;\n    }\n\n    /* Check that the caller is the content contract */\n    modifier onlyContent(bytes32 _content){\n        require(\n            addedContents[_content].authorAddress == msg.sender,\n            \"Action allowed only for content contract!\"  \n        );\n        _;\n    }\n\n    /* Check that the caller is the content contract */\n    modifier onlyContentOwner(bytes32 _content){\n        require(\n            addedContents[_content].owner == msg.sender,\n            \"Action allowed only for content creator!\"  \n        );\n        _;\n    }\n\n    /* Check payment value: transaction refused if value < amount and if value > amount */\n    modifier costs(uint _amount){\n        require(\n            msg.value == _amount,\n            \"You didn't pay the correct amount of money!\"\n        );\n        _;\n    }\n\n    /* Check if the content list is empty */\n    modifier ifNotEmpty{\n        require(\n            contentList.length != 0,\n            \"Content list is empty!\"\n        );\n        _;\n    }\n\n    /* Check if an user already consumed a certain content */\n    modifier onlyIfConsumed(bytes32 _content){\n        require(\n            addedContents[_content].content.hasConsumed(msg.sender),\n            \"You can leave a feedback only if you already consumed the content!\"\n            );\n        _;\n    }\n\n\n    /************************\n    *** UTILITY FUNCTIONS ***\n    ************************/\n\n    \n    function getContentPrice(bytes32 _title) external view ifLinkedContent(_title) returns(uint){\n        return addedContents[_title].requestedPrice;\n    }\n\n    function GetContentAddress(bytes32 _title) external view ifLinkedContent(_title) returns(address){\n        return address(addedContents[_title].authorAddress);\n    }\n\n    function getCatalogAddress() external view returns(address){\n        return address(this);\n    }\n\n    function NumberOfLinkedContents() external view returns(uint){\n        return uint(contentList.length);\n    }\n\n    function GetContentOwner(bytes32 _title) external view returns(address payable){\n        return addedContents[_title].owner;\n    }\n\n\n\n    /******************************\n    *** MANAGE CATALOG CONTENTS ***\n    ******************************/\n\n\n    function LinkToTheCatalog(address payable _owner, bytes32 _title, bytes32 _author, uint _genre, uint _requestedPrice) external {\n        contentList.push(_title);\n        addedContents[_title].authorAddress = msg.sender;\n        addedContents[_title].owner = _owner;\n        addedContents[_title].content = BaseContentManagement(msg.sender);\n        addedContents[_title].views = 0;\n        addedContents[_title].viewsSincePayed = 0;\n        addedContents[_title].isLinked = true;\n        addedContents[_title].averageRating = 0;\n        addedContents[_title].requestedPrice = _requestedPrice;\n\n        emit NewLinkedContent(_title, _author, _genre);\n    }\n\n    function DeleteContent(bytes32 _title) external ifLinkedContent(_title) onlyContentOwner(_title){\n        uint j = 0;\n        for (uint i = 0; i < contentList.length; i++){\n            if(contentList[i]==_title){\n                j = i;\n                break;\n            }  \n        }\n        for (uint i = j; i<contentList.length-1; i++){\n            contentList[i] = contentList[i+1];\n        }\n        //If you don't want to leave a gap in the array, you need to move each element manually\n        delete contentList[contentList.length-1];\n        contentList.length--;\n        addedContents[_title].content.close();\n        delete addedContents[_title];\n    }\n\n    function GetStatistics() external view ifNotEmpty returns (bytes32[] memory, uint[] memory) {\n        uint[] memory views = new uint[](contentList.length);\n        for(uint i = 0; i < contentList.length; i++){\n            views[i] = addedContents[contentList[i]].views;\n        }\n        return (contentList, views);\n    }\n\n    function GetContentList() external view returns (bytes32[] memory) {\n        return contentList;\n    }\n\n    function GetNewContentsList(uint _x) external view ifNotEmpty returns (bytes32[] memory){\n        bytes32[] memory latests = new bytes32[](_x);\n        uint j = contentList.length - 1;\n        for (uint i = _x - 1; i>=0; i--){\n            latests[i] = contentList[j];\n            j--;\n            if(i==0) break;\n        }\n        return latests;\n    }\n\n\n\n    /*****************\n    *** GET LATEST ***\n    *****************/\n    \n\n    function GetLatestByGenre(uint _genre) external view ifNotEmpty returns (bytes32){\n        bytes32 tmp;\n        for (uint i = contentList.length - 1; i>=0; i--){\n            if (addedContents[contentList[i]].content.genre() == _genre){\n                tmp = contentList[i];\n                break;\n            }\n            if(i == 0)\n                break;\n        }\n        return tmp;\n    }\n\n    function GetLatestByAuthor(bytes32 _author) external view ifNotEmpty returns (bytes32){\n        bytes32 tmp;\n        for (uint i = contentList.length - 1; i>=0; i--){\n            if (addedContents[contentList[i]].content.author() == _author){\n                tmp = contentList[i];\n                break;\n            }\n            if(i == 0)\n                break;\n        }\n        return tmp;\n\n    }\n\n\n\n    /*******************\n    *** MOST POPULAR ***\n    *******************/\n\n\n    function GetMostPopularByGenre(uint _genre) external view ifNotEmpty returns (bytes32){\n        uint max = 0;\n        bytes32 tmp;\n        for(uint i = 0; i<contentList.length; i++){\n            if(addedContents[contentList[i]].content.genre() == _genre && \n            addedContents[contentList[i]].views > max){\n                max = addedContents[contentList[i]].views;\n                tmp = contentList[i];\n            }\n        }\n        return tmp;\n    }\n\n    function GetMostPopularByAuthor(bytes32 _author) external view ifNotEmpty returns(bytes32){\n        uint max = 0;\n        bytes32 tmp;\n        for(uint i = 0; i<contentList.length; i++){\n            if(addedContents[contentList[i]].content.author() == _author &&\n            addedContents[contentList[i]].views > max){\n                max = addedContents[contentList[i]].views;\n                tmp = contentList[i];\n            }\n        }\n        return tmp;\n    }\n\n\n    /*****************\n    *** MOST RATED ***\n    *****************/\n\n    /* Returns the title of the most rated content according to a certain category\n    (category is \"none\"  if not specified by the user and returns the average) */\n    function GetMostRated(uint _category) external view returns(bytes32){\n        if(_category == uint(Category.none)) return mostRated.average;\n        else if (_category == uint(Category.appreciation)) return mostRated.appreciation;\n        else if (_category == uint(Category.quality)) return mostRated.quality;  \n        else return mostRated.price;\n    }\n\n    /* Returns the title of the most rated content  with a specific genre according to a certain category\n    (category is \"none\"  if not specified by the user and returns the average) */\n    function GetMostRatedByGenre(uint _genre, uint _category) external view returns(bytes32){\n        if(_category == uint(Category.none)) return genreToMostRated[_genre].average;\n        else if (_category == uint(Category.appreciation)) return genreToMostRated[_genre].appreciation;\n        else if (_category == uint(Category.quality)) return genreToMostRated[_genre].quality;  \n        else return genreToMostRated[_genre].price;\n    }\n\n    function GetMostRatedByAuthor(bytes32 _author) external view returns(bytes32){\n        return authorToMostRated[_author].average;\n    }\n\n    function GetMostRatedByAuthor(bytes32 _author, uint _category) external view returns(bytes32){\n        if(_category == uint(Category.none)) return authorToMostRated[_author].average;\n        else if (_category == uint(Category.appreciation)) return authorToMostRated[_author].appreciation;\n        else if (_category == uint(Category.quality)) return authorToMostRated[_author].quality;  \n        else return authorToMostRated[_author].price;\n    }\n\n\n\n    /*********************************\n    *** Deal with user preferences ***\n    *********************************/\n\n\n    function AddInterest(bytes32 _interest) external {\n        userInterests[msg.sender].push(_interest);\n    }\n\n    function GetInterestsNum() external view returns(uint){\n        return userInterests[msg.sender].length;\n    }\n\n    function GetInterests() external view returns(bytes32[] memory){\n        return userInterests[msg.sender];\n    }\n\n\n\n    function LeaveFeedback(bytes32 _content, uint _price, uint _appreciation, uint _quality) external onlyIfConsumed(_content){\n        uint average = (_price + _appreciation + _quality) / 3;\n        bytes32 author = addedContents[_content].content.author();\n        uint genre = addedContents[_content].content.genre();\n        /* for price base value */\n        addedContents[_content].averageRating = average;\n\n        /* absolute */\n\n        /* no category */\n        if(mostRated.averageValue < average){\n            mostRated.averageValue = average;\n            mostRated.average = _content;    \n        }\n        /* price fairness */\n        if(mostRated.priceValue < _price){\n            mostRated.priceValue = _price;\n            mostRated.price = _content;\n        }\n        /* content quality */\n        if(mostRated.qualityValue < _quality){\n            mostRated.qualityValue = _quality;\n            mostRated.quality = _content;\n        }\n        /* appreciation of the content */\n        if(mostRated.appreciationValue < _appreciation){\n            mostRated.appreciationValue = _appreciation;\n            mostRated.appreciation = _content;\n        }\n\n        /* genre */\n\n        /* no category */\n        if(genreToMostRated[genre].averageValue < average){\n            genreToMostRated[genre].averageValue = average;\n            genreToMostRated[genre].average = _content;    \n        }\n        /* price fairness */\n        if(genreToMostRated[genre].priceValue < _price){\n            genreToMostRated[genre].priceValue = _price;\n            genreToMostRated[genre].price = _content;\n        }\n        /* content quality */\n        if(genreToMostRated[genre].qualityValue < _quality){\n            genreToMostRated[genre].qualityValue = _quality;\n            genreToMostRated[genre].quality = _content;\n        }\n        /* appreciation of the content */\n        if(genreToMostRated[genre].appreciationValue < _appreciation){\n            genreToMostRated[genre].appreciationValue = _appreciation;\n            genreToMostRated[genre].appreciation = _content;\n        }\n\n        /* author */\n\n        /* no category */\n        if(authorToMostRated[author].averageValue < average){\n            authorToMostRated[author].averageValue = average;\n            authorToMostRated[author].average = _content;    \n        }\n        /* price fairness */\n        if(authorToMostRated[author].priceValue < _price){\n            authorToMostRated[author].priceValue = _price;\n            authorToMostRated[author].price = _content;\n        }\n        /* content quality */\n        if(authorToMostRated[author].qualityValue < _quality){\n            authorToMostRated[author].qualityValue = _quality;\n            authorToMostRated[author].quality = _content;\n        }\n        /* appreciation of the content */\n        if(authorToMostRated[author].appreciationValue < _appreciation){\n            authorToMostRated[author].appreciationValue = _appreciation;\n            authorToMostRated[author].appreciation = _content;\n        }\n    }\n\n    function IsPremium(address _user) public view returns (bool){\n        if(premiumUsers[_user].isPremium && \n        (premiumUsers[_user].blockNum + premiumTime > block.number))\n        return true;\n        else return false;\n    }\n\n    function GetContent(bytes32 _content) external payable costs(addedContents[_content].requestedPrice)\n        ifLinkedContent(_content) returns (address){\n        addedContents[_content].content.grantAccess(msg.sender);\n        emit AccessGranted(_content, msg.sender);\n        return addedContents[_content].authorAddress;\n    }\n\n    function GetContentPremium(bytes32 _content) external restrictToPremium  ifLinkedContent(_content) returns (address){\n        addedContents[_content].content.grantAccess(msg.sender);\n        emit AccessGranted(_content, msg.sender);\n        return addedContents[_content].authorAddress;\n    }\n\n    function GiftContent(bytes32 _content, address _user) external payable costs(addedContents[_content].requestedPrice)\n        ifLinkedContent(_content) returns(address){\n        addedContents[_content].content.grantAccess(_user);\n        emit AccessGranted(_content, _user);\n        return addedContents[_content].authorAddress;\n    }\n\n    function GiftPremium(address _user) external payable costs(premiumPrice) {\n        premiumUsers[_user].isPremium = true;\n        premiumUsers[_user].blockNum = block.number;\n    }\n\n    function BuyPremium() external payable costs(premiumPrice){\n        premiumUsers[msg.sender].isPremium = true;\n        premiumUsers[msg.sender].blockNum = block.number;\n    }\n\n    /* Add views to a content and pay the owner if it reaches the views for a payment */\n    function ConsumedContent(bytes32 _content, address _user) external onlyContent(_content){\n        if(IsPremium(_user)==false){\n            addedContents[_content].views++;\n            addedContents[_content].viewsSincePayed++;\n            allTheViews++;\n            if(addedContents[_content].viewsSincePayed >= paymentDelay){\n                addedContents[_content].owner.transfer(addedContents[_content].requestedPrice * (addedContents[_content].averageRating/15));\n                addedContents[_content].viewsSincePayed = addedContents[_content].viewsSincePayed - paymentDelay;\n                emit AuthorPaid(_content, addedContents[_content].owner);\n            }\n        }\n\n        emit ContentConsumed(_content, _user);\n    }\n\n    function CloseCatalog() external onlyCreator{\n        for(uint i = 0; i<contentList.length; i++){\n            uint toTransfer = 0;\n\n            if(allTheViews > 0)\n                toTransfer = address(this).balance * addedContents[contentList[i]].views / allTheViews;\n\n            addedContents[contentList[i]].owner.transfer(toTransfer);\n            emit ClosedCatalog();\n        }\n        selfdestruct(creator);\n    }\n\n}",
  "sourcePath": "/home/chiara/Universit/Magistrale/P2P/CobraDapp/contracts/Catalog.sol",
  "compiler": {
    "name": "solc",
    "version": "0.5.0+commit.1d4f565a.Emscripten.clang"
  },
  "schemaVersion": "3.0.9",
  "updatedAt": "2019-05-22T20:41:34.904Z",
  "devdoc": {
    "methods": {}
  },
  "userdoc": {
    "methods": {
      "AddInterest(bytes32)": {
        "notice": "********************************** Deal with user preferences ***********************************"
      },
      "GetLatestByGenre(uint256)": {
        "notice": "****************** GET LATEST *******************"
      },
      "GetMostPopularByGenre(uint256)": {
        "notice": "******************** MOST POPULAR *********************"
      },
      "GetMostRated(uint256)": {
        "notice": "****************** MOST RATED *******************"
      },
      "LinkToTheCatalog(address,bytes32,bytes32,uint256,uint256)": {
        "notice": "******************************* MANAGE CATALOG CONTENTS ********************************"
      },
      "getContentPrice(bytes32)": {
        "notice": "************************* UTILITY FUNCTIONS **************************"
      },
      "GetLatestByGenre(bytes32)": {
        "notice": "****************** GET LATEST *******************"
      },
      "GetMostPopularByGenre(bytes32)": {
        "notice": "******************** MOST POPULAR *********************"
      },
      "LinkToTheCatalog(address,bytes32,bytes32,bytes32,uint256)": {
        "notice": "******************************* MANAGE CATALOG CONTENTS ********************************"
      }
    }
  }
}