{
  "contractName": "Catalog",
  "abi": [
    {
      "constant": true,
      "inputs": [],
      "name": "creator",
      "outputs": [
        {
          "name": "",
          "type": "address"
        }
      ],
      "payable": false,
      "stateMutability": "view",
      "type": "function"
    },
    {
      "constant": true,
      "inputs": [],
      "name": "paymentDelay",
      "outputs": [
        {
          "name": "",
          "type": "uint256"
        }
      ],
      "payable": false,
      "stateMutability": "view",
      "type": "function"
    },
    {
      "inputs": [],
      "payable": false,
      "stateMutability": "nonpayable",
      "type": "constructor"
    },
    {
      "anonymous": false,
      "inputs": [
        {
          "indexed": false,
          "name": "_content",
          "type": "bytes32"
        },
        {
          "indexed": false,
          "name": "_user",
          "type": "address"
        }
      ],
      "name": "AccessGranted",
      "type": "event"
    },
    {
      "anonymous": false,
      "inputs": [
        {
          "indexed": false,
          "name": "_content",
          "type": "bytes32"
        }
      ],
      "name": "NewLinkedContent",
      "type": "event"
    },
    {
      "anonymous": false,
      "inputs": [
        {
          "indexed": false,
          "name": "_content",
          "type": "bytes32"
        }
      ],
      "name": "PaymentAvailable",
      "type": "event"
    },
    {
      "anonymous": false,
      "inputs": [],
      "name": "ClosedCatalog",
      "type": "event"
    },
    {
      "constant": true,
      "inputs": [],
      "name": "getCatalogAddress",
      "outputs": [
        {
          "name": "",
          "type": "address"
        }
      ],
      "payable": false,
      "stateMutability": "view",
      "type": "function"
    },
    {
      "constant": false,
      "inputs": [
        {
          "name": "_title",
          "type": "bytes32"
        },
        {
          "name": "_requestedPrice",
          "type": "uint256"
        }
      ],
      "name": "LinkToTheCatalog",
      "outputs": [],
      "payable": false,
      "stateMutability": "nonpayable",
      "type": "function"
    },
    {
      "constant": true,
      "inputs": [],
      "name": "GetStatistics",
      "outputs": [
        {
          "name": "",
          "type": "bytes32[]"
        },
        {
          "name": "",
          "type": "uint256[]"
        }
      ],
      "payable": false,
      "stateMutability": "view",
      "type": "function"
    },
    {
      "constant": true,
      "inputs": [],
      "name": "GetContentList",
      "outputs": [
        {
          "name": "",
          "type": "bytes32[]"
        }
      ],
      "payable": false,
      "stateMutability": "view",
      "type": "function"
    },
    {
      "constant": true,
      "inputs": [
        {
          "name": "_x",
          "type": "uint256"
        }
      ],
      "name": "GetNewContentsList",
      "outputs": [
        {
          "name": "",
          "type": "bytes32[]"
        }
      ],
      "payable": false,
      "stateMutability": "view",
      "type": "function"
    },
    {
      "constant": true,
      "inputs": [
        {
          "name": "_genre",
          "type": "bytes32"
        }
      ],
      "name": "GetLatestByGenre",
      "outputs": [
        {
          "name": "",
          "type": "bytes32"
        }
      ],
      "payable": false,
      "stateMutability": "view",
      "type": "function"
    },
    {
      "constant": true,
      "inputs": [
        {
          "name": "_genre",
          "type": "bytes32"
        }
      ],
      "name": "GetMostPopularByGenre",
      "outputs": [
        {
          "name": "",
          "type": "bytes32"
        }
      ],
      "payable": false,
      "stateMutability": "view",
      "type": "function"
    },
    {
      "constant": true,
      "inputs": [
        {
          "name": "_author",
          "type": "bytes32"
        }
      ],
      "name": "GetLatestByAuthor",
      "outputs": [
        {
          "name": "",
          "type": "bytes32"
        }
      ],
      "payable": false,
      "stateMutability": "view",
      "type": "function"
    },
    {
      "constant": true,
      "inputs": [
        {
          "name": "_author",
          "type": "bytes32"
        }
      ],
      "name": "GetMostPopularByAuthor",
      "outputs": [
        {
          "name": "",
          "type": "bytes32"
        }
      ],
      "payable": false,
      "stateMutability": "view",
      "type": "function"
    },
    {
      "constant": true,
      "inputs": [],
      "name": "GetMostRated",
      "outputs": [
        {
          "name": "",
          "type": "bytes32"
        }
      ],
      "payable": false,
      "stateMutability": "view",
      "type": "function"
    },
    {
      "constant": true,
      "inputs": [
        {
          "name": "_category",
          "type": "bytes32"
        }
      ],
      "name": "GetMostRated",
      "outputs": [
        {
          "name": "",
          "type": "bytes32"
        }
      ],
      "payable": false,
      "stateMutability": "view",
      "type": "function"
    },
    {
      "constant": true,
      "inputs": [
        {
          "name": "_genre",
          "type": "bytes32"
        },
        {
          "name": "_category",
          "type": "bytes32"
        }
      ],
      "name": "GetMostRatedByGenre",
      "outputs": [
        {
          "name": "",
          "type": "bytes32"
        }
      ],
      "payable": false,
      "stateMutability": "view",
      "type": "function"
    },
    {
      "constant": true,
      "inputs": [
        {
          "name": "_genre",
          "type": "bytes32"
        }
      ],
      "name": "GetMostRatedByGenre",
      "outputs": [
        {
          "name": "",
          "type": "bytes32"
        }
      ],
      "payable": false,
      "stateMutability": "view",
      "type": "function"
    },
    {
      "constant": true,
      "inputs": [
        {
          "name": "_author",
          "type": "bytes32"
        }
      ],
      "name": "GetMostRatedByAuthor",
      "outputs": [
        {
          "name": "",
          "type": "bytes32"
        }
      ],
      "payable": false,
      "stateMutability": "view",
      "type": "function"
    },
    {
      "constant": true,
      "inputs": [
        {
          "name": "_author",
          "type": "bytes32"
        },
        {
          "name": "_category",
          "type": "bytes32"
        }
      ],
      "name": "GetMostRatedByAuthor",
      "outputs": [
        {
          "name": "",
          "type": "bytes32"
        }
      ],
      "payable": false,
      "stateMutability": "view",
      "type": "function"
    },
    {
      "constant": false,
      "inputs": [
        {
          "name": "_content",
          "type": "bytes32"
        },
        {
          "name": "_price",
          "type": "uint256"
        },
        {
          "name": "_appreciation",
          "type": "uint256"
        },
        {
          "name": "_quality",
          "type": "uint256"
        }
      ],
      "name": "LeaveFeedback",
      "outputs": [],
      "payable": false,
      "stateMutability": "nonpayable",
      "type": "function"
    },
    {
      "constant": true,
      "inputs": [
        {
          "name": "_user",
          "type": "address"
        }
      ],
      "name": "IsPremium",
      "outputs": [
        {
          "name": "",
          "type": "bool"
        }
      ],
      "payable": false,
      "stateMutability": "view",
      "type": "function"
    },
    {
      "constant": false,
      "inputs": [
        {
          "name": "_content",
          "type": "bytes32"
        }
      ],
      "name": "GetContent",
      "outputs": [
        {
          "name": "",
          "type": "address"
        }
      ],
      "payable": true,
      "stateMutability": "payable",
      "type": "function"
    },
    {
      "constant": false,
      "inputs": [
        {
          "name": "_content",
          "type": "bytes32"
        }
      ],
      "name": "GetContentPremium",
      "outputs": [
        {
          "name": "",
          "type": "address"
        }
      ],
      "payable": false,
      "stateMutability": "nonpayable",
      "type": "function"
    },
    {
      "constant": false,
      "inputs": [
        {
          "name": "_content",
          "type": "bytes32"
        },
        {
          "name": "_user",
          "type": "address"
        }
      ],
      "name": "GiftContent",
      "outputs": [
        {
          "name": "",
          "type": "address"
        }
      ],
      "payable": true,
      "stateMutability": "payable",
      "type": "function"
    },
    {
      "constant": false,
      "inputs": [
        {
          "name": "_user",
          "type": "address"
        }
      ],
      "name": "GiftPremium",
      "outputs": [],
      "payable": true,
      "stateMutability": "payable",
      "type": "function"
    },
    {
      "constant": false,
      "inputs": [],
      "name": "BuyPremium",
      "outputs": [],
      "payable": true,
      "stateMutability": "payable",
      "type": "function"
    },
    {
      "constant": false,
      "inputs": [
        {
          "name": "_content",
          "type": "bytes32"
        }
      ],
      "name": "AddViews",
      "outputs": [],
      "payable": false,
      "stateMutability": "nonpayable",
      "type": "function"
    },
    {
      "constant": false,
      "inputs": [
        {
          "name": "_content",
          "type": "bytes32"
        }
      ],
      "name": "CollectPayment",
      "outputs": [],
      "payable": false,
      "stateMutability": "nonpayable",
      "type": "function"
    },
    {
      "constant": false,
      "inputs": [],
      "name": "CloseCatalog",
      "outputs": [],
      "payable": false,
      "stateMutability": "nonpayable",
      "type": "function"
    }
  ],
  "bytecode": "0x608060405234801561001057600080fd5b50336000806101000a81548173ffffffffffffffffffffffffffffffffffffffff021916908373ffffffffffffffffffffffffffffffffffffffff16021790555061d21c6001819055506101f460028190555060056004819055506000600581905550613574806100826000396000f30060806040526004361061015f576000357c0100000000000000000000000000000000000000000000000000000000900463ffffffff16806302d05d3f14610164578063158a3393146101bb57806315be7724146101ec578063229be9601461020357806324b338a2146102365780632eefa37f146102715780633a20d6761461027b57806348c3b729146102df5780634dc1e1681461033a57806351d25fe6146103705780635474a773146104245780635ab66bea146104735780635c62f30e146104ce5780638e2b47cd146105295780639eef4471146105765780639f7c63ab146105c3578063aeed4de314610610578063bdac07631461065d578063c2ab2651146106b4578063c2b1bf8a146106df578063d1628fb01461072c578063d94cf6e0146107ae578063d97c0065146107fb578063e1e8bc3e1461086c578063f15b363a1461089d578063f867cff714610921578063ff70f8591461096e575b600080fd5b34801561017057600080fd5b506101796109da565b604051808273ffffffffffffffffffffffffffffffffffffffff1673ffffffffffffffffffffffffffffffffffffffff16815260200191505060405180910390f35b3480156101c757600080fd5b506101ea60048036038101908080356000191690602001909291905050506109ff565b005b3480156101f857600080fd5b50610201610be2565b005b34801561020f57600080fd5b50610218610e52565b60405180826000191660001916815260200191505060405180910390f35b34801561024257600080fd5b5061026f600480360381019080803560001916906020019092919080359060200190929190505050610e5f565b005b610279611054565b005b61029d600480360381019080803560001916906020019092919050505061113b565b604051808273ffffffffffffffffffffffffffffffffffffffff1673ffffffffffffffffffffffffffffffffffffffff16815260200191505060405180910390f35b3480156102eb57600080fd5b5061031c60048036038101908080356000191690602001909291908035600019169060200190929190505050611473565b60405180826000191660001916815260200191505060405180910390f35b61036e600480360381019080803573ffffffffffffffffffffffffffffffffffffffff169060200190929190505050611541565b005b34801561037c57600080fd5b50610385611629565b604051808060200180602001838103835285818151815260200191508051906020019060200280838360005b838110156103cc5780820151818401526020810190506103b1565b50505050905001838103825284818151815260200191508051906020019060200280838360005b8381101561040e5780820151818401526020810190506103f3565b5050505090500194505050505060405180910390f35b34801561043057600080fd5b5061047160048036038101908080356000191690602001909291908035906020019092919080359060200190929190803590602001909291905050506117ba565b005b34801561047f57600080fd5b506104b4600480360381019080803573ffffffffffffffffffffffffffffffffffffffff169060200190929190505050611fb2565b604051808215151515815260200191505060405180910390f35b3480156104da57600080fd5b5061050b60048036038101908080356000191690602001909291908035600019169060200190929190505050612012565b60405180826000191660001916815260200191505060405180910390f35b34801561053557600080fd5b5061055860048036038101908080356000191690602001909291905050506120e0565b60405180826000191660001916815260200191505060405180910390f35b34801561058257600080fd5b506105a560048036038101908080356000191690602001909291905050506122c4565b60405180826000191660001916815260200191505060405180910390f35b3480156105cf57600080fd5b506105f260048036038101908080356000191690602001909291905050506122ec565b60405180826000191660001916815260200191505060405180910390f35b34801561061c57600080fd5b5061063f600480360381019080803560001916906020019092919050505061236e565b60405180826000191660001916815260200191505060405180910390f35b34801561066957600080fd5b50610672612552565b604051808273ffffffffffffffffffffffffffffffffffffffff1673ffffffffffffffffffffffffffffffffffffffff16815260200191505060405180910390f35b3480156106c057600080fd5b506106c961255a565b6040518082815260200191505060405180910390f35b3480156106eb57600080fd5b5061070e6004803603810190808035600019169060200190929190505050612560565b60405180826000191660001916815260200191505060405180910390f35b34801561073857600080fd5b5061075760048036038101908080359060200190929190505050612588565b6040518080602001828103825283818151815260200191508051906020019060200280838360005b8381101561079a57808201518184015260208101905061077f565b505050509050019250505060405180910390f35b3480156107ba57600080fd5b506107dd60048036038101908080356000191690602001909291905050506126ca565b60405180826000191660001916815260200191505060405180910390f35b34801561080757600080fd5b5061082a600480360381019080803560001916906020019092919050505061291a565b604051808273ffffffffffffffffffffffffffffffffffffffff1673ffffffffffffffffffffffffffffffffffffffff16815260200191505060405180910390f35b34801561087857600080fd5b5061089b6004803603810190808035600019169060200190929190505050612c75565b005b6108df6004803603810190808035600019169060200190929190803573ffffffffffffffffffffffffffffffffffffffff169060200190929190505050612ee5565b604051808273ffffffffffffffffffffffffffffffffffffffff1673ffffffffffffffffffffffffffffffffffffffff16815260200191505060405180910390f35b34801561092d57600080fd5b50610950600480360381019080803560001916906020019092919050505061321e565b60405180826000191660001916815260200191505060405180910390f35b34801561097a57600080fd5b5061098361346e565b6040518080602001828103825283818151815260200191508051906020019060200280838360005b838110156109c65780820151818401526020810190506109ab565b505050509050019250505060405180910390f35b6000809054906101000a900473ffffffffffffffffffffffffffffffffffffffff1681565b803373ffffffffffffffffffffffffffffffffffffffff1660066000836000191660001916815260200190815260200160002060000160009054906101000a900473ffffffffffffffffffffffffffffffffffffffff1673ffffffffffffffffffffffffffffffffffffffff16141515610b07576040517f08c379a00000000000000000000000000000000000000000000000000000000081526004018080602001828103825260298152602001807f416374696f6e20616c6c6f776564206f6e6c7920666f7220636f6e74656e742081526020017f636f6e747261637421000000000000000000000000000000000000000000000081525060400191505060405180910390fd5b600660008360001916600019168152602001908152602001600020600201600081548092919060010191905055506006600083600019166000191681526020019081526020016000206003016000815480929190600101919050555060056000815480929190600101919050555060045460066000846000191660001916815260200190815260200160002060030154101515610bde577fac155b80ac99b053a7aac59e5b6ef8a6b1624bab8eccc8682dcdf624d3408c828260405180826000191660001916815260200191505060405180910390a15b5050565b6000806000809054906101000a900473ffffffffffffffffffffffffffffffffffffffff1673ffffffffffffffffffffffffffffffffffffffff163373ffffffffffffffffffffffffffffffffffffffff16141515610ccf576040517f08c379a000000000000000000000000000000000000000000000000000000000815260040180806020018281038252602e8152602001807f4f6e6c7920436174616c6f672063726561746f7220636f756c6420706572666f81526020017f726d207468697320616374696f6e00000000000000000000000000000000000081525060400191505060405180910390fd5b600091505b600380549050821015610e185760055460066000600385815481101515610cf757fe5b906000526020600020015460001916600019168152602001908152602001600020600201543073ffffffffffffffffffffffffffffffffffffffff163102811515610d3e57fe5b04905060066000600384815481101515610d5457fe5b90600052602060002001546000191660001916815260200190815260200160002060000160009054906101000a900473ffffffffffffffffffffffffffffffffffffffff1673ffffffffffffffffffffffffffffffffffffffff166108fc829081150290604051600060405180830381858888f19350505050158015610dde573d6000803e3d6000fd5b507f35dddbe5f23861a143d6b86a203158d3665e134051f4903d5971c8f2c041b7de60405160405180910390a18180600101925050610cd4565b6000809054906101000a900473ffffffffffffffffffffffffffffffffffffffff1673ffffffffffffffffffffffffffffffffffffffff16ff5b6000600860000154905090565b60038290806001815401808255809150509060018203906000526020600020016000909192909190915090600019169055503360066000846000191660001916815260200190815260200160002060000160006101000a81548173ffffffffffffffffffffffffffffffffffffffff021916908373ffffffffffffffffffffffffffffffffffffffff1602179055503360066000846000191660001916815260200190815260200160002060010160006101000a81548173ffffffffffffffffffffffffffffffffffffffff021916908373ffffffffffffffffffffffffffffffffffffffff160217905550600060066000846000191660001916815260200190815260200160002060020181905550600060066000846000191660001916815260200190815260200160002060030181905550600160066000846000191660001916815260200190815260200160002060000160146101000a81548160ff02191690831515021790555060006006600084600019166000191681526020019081526020016000206004018190555080600660008460001916600019168152602001908152602001600020600501819055507f3e0a228e5d21027cd505a00bf02ca745bf685f1e76457509bf3261b6040083338260405180826000191660001916815260200191505060405180910390a15050565b60025480341415156110f4576040517f08c379a000000000000000000000000000000000000000000000000000000000815260040180806020018281038252602b8152602001807f596f75206469646e2774207061792074686520636f727265637420616d6f756e81526020017f74206f66206d6f6e65792100000000000000000000000000000000000000000081525060400191505060405180910390fd5b43600760003373ffffffffffffffffffffffffffffffffffffffff1673ffffffffffffffffffffffffffffffffffffffff1681526020019081526020016000208190555050565b60006006600083600019166000191681526020019081526020016000206005015480341415156111f9576040517f08c379a000000000000000000000000000000000000000000000000000000000815260040180806020018281038252602b8152602001807f596f75206469646e2774207061792074686520636f727265637420616d6f756e81526020017f74206f66206d6f6e65792100000000000000000000000000000000000000000081525060400191505060405180910390fd5b826001151560066000836000191660001916815260200190815260200160002060000160149054906101000a900460ff1615151415156112c7576040517f08c379a00000000000000000000000000000000000000000000000000000000081526004018080602001828103825260228152602001807f436f6e74656e74206e6f74206c696e6b656420746f2074686520636174616c6f81526020017f672100000000000000000000000000000000000000000000000000000000000081525060400191505060405180910390fd5b60066000856000191660001916815260200190815260200160002060010160009054906101000a900473ffffffffffffffffffffffffffffffffffffffff1673ffffffffffffffffffffffffffffffffffffffff16630ae5e739336040518263ffffffff167c0100000000000000000000000000000000000000000000000000000000028152600401808273ffffffffffffffffffffffffffffffffffffffff1673ffffffffffffffffffffffffffffffffffffffff168152602001915050600060405180830381600087803b1580156113a057600080fd5b505af11580156113b4573d6000803e3d6000fd5b505050507ff20afd7b032307b01752ee91e3f6a4b83a5b4ab631f9ab279322fd45634382c084336040518083600019166000191681526020018273ffffffffffffffffffffffffffffffffffffffff1673ffffffffffffffffffffffffffffffffffffffff1681526020019250505060405180910390a160066000856000191660001916815260200190815260200160002060000160009054906101000a900473ffffffffffffffffffffffffffffffffffffffff1692505050919050565b60007f7072696365000000000000000000000000000000000000000000000000000000826000191614156114c75760106000846000191660001916815260200190815260200160002060020154905061153b565b7f7175616c69747900000000000000000000000000000000000000000000000000826000191614156115195760106000846000191660001916815260200190815260200160002060040154905061153b565b6010600084600019166000191681526020019081526020016000206006015490505b92915050565b60025480341415156115e1576040517f08c379a000000000000000000000000000000000000000000000000000000000815260040180806020018281038252602b8152602001807f596f75206469646e2774207061792074686520636f727265637420616d6f756e81526020017f74206f66206d6f6e65792100000000000000000000000000000000000000000081525060400191505060405180910390fd5b43600760008473ffffffffffffffffffffffffffffffffffffffff1673ffffffffffffffffffffffffffffffffffffffff168152602001908152602001600020819055505050565b6060806060600080600380549050141515156116ad576040517f08c379a00000000000000000000000000000000000000000000000000000000081526004018080602001828103825260168152602001807f436f6e74656e74206c69737420697320656d707479210000000000000000000081525060200191505060405180910390fd5b6003805490506040519080825280602002602001820160405280156116e15781602001602082028038833980820191505090505b509150600090505b600380549050811015611757576006600060038381548110151561170957fe5b90600052602060002001546000191660001916815260200190815260200160002060020154828281518110151561173c57fe5b906020019060200201818152505080806001019150506116e9565b600382818054806020026020016040519081016040528092919081815260200182805480156117a957602002820191906000526020600020905b81546000191681526020019060010190808311611791575b505050505091509350935050509091565b60008060008660066000826000191660001916815260200190815260200160002060010160009054906101000a900473ffffffffffffffffffffffffffffffffffffffff1673ffffffffffffffffffffffffffffffffffffffff16632731ebd8336040518263ffffffff167c0100000000000000000000000000000000000000000000000000000000028152600401808273ffffffffffffffffffffffffffffffffffffffff1673ffffffffffffffffffffffffffffffffffffffff168152602001915050602060405180830381600087803b15801561189957600080fd5b505af11580156118ad573d6000803e3d6000fd5b505050506040513d60208110156118c357600080fd5b81019080805190602001909291905050501515611994576040517f08c379a00000000000000000000000000000000000000000000000000000000081526004018080602001828103825260428152602001807f596f752063616e206c65617665206120666565646261636b206f6e6c7920696681526020017f20796f7520616c726561647920636f6e73756d65642074686520636f6e74656e81526020017f742100000000000000000000000000000000000000000000000000000000000081525060600191505060405180910390fd5b600385878901018115156119a457fe5b04935060066000896000191660001916815260200190815260200160002060010160009054906101000a900473ffffffffffffffffffffffffffffffffffffffff1673ffffffffffffffffffffffffffffffffffffffff1663a6c3e6b96040518163ffffffff167c0100000000000000000000000000000000000000000000000000000000028152600401602060405180830381600087803b158015611a4957600080fd5b505af1158015611a5d573d6000803e3d6000fd5b505050506040513d6020811015611a7357600080fd5b8101908080519060200190929190505050925060066000896000191660001916815260200190815260200160002060010160009054906101000a900473ffffffffffffffffffffffffffffffffffffffff1673ffffffffffffffffffffffffffffffffffffffff166317de3a416040518163ffffffff167c0100000000000000000000000000000000000000000000000000000000028152600401602060405180830381600087803b158015611b2857600080fd5b505af1158015611b3c573d6000803e3d6000fd5b505050506040513d6020811015611b5257600080fd5b8101908080519060200190929190505050915083600660008a6000191660001916815260200190815260200160002060040181905550836008600101541015611bae578360086001018190555087600860000181600019169055505b866008600301541015611bd4578660086003018190555087600860020181600019169055505b846008600501541015611bfa578460086005018190555087600860040181600019169055505b856008600701541015611c20578560086007018190555087600860060181600019169055505b83601160008460001916600019168152602001908152602001600020600101541015611c915783601160008460001916600019168152602001908152602001600020600101819055508760116000846000191660001916815260200190815260200160002060000181600019169055505b86601160008460001916600019168152602001908152602001600020600301541015611d025786601160008460001916600019168152602001908152602001600020600301819055508760116000846000191660001916815260200190815260200160002060020181600019169055505b84601160008460001916600019168152602001908152602001600020600501541015611d735784601160008460001916600019168152602001908152602001600020600501819055508760116000846000191660001916815260200190815260200160002060040181600019169055505b85601160008460001916600019168152602001908152602001600020600701541015611de45785601160008460001916600019168152602001908152602001600020600701819055508760116000846000191660001916815260200190815260200160002060060181600019169055505b83601060008560001916600019168152602001908152602001600020600101541015611e555783601060008560001916600019168152602001908152602001600020600101819055508760106000856000191660001916815260200190815260200160002060000181600019169055505b86601060008560001916600019168152602001908152602001600020600301541015611ec65786601060008560001916600019168152602001908152602001600020600301819055508760106000856000191660001916815260200190815260200160002060020181600019169055505b84601060008560001916600019168152602001908152602001600020600501541015611f375784601060008560001916600019168152602001908152602001600020600501819055508760106000856000191660001916815260200190815260200160002060040181600019169055505b85601060008560001916600019168152602001908152602001600020600701541015611fa85785601060008560001916600019168152602001908152602001600020600701819055508760106000856000191660001916815260200190815260200160002060060181600019169055505b5050505050505050565b600043600154600760008573ffffffffffffffffffffffffffffffffffffffff1673ffffffffffffffffffffffffffffffffffffffff16815260200190815260200160002054011115612008576001905061200d565b600090505b919050565b60007f707269636500000000000000000000000000000000000000000000000000000082600019161415612066576011600084600019166000191681526020019081526020016000206002015490506120da565b7f7175616c69747900000000000000000000000000000000000000000000000000826000191614156120b8576011600084600019166000191681526020019081526020016000206004015490506120da565b6011600084600019166000191681526020019081526020016000206006015490505b92915050565b60008060008060038054905014151515612162576040517f08c379a00000000000000000000000000000000000000000000000000000000081526004018080602001828103825260168152602001807f436f6e74656e74206c69737420697320656d707479210000000000000000000081525060200191505060405180910390fd5b60016003805490500390505b6000811015156122ba5783600019166006600060038481548110151561219057fe5b90600052602060002001546000191660001916815260200190815260200160002060010160009054906101000a900473ffffffffffffffffffffffffffffffffffffffff1673ffffffffffffffffffffffffffffffffffffffff166317de3a416040518163ffffffff167c0100000000000000000000000000000000000000000000000000000000028152600401602060405180830381600087803b15801561223857600080fd5b505af115801561224c573d6000803e3d6000fd5b505050506040513d602081101561226257600080fd5b810190808051906020019092919050505060001916141561229e5760038181548110151561228c57fe5b906000526020600020015491506122ba565b60008114156122ac576122ba565b80806001900391505061216e565b8192505050919050565b6000601060008360001916600019168152602001908152602001600020600001549050919050565b60007f707269636500000000000000000000000000000000000000000000000000000082600019161415612327576008600201549050612369565b7f7175616c6974790000000000000000000000000000000000000000000000000082600019161415612360576008600401549050612369565b60086006015490505b919050565b600080600080600380549050141515156123f0576040517f08c379a00000000000000000000000000000000000000000000000000000000081526004018080602001828103825260168152602001807f436f6e74656e74206c69737420697320656d707479210000000000000000000081525060200191505060405180910390fd5b60016003805490500390505b6000811015156125485783600019166006600060038481548110151561241e57fe5b90600052602060002001546000191660001916815260200190815260200160002060010160009054906101000a900473ffffffffffffffffffffffffffffffffffffffff1673ffffffffffffffffffffffffffffffffffffffff1663a6c3e6b96040518163ffffffff167c0100000000000000000000000000000000000000000000000000000000028152600401602060405180830381600087803b1580156124c657600080fd5b505af11580156124da573d6000803e3d6000fd5b505050506040513d60208110156124f057600080fd5b810190808051906020019092919050505060001916141561252c5760038181548110151561251a57fe5b90600052602060002001549150612548565b600081141561253a57612548565b8080600190039150506123fc565b8192505050919050565b600030905090565b60045481565b6000601160008360001916600019168152602001908152602001600020600001549050919050565b60608060008060006003805490501415151561260c576040517f08c379a00000000000000000000000000000000000000000000000000000000081526004018080602001828103825260168152602001807f436f6e74656e74206c69737420697320656d707479210000000000000000000081525060200191505060405180910390fd5b8460405190808252806020026020018201604052801561263b5781602001602082028038833980820191505090505b50925060016003805490500391506001850390505b6000811015156126bf5760038281548110151561266957fe5b9060005260206000200154838281518110151561268257fe5b90602001906020020190600019169081600019168152505081806001900392505060008114156126b1576126bf565b808060019003915050612650565b829350505050919050565b60008060008060006003805490501415151561274e576040517f08c379a00000000000000000000000000000000000000000000000000000000081526004018080602001828103825260168152602001807f436f6e74656e74206c69737420697320656d707479210000000000000000000081525060200191505060405180910390fd5b60009250600090505b60038054905081101561290f5784600019166006600060038481548110151561277c57fe5b90600052602060002001546000191660001916815260200190815260200160002060010160009054906101000a900473ffffffffffffffffffffffffffffffffffffffff1673ffffffffffffffffffffffffffffffffffffffff1663a6c3e6b96040518163ffffffff167c0100000000000000000000000000000000000000000000000000000000028152600401602060405180830381600087803b15801561282457600080fd5b505af1158015612838573d6000803e3d6000fd5b505050506040513d602081101561284e57600080fd5b8101908080519060200190929190505050600019161480156128a65750826006600060038481548110151561287f57fe5b90600052602060002001546000191660001916815260200190815260200160002060020154115b1561290257600660006003838154811015156128be57fe5b9060005260206000200154600019166000191681526020019081526020016000206002015492506003818154811015156128f457fe5b906000526020600020015491505b8080600101915050612757565b819350505050919050565b600043600154600760003373ffffffffffffffffffffffffffffffffffffffff1673ffffffffffffffffffffffffffffffffffffffff16815260200190815260200160002054011115156129fc576040517f08c379a00000000000000000000000000000000000000000000000000000000081526004018080602001828103825260268152602001807f416363657373207265737472696374656420746f205072656d69756d2061636381526020017f6f756e747321000000000000000000000000000000000000000000000000000081525060400191505060405180910390fd5b816001151560066000836000191660001916815260200190815260200160002060000160149054906101000a900460ff161515141515612aca576040517f08c379a00000000000000000000000000000000000000000000000000000000081526004018080602001828103825260228152602001807f436f6e74656e74206e6f74206c696e6b656420746f2074686520636174616c6f81526020017f672100000000000000000000000000000000000000000000000000000000000081525060400191505060405180910390fd5b60066000846000191660001916815260200190815260200160002060010160009054906101000a900473ffffffffffffffffffffffffffffffffffffffff1673ffffffffffffffffffffffffffffffffffffffff16630ae5e739336040518263ffffffff167c0100000000000000000000000000000000000000000000000000000000028152600401808273ffffffffffffffffffffffffffffffffffffffff1673ffffffffffffffffffffffffffffffffffffffff168152602001915050600060405180830381600087803b158015612ba357600080fd5b505af1158015612bb7573d6000803e3d6000fd5b505050507ff20afd7b032307b01752ee91e3f6a4b83a5b4ab631f9ab279322fd45634382c083336040518083600019166000191681526020018273ffffffffffffffffffffffffffffffffffffffff1673ffffffffffffffffffffffffffffffffffffffff1681526020019250505060405180910390a160066000846000191660001916815260200190815260200160002060000160009054906101000a900473ffffffffffffffffffffffffffffffffffffffff16915050919050565b806004546006600083600019166000191681526020019081526020016000206003015410151515612d0e576040517f08c379a000000000000000000000000000000000000000000000000000000000815260040180806020018281038252601c8152602001807f4e6f20766965777320656e6f75676820746f206265207061796564210000000081525060200191505060405180910390fd5b813373ffffffffffffffffffffffffffffffffffffffff1660066000836000191660001916815260200190815260200160002060000160009054906101000a900473ffffffffffffffffffffffffffffffffffffffff1673ffffffffffffffffffffffffffffffffffffffff16141515612e16576040517f08c379a00000000000000000000000000000000000000000000000000000000081526004018080602001828103825260298152602001807f416374696f6e20616c6c6f776564206f6e6c7920666f7220636f6e74656e742081526020017f636f6e747261637421000000000000000000000000000000000000000000000081525060400191505060405180910390fd5b3373ffffffffffffffffffffffffffffffffffffffff166108fc6006600086600019166000191681526020019081526020016000206005015460066000876000191660001916815260200190815260200160002060040154029081150290604051600060405180830381858888f19350505050158015612e9a573d6000803e3d6000fd5b50600454600660008560001916600019168152602001908152602001600020600301540360066000856000191660001916815260200190815260200160002060030181905550505050565b6000600660008460001916600019168152602001908152602001600020600501548034141515612fa3576040517f08c379a000000000000000000000000000000000000000000000000000000000815260040180806020018281038252602b8152602001807f596f75206469646e2774207061792074686520636f727265637420616d6f756e81526020017f74206f66206d6f6e65792100000000000000000000000000000000000000000081525060400191505060405180910390fd5b836001151560066000836000191660001916815260200190815260200160002060000160149054906101000a900460ff161515141515613071576040517f08c379a00000000000000000000000000000000000000000000000000000000081526004018080602001828103825260228152602001807f436f6e74656e74206e6f74206c696e6b656420746f2074686520636174616c6f81526020017f672100000000000000000000000000000000000000000000000000000000000081525060400191505060405180910390fd5b60066000866000191660001916815260200190815260200160002060010160009054906101000a900473ffffffffffffffffffffffffffffffffffffffff1673ffffffffffffffffffffffffffffffffffffffff16630ae5e739856040518263ffffffff167c0100000000000000000000000000000000000000000000000000000000028152600401808273ffffffffffffffffffffffffffffffffffffffff1673ffffffffffffffffffffffffffffffffffffffff168152602001915050600060405180830381600087803b15801561314a57600080fd5b505af115801561315e573d6000803e3d6000fd5b505050507ff20afd7b032307b01752ee91e3f6a4b83a5b4ab631f9ab279322fd45634382c085856040518083600019166000191681526020018273ffffffffffffffffffffffffffffffffffffffff1673ffffffffffffffffffffffffffffffffffffffff1681526020019250505060405180910390a160066000866000191660001916815260200190815260200160002060000160009054906101000a900473ffffffffffffffffffffffffffffffffffffffff169250505092915050565b6000806000806000600380549050141515156132a2576040517f08c379a00000000000000000000000000000000000000000000000000000000081526004018080602001828103825260168152602001807f436f6e74656e74206c69737420697320656d707479210000000000000000000081525060200191505060405180910390fd5b60009250600090505b600380549050811015613463578460001916600660006003848154811015156132d057fe5b90600052602060002001546000191660001916815260200190815260200160002060010160009054906101000a900473ffffffffffffffffffffffffffffffffffffffff1673ffffffffffffffffffffffffffffffffffffffff166317de3a416040518163ffffffff167c0100000000000000000000000000000000000000000000000000000000028152600401602060405180830381600087803b15801561337857600080fd5b505af115801561338c573d6000803e3d6000fd5b505050506040513d60208110156133a257600080fd5b8101908080519060200190929190505050600019161480156133fa575082600660006003848154811015156133d357fe5b90600052602060002001546000191660001916815260200190815260200160002060020154115b15613456576006600060038381548110151561341257fe5b90600052602060002001546000191660001916815260200190815260200160002060020154925060038181548110151561344857fe5b906000526020600020015491505b80806001019150506132ab565b819350505050919050565b60606000600380549050141515156134ee576040517f08c379a00000000000000000000000000000000000000000000000000000000081526004018080602001828103825260168152602001807f436f6e74656e74206c69737420697320656d707479210000000000000000000081525060200191505060405180910390fd5b600380548060200260200160405190810160405280929190818152602001828054801561353e57602002820191906000526020600020905b81546000191681526020019060010190808311613526575b50505050509050905600a165627a7a7230582011a371ad4203d0256211ea4b37fa191bf0f4adf9bca33793ea5a1cee50353b160029",
  "source": "pragma solidity ^0.4.23;\nimport \"./BaseContentManagement.sol\";\n\ncontract Catalog {\n    address public creator;\n    uint premiumTime;\n    uint premiumPrice;\n    bytes32[] contentList;\n    uint public paymentDelay;\n    uint allTheViews;\n\n    struct ContentMetadata{\n        address authorAddress;\n        bool isLinked;\n        BaseContentManagement content;\n        uint views;\n        uint viewsSincePayed;\n        uint averageRating;\n        uint requestedPrice;\n    }\n\n    mapping(bytes32 => ContentMetadata) addedContents;\n\n    constructor() public{\n        creator = msg.sender;\n        /* 1 day = (24 h * 60 min * 60 sec) / 14.93 seconds per block = 53788 blocks */\n        premiumTime = 53788;\n        premiumPrice = 500;\n        paymentDelay = 5;\n        allTheViews = 0;\n    }\n\n    /* events */\n    event AccessGranted(bytes32 _content, address _user);\n    event NewLinkedContent(bytes32 _content);\n    event PaymentAvailable(bytes32 _content);\n    event ClosedCatalog();\n\n    /* user address => block number of premium subscription*/\n    mapping (address => uint) premiumUsers;\n\n    /*\n    Content feedback includes 3 categories: appreciation of the content, content quality and price fairnes.\n    Each category could be rated with a score from 0 to 5.\n    So maximum rating is 5*3=15.\n    */\n    struct MostRated{\n        bytes32 average;\n        uint averageValue;\n        bytes32 price;\n        uint priceValue;\n        bytes32 quality;\n        uint qualityValue;\n        bytes32 appreciation;\n        uint appreciationValue;\n    }\n\n    MostRated mostRated;\n    mapping (bytes32 => MostRated) authorToMostRated;\n    mapping (bytes32 => MostRated) genreToMostRated;\n\n    /* modifier to restrict a functionality only to Premium users */\n    modifier restrictToPremium{\n        require(\n            premiumUsers[msg.sender] + premiumTime > block.number,\n            \"Access restricted to Premium accounts!\"\n        );\n        _;\n    }\n\n    modifier ifLinkedContent(bytes32 _content){\n        require(\n            addedContents[_content].isLinked == true,\n            \"Content not linked to the catalog!\"\n        );\n        _;\n    }\n\n    /* Functionalities restricted to catalog creator only */\n    modifier onlyCreator{\n        require(\n            msg.sender == creator,\n            \"Only Catalog creator could perform this action\"\n        );\n        _;\n    }\n\n    /* Check that the caller is the content */\n    modifier onlyContent(bytes32 _content){\n        require(\n            addedContents[_content].authorAddress == msg.sender,\n            \"Action allowed only for content contract!\"  \n        );\n        _;\n    }\n\n    /* Check content views */\n    modifier checkViews(bytes32 _content){\n        require(\n            addedContents[_content].viewsSincePayed >= paymentDelay,\n            \"No views enough to be payed!\"\n        );\n        _;\n    }\n\n    /* Check payment value: transaction refused if value < amount and if value > amount */\n    modifier costs(uint _amount){\n        require(\n            msg.value == _amount,\n            \"You didn't pay the correct amount of money!\"\n        );\n        _;\n    }\n\n    /* Check if the content list is empty */\n    modifier ifNotEmpty{\n        require(\n            contentList.length != 0,\n            \"Content list is empty!\"\n        );\n        _;\n    }\n\n    /* Check if an user already consumed a certain content */\n    modifier onlyIfConsumed(bytes32 _content){\n        require(\n            addedContents[_content].content.hasConsumed(msg.sender),\n            \"You can leave a feedback only if you already consumed the content!\"\n            );\n        _;\n    }\n\n    function getCatalogAddress() external view returns(address){\n        return address(this);\n    }\n\n    function LinkToTheCatalog(bytes32 _title, uint _requestedPrice) external {\n        contentList.push(_title);\n        addedContents[_title].authorAddress = msg.sender;\n        addedContents[_title].content = BaseContentManagement(msg.sender);\n        addedContents[_title].views = 0;\n        addedContents[_title].viewsSincePayed = 0;\n        addedContents[_title].isLinked = true;\n        addedContents[_title].averageRating = 0;\n        addedContents[_title].requestedPrice = _requestedPrice;\n        emit NewLinkedContent(_title);\n    }\n\n    function GetStatistics() external view ifNotEmpty returns (bytes32[], uint[]) {\n        uint[] memory views = new uint[](contentList.length);\n        for(uint i = 0; i < contentList.length; i++){\n            views[i] = addedContents[contentList[i]].views;\n        }\n        return (contentList, views);\n    }\n\n    function GetContentList() external view ifNotEmpty returns (bytes32[]) {\n        return contentList;\n    }\n\n    function GetNewContentsList(uint _x) external view ifNotEmpty returns (bytes32[]){\n        bytes32[] memory latests = new bytes32[](_x);\n        uint j = contentList.length - 1;\n        for (uint i = _x - 1; i>=0; i--){\n            latests[i] = contentList[j];\n            j--;\n            if(i==0) break;\n        }\n        return latests;\n    }\n\n    function GetLatestByGenre(bytes32 _genre) external view ifNotEmpty returns (bytes32){\n        bytes32 tmp;\n        for (uint i = contentList.length - 1; i>=0; i--){\n            if (addedContents[contentList[i]].content.genre() == _genre){\n                tmp = contentList[i];\n                break;\n            }\n            if(i == 0)\n                break;\n        }\n        return tmp;\n    }\n\n    function GetMostPopularByGenre(bytes32 _genre) external view ifNotEmpty returns (bytes32){\n        uint max = 0;\n        bytes32 tmp;\n        for(uint i = 0; i<contentList.length; i++){\n            if(addedContents[contentList[i]].content.genre() == _genre && \n            addedContents[contentList[i]].views > max){\n                max = addedContents[contentList[i]].views;\n                tmp = contentList[i];\n            }\n        }\n        return tmp;\n    }\n\n    function GetLatestByAuthor(bytes32 _author) external view ifNotEmpty returns (bytes32){\n        bytes32 tmp;\n        for (uint i = contentList.length - 1; i>=0; i--){\n            if (addedContents[contentList[i]].content.author() == _author){\n                tmp = contentList[i];\n                break;\n            }\n            if(i == 0)\n                break;\n        }\n        return tmp;\n\n    }\n\n    function GetMostPopularByAuthor(bytes32 _author) external view ifNotEmpty returns(bytes32){\n        uint max = 0;\n        bytes32 tmp;\n        for(uint i = 0; i<contentList.length; i++){\n            if(addedContents[contentList[i]].content.author() == _author &&\n            addedContents[contentList[i]].views > max){\n                max = addedContents[contentList[i]].views;\n                tmp = contentList[i];\n            }\n        }\n        return tmp;\n    }\n\n    function GetMostRated() external view returns (bytes32){\n        return mostRated.average;\n    }\n\n    function GetMostRated(bytes32 _category) external view returns(bytes32){\n        if(_category == \"price\") return mostRated.price;\n        else if (_category == \"quality\") return mostRated.quality;\n        else return mostRated.appreciation;\n    }\n\n    function GetMostRatedByGenre(bytes32 _genre) external view returns(bytes32){\n        return genreToMostRated[_genre].average;\n    }\n\n    function GetMostRatedByGenre(bytes32 _genre, bytes32 _category) external view returns(bytes32){\n        if(_category == \"price\") return genreToMostRated[_genre].price;\n        else if (_category == \"quality\") return genreToMostRated[_genre].quality;\n        else return genreToMostRated[_genre].appreciation;\n    }\n\n    function GetMostRatedByAuthor(bytes32 _author) external view returns(bytes32){\n        return authorToMostRated[_author].average;\n    }\n\n    function GetMostRatedByAuthor(bytes32 _author, bytes32 _category) external view returns(bytes32){\n        if(_category == \"price\") return authorToMostRated[_author].price;\n        else if (_category == \"quality\") return authorToMostRated[_author].quality;\n        else return authorToMostRated[_author].appreciation;\n    }\n\n    function LeaveFeedback(bytes32 _content, uint _price, uint _appreciation, uint _quality) external onlyIfConsumed(_content){\n        uint average = (_price + _appreciation + _quality) / 3;\n        bytes32 author = addedContents[_content].content.author();\n        bytes32 genre = addedContents[_content].content.genre();\n        /* for price base value */\n        addedContents[_content].averageRating = average;\n\n        /* absolute */\n\n        /* no category */\n        if(mostRated.averageValue < average){\n            mostRated.averageValue = average;\n            mostRated.average = _content;    \n        }\n        /* price fairness */\n        if(mostRated.priceValue < _price){\n            mostRated.priceValue = _price;\n            mostRated.price = _content;\n        }\n        /* content quality */\n        if(mostRated.qualityValue < _quality){\n            mostRated.qualityValue = _quality;\n            mostRated.quality = _content;\n        }\n        /* appreciation of the content */\n        if(mostRated.appreciationValue < _appreciation){\n            mostRated.appreciationValue = _appreciation;\n            mostRated.appreciation = _content;\n        }\n\n        /* genre */\n\n        /* no category */\n        if(genreToMostRated[genre].averageValue < average){\n            genreToMostRated[genre].averageValue = average;\n            genreToMostRated[genre].average = _content;    \n        }\n        /* price fairness */\n        if(genreToMostRated[genre].priceValue < _price){\n            genreToMostRated[genre].priceValue = _price;\n            genreToMostRated[genre].price = _content;\n        }\n        /* content quality */\n        if(genreToMostRated[genre].qualityValue < _quality){\n            genreToMostRated[genre].qualityValue = _quality;\n            genreToMostRated[genre].quality = _content;\n        }\n        /* appreciation of the content */\n        if(genreToMostRated[genre].appreciationValue < _appreciation){\n            genreToMostRated[genre].appreciationValue = _appreciation;\n            genreToMostRated[genre].appreciation = _content;\n        }\n\n        /* author */\n\n        /* no category */\n        if(authorToMostRated[author].averageValue < average){\n            authorToMostRated[author].averageValue = average;\n            authorToMostRated[author].average = _content;    \n        }\n        /* price fairness */\n        if(authorToMostRated[author].priceValue < _price){\n            authorToMostRated[author].priceValue = _price;\n            authorToMostRated[author].price = _content;\n        }\n        /* content quality */\n        if(authorToMostRated[author].qualityValue < _quality){\n            authorToMostRated[author].qualityValue = _quality;\n            authorToMostRated[author].quality = _content;\n        }\n        /* appreciation of the content */\n        if(authorToMostRated[author].appreciationValue < _appreciation){\n            authorToMostRated[author].appreciationValue = _appreciation;\n            authorToMostRated[author].appreciation = _content;\n        }\n    }\n\n    function IsPremium(address _user) external view returns (bool){\n        if(premiumUsers[_user] + premiumTime > block.number)\n            return true;\n        else return false;\n    }\n\n    function GetContent(bytes32 _content) external payable costs(addedContents[_content].requestedPrice)\n        ifLinkedContent(_content) returns (address){\n        addedContents[_content].content.grantAccess(msg.sender);\n        emit AccessGranted(_content, msg.sender);\n        return addedContents[_content].authorAddress;\n    }\n\n    function GetContentPremium(bytes32 _content) external restrictToPremium  ifLinkedContent(_content) returns (address){\n        addedContents[_content].content.grantAccess(msg.sender);\n        emit AccessGranted(_content, msg.sender);\n        return addedContents[_content].authorAddress;\n    }\n\n    function GiftContent(bytes32 _content, address _user) external payable costs(addedContents[_content].requestedPrice)\n        ifLinkedContent(_content) returns(address){\n        addedContents[_content].content.grantAccess(_user);\n        emit AccessGranted(_content, _user);\n        return addedContents[_content].authorAddress;\n    }\n\n    function GiftPremium(address _user) external payable costs(premiumPrice) {\n        premiumUsers[_user] = block.number;\n    }\n\n    function BuyPremium() external payable costs(premiumPrice){\n        premiumUsers[msg.sender] = block.number;\n    }\n\n    /* Add views to a content and emit an event if it reaches the views for a payment */\n    function AddViews(bytes32 _content) external onlyContent(_content){\n        addedContents[_content].views++;\n        addedContents[_content].viewsSincePayed++;\n        allTheViews++;\n        if(addedContents[_content].viewsSincePayed >= paymentDelay)\n            emit PaymentAvailable(_content);\n    }\n\n    // @notice to be simulated manually for the moment, with the frontend there will be a callback\n    function CollectPayment(bytes32 _content) external checkViews(_content) onlyContent(_content) {\n        msg.sender.transfer(addedContents[_content].averageRating * addedContents[_content].requestedPrice);\n        /* #views to be payed = #views since last time - #views payed this time \n            So no views are are lost between the notification of available payment and collecting the payment */\n        addedContents[_content].viewsSincePayed = addedContents[_content].viewsSincePayed - paymentDelay; \n    }\n\n    function CloseCatalog() external onlyCreator{\n        for(uint i = 0; i<contentList.length; i++){\n            uint toTransfer = address(this).balance * addedContents[contentList[i]].views / allTheViews;\n            addedContents[contentList[i]].authorAddress.transfer(toTransfer);\n            emit ClosedCatalog();\n        }\n        selfdestruct(creator);\n    }\n\n}",
  "sourcePath": "/home/chiara/Universit/Magistrale/P2P/CobraDapp/contracts/Catalog.sol",
  "compiler": {
    "name": "solc",
    "version": "0.4.24+commit.e67f0147.Emscripten.clang"
  },
  "schemaVersion": "2.0.1",
  "updatedAt": "2018-08-22T09:13:55.583Z"
}