{
  "contractName": "Catalog",
  "abi": [
    {
      "constant": true,
      "inputs": [],
      "name": "creator",
      "outputs": [
        {
          "name": "",
          "type": "address"
        }
      ],
      "payable": false,
      "stateMutability": "view",
      "type": "function",
      "signature": "0x02d05d3f"
    },
    {
      "constant": true,
      "inputs": [],
      "name": "premiumPrice",
      "outputs": [
        {
          "name": "",
          "type": "uint256"
        }
      ],
      "payable": false,
      "stateMutability": "view",
      "type": "function",
      "signature": "0x30654e13"
    },
    {
      "constant": true,
      "inputs": [],
      "name": "paymentDelay",
      "outputs": [
        {
          "name": "",
          "type": "uint256"
        }
      ],
      "payable": false,
      "stateMutability": "view",
      "type": "function",
      "signature": "0xc2ab2651"
    },
    {
      "inputs": [],
      "payable": false,
      "stateMutability": "nonpayable",
      "type": "constructor",
      "signature": "constructor"
    },
    {
      "anonymous": false,
      "inputs": [
        {
          "indexed": false,
          "name": "_content",
          "type": "bytes32"
        },
        {
          "indexed": false,
          "name": "_user",
          "type": "address"
        }
      ],
      "name": "AccessGranted",
      "type": "event",
      "signature": "0xf20afd7b032307b01752ee91e3f6a4b83a5b4ab631f9ab279322fd45634382c0"
    },
    {
      "anonymous": false,
      "inputs": [
        {
          "indexed": false,
          "name": "_content",
          "type": "bytes32"
        }
      ],
      "name": "NewLinkedContent",
      "type": "event",
      "signature": "0x3e0a228e5d21027cd505a00bf02ca745bf685f1e76457509bf3261b604008333"
    },
    {
      "anonymous": false,
      "inputs": [
        {
          "indexed": false,
          "name": "_content",
          "type": "bytes32"
        }
      ],
      "name": "PaymentAvailable",
      "type": "event",
      "signature": "0xac155b80ac99b053a7aac59e5b6ef8a6b1624bab8eccc8682dcdf624d3408c82"
    },
    {
      "anonymous": false,
      "inputs": [],
      "name": "ClosedCatalog",
      "type": "event",
      "signature": "0x35dddbe5f23861a143d6b86a203158d3665e134051f4903d5971c8f2c041b7de"
    },
    {
      "constant": true,
      "inputs": [
        {
          "name": "_title",
          "type": "bytes32"
        }
      ],
      "name": "getContentPrice",
      "outputs": [
        {
          "name": "",
          "type": "uint256"
        }
      ],
      "payable": false,
      "stateMutability": "view",
      "type": "function",
      "signature": "0x00429657"
    },
    {
      "constant": true,
      "inputs": [
        {
          "name": "_title",
          "type": "bytes32"
        }
      ],
      "name": "GetContentAddress",
      "outputs": [
        {
          "name": "",
          "type": "address"
        }
      ],
      "payable": false,
      "stateMutability": "view",
      "type": "function",
      "signature": "0x8e500e4f"
    },
    {
      "constant": true,
      "inputs": [],
      "name": "getCatalogAddress",
      "outputs": [
        {
          "name": "",
          "type": "address"
        }
      ],
      "payable": false,
      "stateMutability": "view",
      "type": "function",
      "signature": "0xbdac0763"
    },
    {
      "constant": true,
      "inputs": [],
      "name": "NumberOfLinkedContents",
      "outputs": [
        {
          "name": "",
          "type": "uint256"
        }
      ],
      "payable": false,
      "stateMutability": "view",
      "type": "function",
      "signature": "0xef79616c"
    },
    {
      "constant": false,
      "inputs": [
        {
          "name": "_title",
          "type": "bytes32"
        },
        {
          "name": "_requestedPrice",
          "type": "uint256"
        }
      ],
      "name": "LinkToTheCatalog",
      "outputs": [],
      "payable": false,
      "stateMutability": "nonpayable",
      "type": "function",
      "signature": "0x24b338a2"
    },
    {
      "constant": true,
      "inputs": [],
      "name": "GetStatistics",
      "outputs": [
        {
          "name": "",
          "type": "bytes32[]"
        },
        {
          "name": "",
          "type": "uint256[]"
        }
      ],
      "payable": false,
      "stateMutability": "view",
      "type": "function",
      "signature": "0x51d25fe6"
    },
    {
      "constant": true,
      "inputs": [],
      "name": "GetContentList",
      "outputs": [
        {
          "name": "",
          "type": "bytes32[]"
        }
      ],
      "payable": false,
      "stateMutability": "view",
      "type": "function",
      "signature": "0xff70f859"
    },
    {
      "constant": true,
      "inputs": [
        {
          "name": "_x",
          "type": "uint256"
        }
      ],
      "name": "GetNewContentsList",
      "outputs": [
        {
          "name": "",
          "type": "bytes32[]"
        }
      ],
      "payable": false,
      "stateMutability": "view",
      "type": "function",
      "signature": "0xd1628fb0"
    },
    {
      "constant": true,
      "inputs": [
        {
          "name": "_genre",
          "type": "bytes32"
        }
      ],
      "name": "GetLatestByGenre",
      "outputs": [
        {
          "name": "",
          "type": "bytes32"
        }
      ],
      "payable": false,
      "stateMutability": "view",
      "type": "function",
      "signature": "0x8e2b47cd"
    },
    {
      "constant": true,
      "inputs": [
        {
          "name": "_genre",
          "type": "bytes32"
        }
      ],
      "name": "GetMostPopularByGenre",
      "outputs": [
        {
          "name": "",
          "type": "bytes32"
        }
      ],
      "payable": false,
      "stateMutability": "view",
      "type": "function",
      "signature": "0xf867cff7"
    },
    {
      "constant": true,
      "inputs": [
        {
          "name": "_author",
          "type": "bytes32"
        }
      ],
      "name": "GetLatestByAuthor",
      "outputs": [
        {
          "name": "",
          "type": "bytes32"
        }
      ],
      "payable": false,
      "stateMutability": "view",
      "type": "function",
      "signature": "0xaeed4de3"
    },
    {
      "constant": true,
      "inputs": [
        {
          "name": "_author",
          "type": "bytes32"
        }
      ],
      "name": "GetMostPopularByAuthor",
      "outputs": [
        {
          "name": "",
          "type": "bytes32"
        }
      ],
      "payable": false,
      "stateMutability": "view",
      "type": "function",
      "signature": "0xd94cf6e0"
    },
    {
      "constant": true,
      "inputs": [
        {
          "name": "_category",
          "type": "uint256"
        }
      ],
      "name": "GetMostRated",
      "outputs": [
        {
          "name": "",
          "type": "bytes32"
        }
      ],
      "payable": false,
      "stateMutability": "view",
      "type": "function",
      "signature": "0xe61ecdd9"
    },
    {
      "constant": true,
      "inputs": [
        {
          "name": "_genre",
          "type": "bytes32"
        },
        {
          "name": "_category",
          "type": "uint256"
        }
      ],
      "name": "GetMostRatedByGenre",
      "outputs": [
        {
          "name": "",
          "type": "bytes32"
        }
      ],
      "payable": false,
      "stateMutability": "view",
      "type": "function",
      "signature": "0xdd3e0463"
    },
    {
      "constant": true,
      "inputs": [
        {
          "name": "_author",
          "type": "bytes32"
        },
        {
          "name": "_category",
          "type": "uint256"
        }
      ],
      "name": "GetMostRatedByAuthor",
      "outputs": [
        {
          "name": "",
          "type": "bytes32"
        }
      ],
      "payable": false,
      "stateMutability": "view",
      "type": "function",
      "signature": "0x6cf40725"
    },
    {
      "constant": true,
      "inputs": [
        {
          "name": "_author",
          "type": "bytes32"
        }
      ],
      "name": "GetMostRatedByAuthor",
      "outputs": [
        {
          "name": "",
          "type": "bytes32"
        }
      ],
      "payable": false,
      "stateMutability": "view",
      "type": "function",
      "signature": "0x9eef4471"
    },
    {
      "constant": false,
      "inputs": [
        {
          "name": "_content",
          "type": "bytes32"
        },
        {
          "name": "_price",
          "type": "uint256"
        },
        {
          "name": "_appreciation",
          "type": "uint256"
        },
        {
          "name": "_quality",
          "type": "uint256"
        }
      ],
      "name": "LeaveFeedback",
      "outputs": [],
      "payable": false,
      "stateMutability": "nonpayable",
      "type": "function",
      "signature": "0x5474a773"
    },
    {
      "constant": true,
      "inputs": [
        {
          "name": "_user",
          "type": "address"
        }
      ],
      "name": "IsPremium",
      "outputs": [
        {
          "name": "",
          "type": "bool"
        }
      ],
      "payable": false,
      "stateMutability": "view",
      "type": "function",
      "signature": "0x5ab66bea"
    },
    {
      "constant": false,
      "inputs": [
        {
          "name": "_content",
          "type": "bytes32"
        }
      ],
      "name": "GetContent",
      "outputs": [
        {
          "name": "",
          "type": "address"
        }
      ],
      "payable": true,
      "stateMutability": "payable",
      "type": "function",
      "signature": "0x3a20d676"
    },
    {
      "constant": false,
      "inputs": [
        {
          "name": "_content",
          "type": "bytes32"
        }
      ],
      "name": "GetContentPremium",
      "outputs": [
        {
          "name": "",
          "type": "address"
        }
      ],
      "payable": false,
      "stateMutability": "nonpayable",
      "type": "function",
      "signature": "0xd97c0065"
    },
    {
      "constant": false,
      "inputs": [
        {
          "name": "_content",
          "type": "bytes32"
        },
        {
          "name": "_user",
          "type": "address"
        }
      ],
      "name": "GiftContent",
      "outputs": [
        {
          "name": "",
          "type": "address"
        }
      ],
      "payable": true,
      "stateMutability": "payable",
      "type": "function",
      "signature": "0xf15b363a"
    },
    {
      "constant": false,
      "inputs": [
        {
          "name": "_user",
          "type": "address"
        }
      ],
      "name": "GiftPremium",
      "outputs": [],
      "payable": true,
      "stateMutability": "payable",
      "type": "function",
      "signature": "0x4dc1e168"
    },
    {
      "constant": false,
      "inputs": [],
      "name": "BuyPremium",
      "outputs": [],
      "payable": true,
      "stateMutability": "payable",
      "type": "function",
      "signature": "0x2eefa37f"
    },
    {
      "constant": false,
      "inputs": [
        {
          "name": "_content",
          "type": "bytes32"
        }
      ],
      "name": "AddViews",
      "outputs": [],
      "payable": false,
      "stateMutability": "nonpayable",
      "type": "function",
      "signature": "0x158a3393"
    },
    {
      "constant": false,
      "inputs": [
        {
          "name": "_content",
          "type": "bytes32"
        }
      ],
      "name": "CollectPayment",
      "outputs": [],
      "payable": false,
      "stateMutability": "nonpayable",
      "type": "function",
      "signature": "0xe1e8bc3e"
    },
    {
      "constant": true,
      "inputs": [
        {
          "name": "_content",
          "type": "bytes32"
        }
      ],
      "name": "ContentOwner",
      "outputs": [
        {
          "name": "",
          "type": "address"
        }
      ],
      "payable": false,
      "stateMutability": "view",
      "type": "function",
      "signature": "0x0ce04519"
    },
    {
      "constant": false,
      "inputs": [],
      "name": "CloseCatalog",
      "outputs": [],
      "payable": false,
      "stateMutability": "nonpayable",
      "type": "function",
      "signature": "0x15be7724"
    }
  ],
  "bytecode": "0x60806040523480156200001157600080fd5b50336000806101000a81548173ffffffffffffffffffffffffffffffffffffffff021916908373ffffffffffffffffffffffffffffffffffffffff16021790555061d21c6001819055506101f4600281905550600560048190555060006005819055506000604051908082528060200260200182016040528015620000a55781602001602082028038833980820191505090505b5060039080519060200190620000bd929190620000c4565b506200013e565b82805482825590600052602060002090810192821562000103579160200282015b8281111562000102578251825591602001919060010190620000e5565b5b50905062000112919062000116565b5090565b6200013b91905b80821115620001375760008160009055506001016200011d565b5090565b90565b61383b806200014e6000396000f3fe60806040526004361061017f576000357c0100000000000000000000000000000000000000000000000000000000900463ffffffff1680624296571461018457806302d05d3f146101d35780630ce045191461022a578063158a3393146102a557806315be7724146102e057806324b338a2146102f75780632eefa37f1461033c57806330654e13146103465780633a20d676146103715780634dc1e168146103df57806351d25fe6146104235780635474a773146104d75780635ab66bea146105305780636cf40725146105995780638e2b47cd146105f25780638e500e4f146106415780639eef4471146106bc578063aeed4de31461070b578063bdac07631461075a578063c2ab2651146107b1578063d1628fb0146107dc578063d94cf6e01461086c578063d97c0065146108bb578063dd3e046314610936578063e1e8bc3e1461098f578063e61ecdd9146109ca578063ef79616c14610a19578063f15b363a14610a44578063f867cff714610ad2578063ff70f85914610b21575b600080fd5b34801561019057600080fd5b506101bd600480360360208110156101a757600080fd5b8101908080359060200190929190505050610b8d565b6040518082815260200191505060405180910390f35b3480156101df57600080fd5b506101e8610c74565b604051808273ffffffffffffffffffffffffffffffffffffffff1673ffffffffffffffffffffffffffffffffffffffff16815260200191505060405180910390f35b34801561023657600080fd5b506102636004803603602081101561024d57600080fd5b8101908080359060200190929190505050610c99565b604051808273ffffffffffffffffffffffffffffffffffffffff1673ffffffffffffffffffffffffffffffffffffffff16815260200191505060405180910390f35b3480156102b157600080fd5b506102de600480360360208110156102c857600080fd5b8101908080359060200190929190505050610dda565b005b3480156102ec57600080fd5b506102f5610f95565b005b34801561030357600080fd5b5061033a6004803603604081101561031a57600080fd5b8101908080359060200190929190803590602001909291905050506111f7565b005b6103446113a6565b005b34801561035257600080fd5b5061035b6114eb565b6040518082815260200191505060405180910390f35b61039d6004803603602081101561038757600080fd5b81019080803590602001909291905050506114f1565b604051808273ffffffffffffffffffffffffffffffffffffffff1673ffffffffffffffffffffffffffffffffffffffff16815260200191505060405180910390f35b610421600480360360208110156103f557600080fd5b81019080803573ffffffffffffffffffffffffffffffffffffffff169060200190929190505050611801565b005b34801561042f57600080fd5b50610438611947565b604051808060200180602001838103835285818151815260200191508051906020019060200280838360005b8381101561047f578082015181840152602081019050610464565b50505050905001838103825284818151815260200191508051906020019060200280838360005b838110156104c15780820151818401526020810190506104a6565b5050505090500194505050505060405180910390f35b3480156104e357600080fd5b5061052e600480360360808110156104fa57600080fd5b8101908080359060200190929190803590602001909291908035906020019092919080359060200190929190505050611acc565b005b34801561053c57600080fd5b5061057f6004803603602081101561055357600080fd5b81019080803573ffffffffffffffffffffffffffffffffffffffff1690602001909291905050506121af565b604051808215151515815260200191505060405180910390f35b3480156105a557600080fd5b506105dc600480360360408110156105bc57600080fd5b81019080803590602001909291908035906020019092919050505061226a565b6040518082815260200191505060405180910390f35b3480156105fe57600080fd5b5061062b6004803603602081101561061557600080fd5b8101908080359060200190929190505050612321565b6040518082815260200191505060405180910390f35b34801561064d57600080fd5b5061067a6004803603602081101561066457600080fd5b81019080803590602001909291905050506124f3565b604051808273ffffffffffffffffffffffffffffffffffffffff1673ffffffffffffffffffffffffffffffffffffffff16815260200191505060405180910390f35b3480156106c857600080fd5b506106f5600480360360208110156106df57600080fd5b81019080803590602001909291905050506125fa565b6040518082815260200191505060405180910390f35b34801561071757600080fd5b506107446004803603602081101561072e57600080fd5b810190808035906020019092919050505061261a565b6040518082815260200191505060405180910390f35b34801561076657600080fd5b5061076f6127ec565b604051808273ffffffffffffffffffffffffffffffffffffffff1673ffffffffffffffffffffffffffffffffffffffff16815260200191505060405180910390f35b3480156107bd57600080fd5b506107c66127f4565b6040518082815260200191505060405180910390f35b3480156107e857600080fd5b50610815600480360360208110156107ff57600080fd5b81019080803590602001909291905050506127fa565b6040518080602001828103825283818151815260200191508051906020019060200280838360005b8381101561085857808201518184015260208101905061083d565b505050509050019250505060405180910390f35b34801561087857600080fd5b506108a56004803603602081101561088f57600080fd5b8101908080359060200190929190505050612934565b6040518082815260200191505060405180910390f35b3480156108c757600080fd5b506108f4600480360360208110156108de57600080fd5b8101908080359060200190929190505050612b61565b604051808273ffffffffffffffffffffffffffffffffffffffff1673ffffffffffffffffffffffffffffffffffffffff16815260200191505060405180910390f35b34801561094257600080fd5b506109796004803603604081101561095957600080fd5b810190808035906020019092919080359060200190929190505050612ef7565b6040518082815260200191505060405180910390f35b34801561099b57600080fd5b506109c8600480360360208110156109b257600080fd5b8101908080359060200190929190505050612fae565b005b3480156109d657600080fd5b50610a03600480360360208110156109ed57600080fd5b81019080803590602001909291905050506131fa565b6040518082815260200191505060405180910390f35b348015610a2557600080fd5b50610a2e61326c565b6040518082815260200191505060405180910390f35b610a9060048036036040811015610a5a57600080fd5b8101908080359060200190929190803573ffffffffffffffffffffffffffffffffffffffff169060200190929190505050613279565b604051808273ffffffffffffffffffffffffffffffffffffffff1673ffffffffffffffffffffffffffffffffffffffff16815260200191505060405180910390f35b348015610ade57600080fd5b50610b0b60048036036020811015610af557600080fd5b810190808035906020019092919050505061358a565b6040518082815260200191505060405180910390f35b348015610b2d57600080fd5b50610b366137b7565b6040518080602001828103825283818151815260200191508051906020019060200280838360005b83811015610b79578082015181840152602081019050610b5e565b505050509050019250505060405180910390f35b600081600115156006600083815260200190815260200160002060000160149054906101000a900460ff161515141515610c55576040517f08c379a00000000000000000000000000000000000000000000000000000000081526004018080602001828103825260228152602001807f436f6e74656e74206e6f74206c696e6b656420746f2074686520636174616c6f81526020017f672100000000000000000000000000000000000000000000000000000000000081525060400191505060405180910390fd5b6006600084815260200190815260200160002060050154915050919050565b6000809054906101000a900473ffffffffffffffffffffffffffffffffffffffff1681565b6000813373ffffffffffffffffffffffffffffffffffffffff166006600083815260200190815260200160002060000160009054906101000a900473ffffffffffffffffffffffffffffffffffffffff1673ffffffffffffffffffffffffffffffffffffffff16141515610d9b576040517f08c379a00000000000000000000000000000000000000000000000000000000081526004018080602001828103825260298152602001807f416374696f6e20616c6c6f776564206f6e6c7920666f7220636f6e74656e742081526020017f636f6e747261637421000000000000000000000000000000000000000000000081525060400191505060405180910390fd5b6006600084815260200190815260200160002060000160009054906101000a900473ffffffffffffffffffffffffffffffffffffffff16915050919050565b803373ffffffffffffffffffffffffffffffffffffffff166006600083815260200190815260200160002060000160009054906101000a900473ffffffffffffffffffffffffffffffffffffffff1673ffffffffffffffffffffffffffffffffffffffff16141515610eda576040517f08c379a00000000000000000000000000000000000000000000000000000000081526004018080602001828103825260298152602001807f416374696f6e20616c6c6f776564206f6e6c7920666f7220636f6e74656e742081526020017f636f6e747261637421000000000000000000000000000000000000000000000081525060400191505060405180910390fd5b600660008381526020019081526020016000206002016000815480929190600101919050555060066000838152602001908152602001600020600301600081548092919060010191905055506005600081548092919060010191905055506004546006600084815260200190815260200160002060030154101515610f91577fac155b80ac99b053a7aac59e5b6ef8a6b1624bab8eccc8682dcdf624d3408c82826040518082815260200191505060405180910390a15b5050565b6000809054906101000a900473ffffffffffffffffffffffffffffffffffffffff1673ffffffffffffffffffffffffffffffffffffffff163373ffffffffffffffffffffffffffffffffffffffff1614151561107f576040517f08c379a000000000000000000000000000000000000000000000000000000000815260040180806020018281038252602e8152602001807f4f6e6c7920436174616c6f672063726561746f7220636f756c6420706572666f81526020017f726d207468697320616374696f6e00000000000000000000000000000000000081525060400191505060405180910390fd5b60008090505b6003805490508110156111bc576000600554600660006003858154811015156110aa57fe5b90600052602060002001548152602001908152602001600020600201543073ffffffffffffffffffffffffffffffffffffffff1631028115156110e957fe5b049050600660006003848154811015156110ff57fe5b9060005260206000200154815260200190815260200160002060000160009054906101000a900473ffffffffffffffffffffffffffffffffffffffff1673ffffffffffffffffffffffffffffffffffffffff166108fc829081150290604051600060405180830381858888f19350505050158015611181573d6000803e3d6000fd5b507f35dddbe5f23861a143d6b86a203158d3665e134051f4903d5971c8f2c041b7de60405160405180910390a1508080600101915050611085565b506000809054906101000a900473ffffffffffffffffffffffffffffffffffffffff1673ffffffffffffffffffffffffffffffffffffffff16ff5b6003829080600181540180825580915050906001820390600052602060002001600090919290919091505550336006600084815260200190815260200160002060000160006101000a81548173ffffffffffffffffffffffffffffffffffffffff021916908373ffffffffffffffffffffffffffffffffffffffff160217905550336006600084815260200190815260200160002060010160006101000a81548173ffffffffffffffffffffffffffffffffffffffff021916908373ffffffffffffffffffffffffffffffffffffffff160217905550600060066000848152602001908152602001600020600201819055506000600660008481526020019081526020016000206003018190555060016006600084815260200190815260200160002060000160146101000a81548160ff021916908315150217905550600060066000848152602001908152602001600020600401819055508060066000848152602001908152602001600020600501819055507f3e0a228e5d21027cd505a00bf02ca745bf685f1e76457509bf3261b604008333826040518082815260200191505060405180910390a15050565b6002548034141515611446576040517f08c379a000000000000000000000000000000000000000000000000000000000815260040180806020018281038252602b8152602001807f596f75206469646e2774207061792074686520636f727265637420616d6f756e81526020017f74206f66206d6f6e65792100000000000000000000000000000000000000000081525060400191505060405180910390fd5b6001600760003373ffffffffffffffffffffffffffffffffffffffff1673ffffffffffffffffffffffffffffffffffffffff16815260200190815260200160002060000160006101000a81548160ff02191690831515021790555043600760003373ffffffffffffffffffffffffffffffffffffffff1673ffffffffffffffffffffffffffffffffffffffff1681526020019081526020016000206001018190555050565b60025481565b6000600660008381526020019081526020016000206005015480341415156115a7576040517f08c379a000000000000000000000000000000000000000000000000000000000815260040180806020018281038252602b8152602001807f596f75206469646e2774207061792074686520636f727265637420616d6f756e81526020017f74206f66206d6f6e65792100000000000000000000000000000000000000000081525060400191505060405180910390fd5b82600115156006600083815260200190815260200160002060000160149054906101000a900460ff16151514151561166d576040517f08c379a00000000000000000000000000000000000000000000000000000000081526004018080602001828103825260228152602001807f436f6e74656e74206e6f74206c696e6b656420746f2074686520636174616c6f81526020017f672100000000000000000000000000000000000000000000000000000000000081525060400191505060405180910390fd5b6006600085815260200190815260200160002060010160009054906101000a900473ffffffffffffffffffffffffffffffffffffffff1673ffffffffffffffffffffffffffffffffffffffff16630ae5e739336040518263ffffffff167c0100000000000000000000000000000000000000000000000000000000028152600401808273ffffffffffffffffffffffffffffffffffffffff1673ffffffffffffffffffffffffffffffffffffffff168152602001915050600060405180830381600087803b15801561173e57600080fd5b505af1158015611752573d6000803e3d6000fd5b505050507ff20afd7b032307b01752ee91e3f6a4b83a5b4ab631f9ab279322fd45634382c08433604051808381526020018273ffffffffffffffffffffffffffffffffffffffff1673ffffffffffffffffffffffffffffffffffffffff1681526020019250505060405180910390a16006600085815260200190815260200160002060000160009054906101000a900473ffffffffffffffffffffffffffffffffffffffff1692505050919050565b60025480341415156118a1576040517f08c379a000000000000000000000000000000000000000000000000000000000815260040180806020018281038252602b8152602001807f596f75206469646e2774207061792074686520636f727265637420616d6f756e81526020017f74206f66206d6f6e65792100000000000000000000000000000000000000000081525060400191505060405180910390fd5b6001600760008473ffffffffffffffffffffffffffffffffffffffff1673ffffffffffffffffffffffffffffffffffffffff16815260200190815260200160002060000160006101000a81548160ff02191690831515021790555043600760008473ffffffffffffffffffffffffffffffffffffffff1673ffffffffffffffffffffffffffffffffffffffff168152602001908152602001600020600101819055505050565b6060806000600380549050141515156119c8576040517f08c379a00000000000000000000000000000000000000000000000000000000081526004018080602001828103825260168152602001807f436f6e74656e74206c69737420697320656d707479210000000000000000000081525060200191505060405180910390fd5b60606003805490506040519080825280602002602001820160405280156119fe5781602001602082028038833980820191505090505b50905060008090505b600380549050811015611a6d5760066000600383815481101515611a2757fe5b90600052602060002001548152602001908152602001600020600201548282815181101515611a5257fe5b90602001906020020181815250508080600101915050611a07565b5060038181805480602002602001604051908101604052809291908181526020018280548015611abc57602002820191906000526020600020905b815481526020019060010190808311611aa8575b5050505050915092509250509091565b836006600082815260200190815260200160002060010160009054906101000a900473ffffffffffffffffffffffffffffffffffffffff1673ffffffffffffffffffffffffffffffffffffffff16632731ebd8336040518263ffffffff167c0100000000000000000000000000000000000000000000000000000000028152600401808273ffffffffffffffffffffffffffffffffffffffff1673ffffffffffffffffffffffffffffffffffffffff16815260200191505060206040518083038186803b158015611b9c57600080fd5b505afa158015611bb0573d6000803e3d6000fd5b505050506040513d6020811015611bc657600080fd5b81019080805190602001909291905050501515611c97576040517f08c379a00000000000000000000000000000000000000000000000000000000081526004018080602001828103825260428152602001807f596f752063616e206c65617665206120666565646261636b206f6e6c7920696681526020017f20796f7520616c726561647920636f6e73756d65642074686520636f6e74656e81526020017f742100000000000000000000000000000000000000000000000000000000000081525060600191505060405180910390fd5b600060038385870101811515611ca957fe5b04905060006006600088815260200190815260200160002060010160009054906101000a900473ffffffffffffffffffffffffffffffffffffffff1673ffffffffffffffffffffffffffffffffffffffff1663a6c3e6b96040518163ffffffff167c010000000000000000000000000000000000000000000000000000000002815260040160206040518083038186803b158015611d4657600080fd5b505afa158015611d5a573d6000803e3d6000fd5b505050506040513d6020811015611d7057600080fd5b8101908080519060200190929190505050905060006006600089815260200190815260200160002060010160009054906101000a900473ffffffffffffffffffffffffffffffffffffffff1673ffffffffffffffffffffffffffffffffffffffff166317de3a416040518163ffffffff167c010000000000000000000000000000000000000000000000000000000002815260040160206040518083038186803b158015611e1d57600080fd5b505afa158015611e31573d6000803e3d6000fd5b505050506040513d6020811015611e4757600080fd5b8101908080519060200190929190505050905082600660008a815260200190815260200160002060040181905550826008600101541015611e975782600860010181905550876008600001819055505b866008600301541015611eb95786600860030181905550876008600201819055505b846008600501541015611edb5784600860050181905550876008600401819055505b856008600701541015611efd5785600860070181905550876008600601819055505b8260116000838152602001908152602001600020600101541015611f52578260116000838152602001908152602001600020600101819055508760116000838152602001908152602001600020600001819055505b8660116000838152602001908152602001600020600301541015611fa7578660116000838152602001908152602001600020600301819055508760116000838152602001908152602001600020600201819055505b8460116000838152602001908152602001600020600501541015611ffc578460116000838152602001908152602001600020600501819055508760116000838152602001908152602001600020600401819055505b8560116000838152602001908152602001600020600701541015612051578560116000838152602001908152602001600020600701819055508760116000838152602001908152602001600020600601819055505b82601060008481526020019081526020016000206001015410156120a6578260106000848152602001908152602001600020600101819055508760106000848152602001908152602001600020600001819055505b86601060008481526020019081526020016000206003015410156120fb578660106000848152602001908152602001600020600301819055508760106000848152602001908152602001600020600201819055505b8460106000848152602001908152602001600020600501541015612150578460106000848152602001908152602001600020600501819055508760106000848152602001908152602001600020600401819055505b85601060008481526020019081526020016000206007015410156121a5578560106000848152602001908152602001600020600701819055508760106000848152602001908152602001600020600601819055505b5050505050505050565b6000600760008373ffffffffffffffffffffffffffffffffffffffff1673ffffffffffffffffffffffffffffffffffffffff16815260200190815260200160002060000160009054906101000a900460ff168015612252575043600154600760008573ffffffffffffffffffffffffffffffffffffffff1673ffffffffffffffffffffffffffffffffffffffff1681526020019081526020016000206001015401115b156122605760019050612265565b600090505b919050565b600080600381111561227857fe5b82141561229d576010600084815260200190815260200160002060000154905061231b565b600160038111156122aa57fe5b8214156122cf576010600084815260200190815260200160002060060154905061231b565b600260038111156122dc57fe5b821415612301576010600084815260200190815260200160002060040154905061231b565b601060008481526020019081526020016000206002015490505b92915050565b600080600380549050141515156123a0576040517f08c379a00000000000000000000000000000000000000000000000000000000081526004018080602001828103825260168152602001807f436f6e74656e74206c69737420697320656d707479210000000000000000000081525060200191505060405180910390fd5b60008060016003805490500390505b6000811015156124e95783600660006003848154811015156123cd57fe5b9060005260206000200154815260200190815260200160002060010160009054906101000a900473ffffffffffffffffffffffffffffffffffffffff1673ffffffffffffffffffffffffffffffffffffffff166317de3a416040518163ffffffff167c010000000000000000000000000000000000000000000000000000000002815260040160206040518083038186803b15801561246b57600080fd5b505afa15801561247f573d6000803e3d6000fd5b505050506040513d602081101561249557600080fd5b810190808051906020019092919050505014156124cd576003818154811015156124bb57fe5b906000526020600020015491506124e9565b60008114156124db576124e9565b8080600190039150506123af565b5080915050919050565b600081600115156006600083815260200190815260200160002060000160149054906101000a900460ff1615151415156125bb576040517f08c379a00000000000000000000000000000000000000000000000000000000081526004018080602001828103825260228152602001807f436f6e74656e74206e6f74206c696e6b656420746f2074686520636174616c6f81526020017f672100000000000000000000000000000000000000000000000000000000000081525060400191505060405180910390fd5b6006600084815260200190815260200160002060000160009054906101000a900473ffffffffffffffffffffffffffffffffffffffff16915050919050565b600060106000838152602001908152602001600020600001549050919050565b60008060038054905014151515612699576040517f08c379a00000000000000000000000000000000000000000000000000000000081526004018080602001828103825260168152602001807f436f6e74656e74206c69737420697320656d707479210000000000000000000081525060200191505060405180910390fd5b60008060016003805490500390505b6000811015156127e25783600660006003848154811015156126c657fe5b9060005260206000200154815260200190815260200160002060010160009054906101000a900473ffffffffffffffffffffffffffffffffffffffff1673ffffffffffffffffffffffffffffffffffffffff1663a6c3e6b96040518163ffffffff167c010000000000000000000000000000000000000000000000000000000002815260040160206040518083038186803b15801561276457600080fd5b505afa158015612778573d6000803e3d6000fd5b505050506040513d602081101561278e57600080fd5b810190808051906020019092919050505014156127c6576003818154811015156127b457fe5b906000526020600020015491506127e2565b60008114156127d4576127e2565b8080600190039150506126a8565b5080915050919050565b600030905090565b60045481565b606060006003805490501415151561287a576040517f08c379a00000000000000000000000000000000000000000000000000000000081526004018080602001828103825260168152602001807f436f6e74656e74206c69737420697320656d707479210000000000000000000081525060200191505060405180910390fd5b6060826040519080825280602002602001820160405280156128ab5781602001602082028038833980820191505090505b5090506000600160038054905003905060006001850390505b600081101515612929576003828154811015156128dd57fe5b906000526020600020015483828151811015156128f657fe5b9060200190602002018181525050818060019003925050600081141561291b57612929565b8080600190039150506128c4565b508192505050919050565b600080600380549050141515156129b3576040517f08c379a00000000000000000000000000000000000000000000000000000000081526004018080602001828103825260168152602001807f436f6e74656e74206c69737420697320656d707479210000000000000000000081525060200191505060405180910390fd5b6000809050600080600090505b600380549050811015612b565784600660006003848154811015156129e157fe5b9060005260206000200154815260200190815260200160002060010160009054906101000a900473ffffffffffffffffffffffffffffffffffffffff1673ffffffffffffffffffffffffffffffffffffffff1663a6c3e6b96040518163ffffffff167c010000000000000000000000000000000000000000000000000000000002815260040160206040518083038186803b158015612a7f57600080fd5b505afa158015612a93573d6000803e3d6000fd5b505050506040513d6020811015612aa957600080fd5b8101908080519060200190929190505050148015612af557508260066000600384815481101515612ad657fe5b9060005260206000200154815260200190815260200160002060020154115b15612b495760066000600383815481101515612b0d57fe5b90600052602060002001548152602001908152602001600020600201549250600381815481101515612b3b57fe5b906000526020600020015491505b80806001019150506129c0565b508092505050919050565b6000600760003373ffffffffffffffffffffffffffffffffffffffff1673ffffffffffffffffffffffffffffffffffffffff16815260200190815260200160002060000160009054906101000a900460ff168015612c04575043600154600760003373ffffffffffffffffffffffffffffffffffffffff1673ffffffffffffffffffffffffffffffffffffffff1681526020019081526020016000206001015401115b1515612c9e576040517f08c379a00000000000000000000000000000000000000000000000000000000081526004018080602001828103825260268152602001807f416363657373207265737472696374656420746f205072656d69756d2061636381526020017f6f756e747321000000000000000000000000000000000000000000000000000081525060400191505060405180910390fd5b81600115156006600083815260200190815260200160002060000160149054906101000a900460ff161515141515612d64576040517f08c379a00000000000000000000000000000000000000000000000000000000081526004018080602001828103825260228152602001807f436f6e74656e74206e6f74206c696e6b656420746f2074686520636174616c6f81526020017f672100000000000000000000000000000000000000000000000000000000000081525060400191505060405180910390fd5b6006600084815260200190815260200160002060010160009054906101000a900473ffffffffffffffffffffffffffffffffffffffff1673ffffffffffffffffffffffffffffffffffffffff16630ae5e739336040518263ffffffff167c0100000000000000000000000000000000000000000000000000000000028152600401808273ffffffffffffffffffffffffffffffffffffffff1673ffffffffffffffffffffffffffffffffffffffff168152602001915050600060405180830381600087803b158015612e3557600080fd5b505af1158015612e49573d6000803e3d6000fd5b505050507ff20afd7b032307b01752ee91e3f6a4b83a5b4ab631f9ab279322fd45634382c08333604051808381526020018273ffffffffffffffffffffffffffffffffffffffff1673ffffffffffffffffffffffffffffffffffffffff1681526020019250505060405180910390a16006600084815260200190815260200160002060000160009054906101000a900473ffffffffffffffffffffffffffffffffffffffff16915050919050565b6000806003811115612f0557fe5b821415612f2a5760116000848152602001908152602001600020600001549050612fa8565b60016003811115612f3757fe5b821415612f5c5760116000848152602001908152602001600020600601549050612fa8565b60026003811115612f6957fe5b821415612f8e5760116000848152602001908152602001600020600401549050612fa8565b601160008481526020019081526020016000206002015490505b92915050565b8060045460066000838152602001908152602001600020600301541015151561303f576040517f08c379a000000000000000000000000000000000000000000000000000000000815260040180806020018281038252601c8152602001807f4e6f20766965777320656e6f75676820746f206265207061796564210000000081525060200191505060405180910390fd5b813373ffffffffffffffffffffffffffffffffffffffff166006600083815260200190815260200160002060000160009054906101000a900473ffffffffffffffffffffffffffffffffffffffff1673ffffffffffffffffffffffffffffffffffffffff1614151561313f576040517f08c379a00000000000000000000000000000000000000000000000000000000081526004018080602001828103825260298152602001807f416374696f6e20616c6c6f776564206f6e6c7920666f7220636f6e74656e742081526020017f636f6e747261637421000000000000000000000000000000000000000000000081525060400191505060405180910390fd5b3373ffffffffffffffffffffffffffffffffffffffff166108fc600f600660008781526020019081526020016000206004015481151561317b57fe5b046006600087815260200190815260200160002060050154029081150290604051600060405180830381858888f193505050501580156131bf573d6000803e3d6000fd5b506004546006600085815260200190815260200160002060030154036006600085815260200190815260200160002060030181905550505050565b600080600381111561320857fe5b82141561321c576008600001549050613267565b6001600381111561322957fe5b82141561323d576008600601549050613267565b6002600381111561324a57fe5b82141561325e576008600401549050613267565b60086002015490505b919050565b6000600380549050905090565b60006006600084815260200190815260200160002060050154803414151561332f576040517f08c379a000000000000000000000000000000000000000000000000000000000815260040180806020018281038252602b8152602001807f596f75206469646e2774207061792074686520636f727265637420616d6f756e81526020017f74206f66206d6f6e65792100000000000000000000000000000000000000000081525060400191505060405180910390fd5b83600115156006600083815260200190815260200160002060000160149054906101000a900460ff1615151415156133f5576040517f08c379a00000000000000000000000000000000000000000000000000000000081526004018080602001828103825260228152602001807f436f6e74656e74206e6f74206c696e6b656420746f2074686520636174616c6f81526020017f672100000000000000000000000000000000000000000000000000000000000081525060400191505060405180910390fd5b6006600086815260200190815260200160002060010160009054906101000a900473ffffffffffffffffffffffffffffffffffffffff1673ffffffffffffffffffffffffffffffffffffffff16630ae5e739856040518263ffffffff167c0100000000000000000000000000000000000000000000000000000000028152600401808273ffffffffffffffffffffffffffffffffffffffff1673ffffffffffffffffffffffffffffffffffffffff168152602001915050600060405180830381600087803b1580156134c657600080fd5b505af11580156134da573d6000803e3d6000fd5b505050507ff20afd7b032307b01752ee91e3f6a4b83a5b4ab631f9ab279322fd45634382c08585604051808381526020018273ffffffffffffffffffffffffffffffffffffffff1673ffffffffffffffffffffffffffffffffffffffff1681526020019250505060405180910390a16006600086815260200190815260200160002060000160009054906101000a900473ffffffffffffffffffffffffffffffffffffffff169250505092915050565b60008060038054905014151515613609576040517f08c379a00000000000000000000000000000000000000000000000000000000081526004018080602001828103825260168152602001807f436f6e74656e74206c69737420697320656d707479210000000000000000000081525060200191505060405180910390fd5b6000809050600080600090505b6003805490508110156137ac57846006600060038481548110151561363757fe5b9060005260206000200154815260200190815260200160002060010160009054906101000a900473ffffffffffffffffffffffffffffffffffffffff1673ffffffffffffffffffffffffffffffffffffffff166317de3a416040518163ffffffff167c010000000000000000000000000000000000000000000000000000000002815260040160206040518083038186803b1580156136d557600080fd5b505afa1580156136e9573d6000803e3d6000fd5b505050506040513d60208110156136ff57600080fd5b810190808051906020019092919050505014801561374b5750826006600060038481548110151561372c57fe5b9060005260206000200154815260200190815260200160002060020154115b1561379f576006600060038381548110151561376357fe5b9060005260206000200154815260200190815260200160002060020154925060038181548110151561379157fe5b906000526020600020015491505b8080600101915050613616565b508092505050919050565b6060600380548060200260200160405190810160405280929190818152602001828054801561380557602002820191906000526020600020905b8154815260200190600101908083116137f1575b505050505090509056fea165627a7a72305820866e054966b18e56c7581e5875865ff8da09dd7d3ca508d8d1e83a2b0747025b0029",
  "source": "pragma solidity ^0.5.0;\nimport \"./BaseContentManagement.sol\";\n\ncontract Catalog {\n    address payable public creator;\n    uint premiumTime;\n    uint public premiumPrice;\n    bytes32[] contentList;\n    uint public paymentDelay;\n    uint allTheViews;\n\n    struct ContentMetadata{\n        address payable authorAddress;\n        bool isLinked;\n        BaseContentManagement content;\n        uint views;\n        uint viewsSincePayed;\n        uint averageRating;\n        uint requestedPrice;\n    }\n\n    mapping(bytes32 => ContentMetadata) addedContents;\n\n    constructor() public{\n        creator = msg.sender;\n        /* 1 day = (24 h * 60 min * 60 sec) / 14.93 seconds per block = 53788 blocks */\n        premiumTime = 53788;\n        premiumPrice = 500;\n        paymentDelay = 5;\n        allTheViews = 0;\n        contentList = new bytes32[](0);\n    }\n\n    /* events */\n    event AccessGranted(bytes32 _content, address _user);\n    event NewLinkedContent(bytes32 _content);\n    event PaymentAvailable(bytes32 _content);\n    event ClosedCatalog();\n\n    struct PremiumInfo{\n        bool isPremium;\n        uint blockNum;\n    }\n\n    /* user address => block number of premium subscription*/\n    mapping (address => PremiumInfo) premiumUsers;\n\n    enum Category {none, appreciation, quality, price}\n\n    /*\n    Content feedback includes 3 categories: appreciation of the content, content quality and price fairness.\n    Each category could be rated with a score from 0 to 5.\n    So maximum rating is 5*3=15.\n    */\n    struct MostRated{\n        bytes32 average;\n        uint averageValue;\n        bytes32 price;\n        uint priceValue;\n        bytes32 quality;\n        uint qualityValue;\n        bytes32 appreciation;\n        uint appreciationValue;\n    }\n\n    MostRated mostRated;\n    mapping (bytes32 => MostRated) authorToMostRated;\n    mapping (bytes32 => MostRated) genreToMostRated;\n\n    /* modifier to restrict a functionality only to Premium users */\n    modifier restrictToPremium{\n        require(\n            premiumUsers[msg.sender].isPremium &&\n            (premiumUsers[msg.sender].blockNum + premiumTime) > block.number,\n            \"Access restricted to Premium accounts!\"\n        );\n        _;\n    }\n\n    modifier ifLinkedContent(bytes32 _content){\n        require(\n            addedContents[_content].isLinked == true,\n            \"Content not linked to the catalog!\"\n        );\n        _;\n    }\n\n    /* Functionalities restricted to catalog creator only */\n    modifier onlyCreator{\n        require(\n            msg.sender == creator,\n            \"Only Catalog creator could perform this action\"\n        );\n        _;\n    }\n\n    /* Check that the caller is the content */\n    modifier onlyContent(bytes32 _content){\n        require(\n            addedContents[_content].authorAddress == msg.sender,\n            \"Action allowed only for content contract!\"  \n        );\n        _;\n    }\n\n    /* Check content views */\n    modifier checkViews(bytes32 _content){\n        require(\n            addedContents[_content].viewsSincePayed >= paymentDelay,\n            \"No views enough to be payed!\"\n        );\n        _;\n    }\n\n    /* Check payment value: transaction refused if value < amount and if value > amount */\n    modifier costs(uint _amount){\n        require(\n            msg.value == _amount,\n            \"You didn't pay the correct amount of money!\"\n        );\n        _;\n    }\n\n    /* Check if the content list is empty */\n    modifier ifNotEmpty{\n        require(\n            contentList.length != 0,\n            \"Content list is empty!\"\n        );\n        _;\n    }\n\n    /* Check if an user already consumed a certain content */\n    modifier onlyIfConsumed(bytes32 _content){\n        require(\n            addedContents[_content].content.hasConsumed(msg.sender),\n            \"You can leave a feedback only if you already consumed the content!\"\n            );\n        _;\n    }\n\n    function getContentPrice(bytes32 _title) external view ifLinkedContent(_title) returns(uint){\n        return addedContents[_title].requestedPrice;\n    }\n\n    function GetContentAddress(bytes32 _title) external view ifLinkedContent(_title) returns(address){\n        return address(addedContents[_title].authorAddress);\n    }\n\n    function getCatalogAddress() external view returns(address){\n        return address(this);\n    }\n\n    function NumberOfLinkedContents() external view returns(uint){\n        return uint(contentList.length);\n    }\n\n    function LinkToTheCatalog(bytes32 _title, uint _requestedPrice) external {\n        contentList.push(_title);\n        addedContents[_title].authorAddress = msg.sender;\n        addedContents[_title].content = BaseContentManagement(msg.sender);\n        addedContents[_title].views = 0;\n        addedContents[_title].viewsSincePayed = 0;\n        addedContents[_title].isLinked = true;\n        addedContents[_title].averageRating = 0;\n        addedContents[_title].requestedPrice = _requestedPrice;\n        emit NewLinkedContent(_title);\n    }\n\n    function GetStatistics() external view ifNotEmpty returns (bytes32[] memory, uint[] memory) {\n        uint[] memory views = new uint[](contentList.length);\n        for(uint i = 0; i < contentList.length; i++){\n            views[i] = addedContents[contentList[i]].views;\n        }\n        return (contentList, views);\n    }\n\n    function GetContentList() external view returns (bytes32[] memory) {\n        return contentList;\n    }\n\n    function GetNewContentsList(uint _x) external view ifNotEmpty returns (bytes32[] memory){\n        bytes32[] memory latests = new bytes32[](_x);\n        uint j = contentList.length - 1;\n        for (uint i = _x - 1; i>=0; i--){\n            latests[i] = contentList[j];\n            j--;\n            if(i==0) break;\n        }\n        return latests;\n    }\n\n    function GetLatestByGenre(bytes32 _genre) external view ifNotEmpty returns (bytes32){\n        bytes32 tmp;\n        for (uint i = contentList.length - 1; i>=0; i--){\n            if (addedContents[contentList[i]].content.genre() == _genre){\n                tmp = contentList[i];\n                break;\n            }\n            if(i == 0)\n                break;\n        }\n        return tmp;\n    }\n\n    function GetMostPopularByGenre(bytes32 _genre) external view ifNotEmpty returns (bytes32){\n        uint max = 0;\n        bytes32 tmp;\n        for(uint i = 0; i<contentList.length; i++){\n            if(addedContents[contentList[i]].content.genre() == _genre && \n            addedContents[contentList[i]].views > max){\n                max = addedContents[contentList[i]].views;\n                tmp = contentList[i];\n            }\n        }\n        return tmp;\n    }\n\n    function GetLatestByAuthor(bytes32 _author) external view ifNotEmpty returns (bytes32){\n        bytes32 tmp;\n        for (uint i = contentList.length - 1; i>=0; i--){\n            if (addedContents[contentList[i]].content.author() == _author){\n                tmp = contentList[i];\n                break;\n            }\n            if(i == 0)\n                break;\n        }\n        return tmp;\n\n    }\n\n    function GetMostPopularByAuthor(bytes32 _author) external view ifNotEmpty returns(bytes32){\n        uint max = 0;\n        bytes32 tmp;\n        for(uint i = 0; i<contentList.length; i++){\n            if(addedContents[contentList[i]].content.author() == _author &&\n            addedContents[contentList[i]].views > max){\n                max = addedContents[contentList[i]].views;\n                tmp = contentList[i];\n            }\n        }\n        return tmp;\n    }\n\n    /* Returns the title of the most rated content according to a certain category\n    (category is \"none\"  if not specified by the user and returns the average) */\n    function GetMostRated(uint _category) external view returns(bytes32){\n        if(_category == uint(Category.none)) return mostRated.average;\n        else if (_category == uint(Category.appreciation)) return mostRated.appreciation;\n        else if (_category == uint(Category.quality)) return mostRated.quality;  \n        else return mostRated.price;\n    }\n\n    /* Returns the title of the most rated content  with a specific genre according to a certain category\n    (category is \"none\"  if not specified by the user and returns the average) */\n    function GetMostRatedByGenre(bytes32 _genre, uint _category) external view returns(bytes32){\n        if(_category == uint(Category.none)) return genreToMostRated[_genre].average;\n        else if (_category == uint(Category.appreciation)) return genreToMostRated[_genre].appreciation;\n        else if (_category == uint(Category.quality)) return genreToMostRated[_genre].quality;  \n        else return genreToMostRated[_genre].price;\n    }\n\n    function GetMostRatedByAuthor(bytes32 _author) external view returns(bytes32){\n        return authorToMostRated[_author].average;\n    }\n\n    function GetMostRatedByAuthor(bytes32 _author, uint _category) external view returns(bytes32){\n        if(_category == uint(Category.none)) return authorToMostRated[_author].average;\n        else if (_category == uint(Category.appreciation)) return authorToMostRated[_author].appreciation;\n        else if (_category == uint(Category.quality)) return authorToMostRated[_author].quality;  \n        else return authorToMostRated[_author].price;\n    }\n\n    function LeaveFeedback(bytes32 _content, uint _price, uint _appreciation, uint _quality) external onlyIfConsumed(_content){\n        uint average = (_price + _appreciation + _quality) / 3;\n        bytes32 author = addedContents[_content].content.author();\n        bytes32 genre = addedContents[_content].content.genre();\n        /* for price base value */\n        addedContents[_content].averageRating = average;\n\n        /* absolute */\n\n        /* no category */\n        if(mostRated.averageValue < average){\n            mostRated.averageValue = average;\n            mostRated.average = _content;    \n        }\n        /* price fairness */\n        if(mostRated.priceValue < _price){\n            mostRated.priceValue = _price;\n            mostRated.price = _content;\n        }\n        /* content quality */\n        if(mostRated.qualityValue < _quality){\n            mostRated.qualityValue = _quality;\n            mostRated.quality = _content;\n        }\n        /* appreciation of the content */\n        if(mostRated.appreciationValue < _appreciation){\n            mostRated.appreciationValue = _appreciation;\n            mostRated.appreciation = _content;\n        }\n\n        /* genre */\n\n        /* no category */\n        if(genreToMostRated[genre].averageValue < average){\n            genreToMostRated[genre].averageValue = average;\n            genreToMostRated[genre].average = _content;    \n        }\n        /* price fairness */\n        if(genreToMostRated[genre].priceValue < _price){\n            genreToMostRated[genre].priceValue = _price;\n            genreToMostRated[genre].price = _content;\n        }\n        /* content quality */\n        if(genreToMostRated[genre].qualityValue < _quality){\n            genreToMostRated[genre].qualityValue = _quality;\n            genreToMostRated[genre].quality = _content;\n        }\n        /* appreciation of the content */\n        if(genreToMostRated[genre].appreciationValue < _appreciation){\n            genreToMostRated[genre].appreciationValue = _appreciation;\n            genreToMostRated[genre].appreciation = _content;\n        }\n\n        /* author */\n\n        /* no category */\n        if(authorToMostRated[author].averageValue < average){\n            authorToMostRated[author].averageValue = average;\n            authorToMostRated[author].average = _content;    \n        }\n        /* price fairness */\n        if(authorToMostRated[author].priceValue < _price){\n            authorToMostRated[author].priceValue = _price;\n            authorToMostRated[author].price = _content;\n        }\n        /* content quality */\n        if(authorToMostRated[author].qualityValue < _quality){\n            authorToMostRated[author].qualityValue = _quality;\n            authorToMostRated[author].quality = _content;\n        }\n        /* appreciation of the content */\n        if(authorToMostRated[author].appreciationValue < _appreciation){\n            authorToMostRated[author].appreciationValue = _appreciation;\n            authorToMostRated[author].appreciation = _content;\n        }\n    }\n\n    function IsPremium(address _user) external view returns (bool){\n        if(premiumUsers[_user].isPremium && \n        (premiumUsers[_user].blockNum + premiumTime > block.number))\n        return true;\n        else return false;\n    }\n\n    function GetContent(bytes32 _content) external payable costs(addedContents[_content].requestedPrice)\n        ifLinkedContent(_content) returns (address){\n        addedContents[_content].content.grantAccess(msg.sender);\n        emit AccessGranted(_content, msg.sender);\n        return addedContents[_content].authorAddress;\n    }\n\n    function GetContentPremium(bytes32 _content) external restrictToPremium  ifLinkedContent(_content) returns (address){\n        addedContents[_content].content.grantAccess(msg.sender);\n        emit AccessGranted(_content, msg.sender);\n        return addedContents[_content].authorAddress;\n    }\n\n    function GiftContent(bytes32 _content, address _user) external payable costs(addedContents[_content].requestedPrice)\n        ifLinkedContent(_content) returns(address){\n        addedContents[_content].content.grantAccess(_user);\n        emit AccessGranted(_content, _user);\n        return addedContents[_content].authorAddress;\n    }\n\n    function GiftPremium(address _user) external payable costs(premiumPrice) {\n        premiumUsers[_user].isPremium = true;\n        premiumUsers[_user].blockNum = block.number;\n    }\n\n    function BuyPremium() external payable costs(premiumPrice){\n        premiumUsers[msg.sender].isPremium = true;\n        premiumUsers[msg.sender].blockNum = block.number;\n    }\n\n    /* Add views to a content and emit an event if it reaches the views for a payment */\n    function AddViews(bytes32 _content) external onlyContent(_content){\n        addedContents[_content].views++;\n        addedContents[_content].viewsSincePayed++;\n        allTheViews++;\n        if(addedContents[_content].viewsSincePayed >= paymentDelay)\n            emit PaymentAvailable(_content);\n    }\n\n    // @notice to be simulated manually for the moment, with the frontend there will be a callback\n    function CollectPayment(bytes32 _content) external checkViews(_content) onlyContent(_content) {\n        /* base value = price*(avg rating / max rating) */\n        msg.sender.transfer(addedContents[_content].requestedPrice * (addedContents[_content].averageRating/15));\n        /* #views to be payed = #views since last time - #views payed this time \n            So no views are are lost between the notification of available payment and collecting the payment */\n        addedContents[_content].viewsSincePayed = addedContents[_content].viewsSincePayed - paymentDelay; \n    }\n\n    function ContentOwner(bytes32 _content) external view onlyContent(_content) returns(address payable) {\n        return addedContents[_content].authorAddress;\n    }\n\n    function CloseCatalog() external onlyCreator{\n        for(uint i = 0; i<contentList.length; i++){\n            uint toTransfer = address(this).balance * addedContents[contentList[i]].views / allTheViews;\n            addedContents[contentList[i]].authorAddress.transfer(toTransfer);\n            emit ClosedCatalog();\n        }\n        selfdestruct(creator);\n    }\n\n}",
  "sourcePath": "/home/chiara/Universit/Magistrale/P2P/CobraDapp/contracts/Catalog.sol",
  "compiler": {
    "name": "solc",
    "version": "0.5.0+commit.1d4f565a.Emscripten.clang"
  },
  "schemaVersion": "3.0.3",
  "updatedAt": "2019-04-15T08:54:54.867Z",
  "devdoc": {
    "methods": {}
  },
  "userdoc": {
    "methods": {}
  }
}