{
  "contractName": "Catalog",
  "abi": [
    {
      "constant": true,
      "inputs": [],
      "name": "creator",
      "outputs": [
        {
          "name": "",
          "type": "address"
        }
      ],
      "payable": false,
      "stateMutability": "view",
      "type": "function",
      "signature": "0x02d05d3f"
    },
    {
      "constant": true,
      "inputs": [],
      "name": "premiumPrice",
      "outputs": [
        {
          "name": "",
          "type": "uint256"
        }
      ],
      "payable": false,
      "stateMutability": "view",
      "type": "function",
      "signature": "0x30654e13"
    },
    {
      "constant": true,
      "inputs": [],
      "name": "paymentDelay",
      "outputs": [
        {
          "name": "",
          "type": "uint256"
        }
      ],
      "payable": false,
      "stateMutability": "view",
      "type": "function",
      "signature": "0xc2ab2651"
    },
    {
      "inputs": [],
      "payable": false,
      "stateMutability": "nonpayable",
      "type": "constructor",
      "signature": "constructor"
    },
    {
      "anonymous": false,
      "inputs": [
        {
          "indexed": false,
          "name": "_content",
          "type": "bytes32"
        },
        {
          "indexed": false,
          "name": "_user",
          "type": "address"
        }
      ],
      "name": "AccessGranted",
      "type": "event",
      "signature": "0xf20afd7b032307b01752ee91e3f6a4b83a5b4ab631f9ab279322fd45634382c0"
    },
    {
      "anonymous": false,
      "inputs": [
        {
          "indexed": false,
          "name": "_content",
          "type": "bytes32"
        }
      ],
      "name": "NewLinkedContent",
      "type": "event",
      "signature": "0x3e0a228e5d21027cd505a00bf02ca745bf685f1e76457509bf3261b604008333"
    },
    {
      "anonymous": false,
      "inputs": [
        {
          "indexed": false,
          "name": "_content",
          "type": "bytes32"
        }
      ],
      "name": "PaymentAvailable",
      "type": "event",
      "signature": "0xac155b80ac99b053a7aac59e5b6ef8a6b1624bab8eccc8682dcdf624d3408c82"
    },
    {
      "anonymous": false,
      "inputs": [],
      "name": "ClosedCatalog",
      "type": "event",
      "signature": "0x35dddbe5f23861a143d6b86a203158d3665e134051f4903d5971c8f2c041b7de"
    },
    {
      "constant": true,
      "inputs": [
        {
          "name": "_title",
          "type": "bytes32"
        }
      ],
      "name": "getContentPrice",
      "outputs": [
        {
          "name": "",
          "type": "uint256"
        }
      ],
      "payable": false,
      "stateMutability": "view",
      "type": "function",
      "signature": "0x00429657"
    },
    {
      "constant": true,
      "inputs": [
        {
          "name": "_title",
          "type": "bytes32"
        }
      ],
      "name": "GetContentAddress",
      "outputs": [
        {
          "name": "",
          "type": "address"
        }
      ],
      "payable": false,
      "stateMutability": "view",
      "type": "function",
      "signature": "0x8e500e4f"
    },
    {
      "constant": true,
      "inputs": [],
      "name": "getCatalogAddress",
      "outputs": [
        {
          "name": "",
          "type": "address"
        }
      ],
      "payable": false,
      "stateMutability": "view",
      "type": "function",
      "signature": "0xbdac0763"
    },
    {
      "constant": true,
      "inputs": [],
      "name": "NumberOfLinkedContents",
      "outputs": [
        {
          "name": "",
          "type": "uint256"
        }
      ],
      "payable": false,
      "stateMutability": "view",
      "type": "function",
      "signature": "0xef79616c"
    },
    {
      "constant": false,
      "inputs": [
        {
          "name": "_title",
          "type": "bytes32"
        },
        {
          "name": "_requestedPrice",
          "type": "uint256"
        }
      ],
      "name": "LinkToTheCatalog",
      "outputs": [],
      "payable": false,
      "stateMutability": "nonpayable",
      "type": "function",
      "signature": "0x24b338a2"
    },
    {
      "constant": true,
      "inputs": [],
      "name": "GetStatistics",
      "outputs": [
        {
          "name": "",
          "type": "bytes32[]"
        },
        {
          "name": "",
          "type": "uint256[]"
        }
      ],
      "payable": false,
      "stateMutability": "view",
      "type": "function",
      "signature": "0x51d25fe6"
    },
    {
      "constant": true,
      "inputs": [],
      "name": "GetContentList",
      "outputs": [
        {
          "name": "",
          "type": "bytes32[]"
        }
      ],
      "payable": false,
      "stateMutability": "view",
      "type": "function",
      "signature": "0xff70f859"
    },
    {
      "constant": true,
      "inputs": [
        {
          "name": "_x",
          "type": "uint256"
        }
      ],
      "name": "GetNewContentsList",
      "outputs": [
        {
          "name": "",
          "type": "bytes32[]"
        }
      ],
      "payable": false,
      "stateMutability": "view",
      "type": "function",
      "signature": "0xd1628fb0"
    },
    {
      "constant": true,
      "inputs": [
        {
          "name": "_genre",
          "type": "bytes32"
        }
      ],
      "name": "GetLatestByGenre",
      "outputs": [
        {
          "name": "",
          "type": "bytes32"
        }
      ],
      "payable": false,
      "stateMutability": "view",
      "type": "function",
      "signature": "0x8e2b47cd"
    },
    {
      "constant": true,
      "inputs": [
        {
          "name": "_genre",
          "type": "bytes32"
        }
      ],
      "name": "GetMostPopularByGenre",
      "outputs": [
        {
          "name": "",
          "type": "bytes32"
        }
      ],
      "payable": false,
      "stateMutability": "view",
      "type": "function",
      "signature": "0xf867cff7"
    },
    {
      "constant": true,
      "inputs": [
        {
          "name": "_author",
          "type": "bytes32"
        }
      ],
      "name": "GetLatestByAuthor",
      "outputs": [
        {
          "name": "",
          "type": "bytes32"
        }
      ],
      "payable": false,
      "stateMutability": "view",
      "type": "function",
      "signature": "0xaeed4de3"
    },
    {
      "constant": true,
      "inputs": [
        {
          "name": "_author",
          "type": "bytes32"
        }
      ],
      "name": "GetMostPopularByAuthor",
      "outputs": [
        {
          "name": "",
          "type": "bytes32"
        }
      ],
      "payable": false,
      "stateMutability": "view",
      "type": "function",
      "signature": "0xd94cf6e0"
    },
    {
      "constant": true,
      "inputs": [
        {
          "name": "_category",
          "type": "uint256"
        }
      ],
      "name": "GetMostRated",
      "outputs": [
        {
          "name": "",
          "type": "bytes32"
        }
      ],
      "payable": false,
      "stateMutability": "view",
      "type": "function",
      "signature": "0xe61ecdd9"
    },
    {
      "constant": true,
      "inputs": [
        {
          "name": "_genre",
          "type": "bytes32"
        },
        {
          "name": "_category",
          "type": "uint256"
        }
      ],
      "name": "GetMostRatedByGenre",
      "outputs": [
        {
          "name": "",
          "type": "bytes32"
        }
      ],
      "payable": false,
      "stateMutability": "view",
      "type": "function",
      "signature": "0xdd3e0463"
    },
    {
      "constant": true,
      "inputs": [
        {
          "name": "_author",
          "type": "bytes32"
        },
        {
          "name": "_category",
          "type": "uint256"
        }
      ],
      "name": "GetMostRatedByAuthor",
      "outputs": [
        {
          "name": "",
          "type": "bytes32"
        }
      ],
      "payable": false,
      "stateMutability": "view",
      "type": "function",
      "signature": "0x6cf40725"
    },
    {
      "constant": true,
      "inputs": [
        {
          "name": "_author",
          "type": "bytes32"
        }
      ],
      "name": "GetMostRatedByAuthor",
      "outputs": [
        {
          "name": "",
          "type": "bytes32"
        }
      ],
      "payable": false,
      "stateMutability": "view",
      "type": "function",
      "signature": "0x9eef4471"
    },
    {
      "constant": false,
      "inputs": [
        {
          "name": "_content",
          "type": "bytes32"
        },
        {
          "name": "_price",
          "type": "uint256"
        },
        {
          "name": "_appreciation",
          "type": "uint256"
        },
        {
          "name": "_quality",
          "type": "uint256"
        }
      ],
      "name": "LeaveFeedback",
      "outputs": [],
      "payable": false,
      "stateMutability": "nonpayable",
      "type": "function",
      "signature": "0x5474a773"
    },
    {
      "constant": true,
      "inputs": [
        {
          "name": "_user",
          "type": "address"
        }
      ],
      "name": "IsPremium",
      "outputs": [
        {
          "name": "",
          "type": "bool"
        }
      ],
      "payable": false,
      "stateMutability": "view",
      "type": "function",
      "signature": "0x5ab66bea"
    },
    {
      "constant": false,
      "inputs": [
        {
          "name": "_content",
          "type": "bytes32"
        }
      ],
      "name": "GetContent",
      "outputs": [
        {
          "name": "",
          "type": "address"
        }
      ],
      "payable": true,
      "stateMutability": "payable",
      "type": "function",
      "signature": "0x3a20d676"
    },
    {
      "constant": false,
      "inputs": [
        {
          "name": "_content",
          "type": "bytes32"
        }
      ],
      "name": "GetContentPremium",
      "outputs": [
        {
          "name": "",
          "type": "address"
        }
      ],
      "payable": false,
      "stateMutability": "nonpayable",
      "type": "function",
      "signature": "0xd97c0065"
    },
    {
      "constant": false,
      "inputs": [
        {
          "name": "_content",
          "type": "bytes32"
        },
        {
          "name": "_user",
          "type": "address"
        }
      ],
      "name": "GiftContent",
      "outputs": [
        {
          "name": "",
          "type": "address"
        }
      ],
      "payable": true,
      "stateMutability": "payable",
      "type": "function",
      "signature": "0xf15b363a"
    },
    {
      "constant": false,
      "inputs": [
        {
          "name": "_user",
          "type": "address"
        }
      ],
      "name": "GiftPremium",
      "outputs": [],
      "payable": true,
      "stateMutability": "payable",
      "type": "function",
      "signature": "0x4dc1e168"
    },
    {
      "constant": false,
      "inputs": [],
      "name": "BuyPremium",
      "outputs": [],
      "payable": true,
      "stateMutability": "payable",
      "type": "function",
      "signature": "0x2eefa37f"
    },
    {
      "constant": false,
      "inputs": [
        {
          "name": "_content",
          "type": "bytes32"
        }
      ],
      "name": "AddViews",
      "outputs": [],
      "payable": false,
      "stateMutability": "nonpayable",
      "type": "function",
      "signature": "0x158a3393"
    },
    {
      "constant": false,
      "inputs": [
        {
          "name": "_content",
          "type": "bytes32"
        }
      ],
      "name": "CollectPayment",
      "outputs": [],
      "payable": false,
      "stateMutability": "nonpayable",
      "type": "function",
      "signature": "0xe1e8bc3e"
    },
    {
      "constant": false,
      "inputs": [],
      "name": "CloseCatalog",
      "outputs": [],
      "payable": false,
      "stateMutability": "nonpayable",
      "type": "function",
      "signature": "0x15be7724"
    }
  ],
  "bytecode": "0x60806040523480156200001157600080fd5b50336000806101000a81548173ffffffffffffffffffffffffffffffffffffffff021916908373ffffffffffffffffffffffffffffffffffffffff16021790555061d21c6001819055506101f4600281905550600560048190555060006005819055506000604051908082528060200260200182016040528015620000a55781602001602082028038833980820191505090505b5060039080519060200190620000bd929190620000c4565b506200013e565b82805482825590600052602060002090810192821562000103579160200282015b8281111562000102578251825591602001919060010190620000e5565b5b50905062000112919062000116565b5090565b6200013b91905b80821115620001375760008160009055506001016200011d565b5090565b90565b613668806200014e6000396000f3fe608060405260043610610174576000357c0100000000000000000000000000000000000000000000000000000000900463ffffffff1680624296571461017957806302d05d3f146101c8578063158a33931461021f57806315be77241461025a57806324b338a2146102715780632eefa37f146102b657806330654e13146102c05780633a20d676146102eb5780634dc1e1681461035957806351d25fe61461039d5780635474a773146104515780635ab66bea146104aa5780636cf40725146105135780638e2b47cd1461056c5780638e500e4f146105bb5780639eef447114610636578063aeed4de314610685578063bdac0763146106d4578063c2ab26511461072b578063d1628fb014610756578063d94cf6e0146107e6578063d97c006514610835578063dd3e0463146108b0578063e1e8bc3e14610909578063e61ecdd914610944578063ef79616c14610993578063f15b363a146109be578063f867cff714610a4c578063ff70f85914610a9b575b600080fd5b34801561018557600080fd5b506101b26004803603602081101561019c57600080fd5b8101908080359060200190929190505050610b07565b6040518082815260200191505060405180910390f35b3480156101d457600080fd5b506101dd610bee565b604051808273ffffffffffffffffffffffffffffffffffffffff1673ffffffffffffffffffffffffffffffffffffffff16815260200191505060405180910390f35b34801561022b57600080fd5b506102586004803603602081101561024257600080fd5b8101908080359060200190929190505050610c13565b005b34801561026657600080fd5b5061026f610dce565b005b34801561027d57600080fd5b506102b46004803603604081101561029457600080fd5b810190808035906020019092919080359060200190929190505050611030565b005b6102be6111df565b005b3480156102cc57600080fd5b506102d5611324565b6040518082815260200191505060405180910390f35b6103176004803603602081101561030157600080fd5b810190808035906020019092919050505061132a565b604051808273ffffffffffffffffffffffffffffffffffffffff1673ffffffffffffffffffffffffffffffffffffffff16815260200191505060405180910390f35b61039b6004803603602081101561036f57600080fd5b81019080803573ffffffffffffffffffffffffffffffffffffffff16906020019092919050505061163a565b005b3480156103a957600080fd5b506103b2611780565b604051808060200180602001838103835285818151815260200191508051906020019060200280838360005b838110156103f95780820151818401526020810190506103de565b50505050905001838103825284818151815260200191508051906020019060200280838360005b8381101561043b578082015181840152602081019050610420565b5050505090500194505050505060405180910390f35b34801561045d57600080fd5b506104a86004803603608081101561047457600080fd5b8101908080359060200190929190803590602001909291908035906020019092919080359060200190929190505050611905565b005b3480156104b657600080fd5b506104f9600480360360208110156104cd57600080fd5b81019080803573ffffffffffffffffffffffffffffffffffffffff169060200190929190505050611fe8565b604051808215151515815260200191505060405180910390f35b34801561051f57600080fd5b506105566004803603604081101561053657600080fd5b8101908080359060200190929190803590602001909291905050506120a3565b6040518082815260200191505060405180910390f35b34801561057857600080fd5b506105a56004803603602081101561058f57600080fd5b810190808035906020019092919050505061215a565b6040518082815260200191505060405180910390f35b3480156105c757600080fd5b506105f4600480360360208110156105de57600080fd5b810190808035906020019092919050505061232c565b604051808273ffffffffffffffffffffffffffffffffffffffff1673ffffffffffffffffffffffffffffffffffffffff16815260200191505060405180910390f35b34801561064257600080fd5b5061066f6004803603602081101561065957600080fd5b8101908080359060200190929190505050612433565b6040518082815260200191505060405180910390f35b34801561069157600080fd5b506106be600480360360208110156106a857600080fd5b8101908080359060200190929190505050612453565b6040518082815260200191505060405180910390f35b3480156106e057600080fd5b506106e9612625565b604051808273ffffffffffffffffffffffffffffffffffffffff1673ffffffffffffffffffffffffffffffffffffffff16815260200191505060405180910390f35b34801561073757600080fd5b5061074061262d565b6040518082815260200191505060405180910390f35b34801561076257600080fd5b5061078f6004803603602081101561077957600080fd5b8101908080359060200190929190505050612633565b6040518080602001828103825283818151815260200191508051906020019060200280838360005b838110156107d25780820151818401526020810190506107b7565b505050509050019250505060405180910390f35b3480156107f257600080fd5b5061081f6004803603602081101561080957600080fd5b810190808035906020019092919050505061276d565b6040518082815260200191505060405180910390f35b34801561084157600080fd5b5061086e6004803603602081101561085857600080fd5b810190808035906020019092919050505061299a565b604051808273ffffffffffffffffffffffffffffffffffffffff1673ffffffffffffffffffffffffffffffffffffffff16815260200191505060405180910390f35b3480156108bc57600080fd5b506108f3600480360360408110156108d357600080fd5b810190808035906020019092919080359060200190929190505050612d30565b6040518082815260200191505060405180910390f35b34801561091557600080fd5b506109426004803603602081101561092c57600080fd5b8101908080359060200190929190505050612de7565b005b34801561095057600080fd5b5061097d6004803603602081101561096757600080fd5b8101908080359060200190929190505050613027565b6040518082815260200191505060405180910390f35b34801561099f57600080fd5b506109a8613099565b6040518082815260200191505060405180910390f35b610a0a600480360360408110156109d457600080fd5b8101908080359060200190929190803573ffffffffffffffffffffffffffffffffffffffff1690602001909291905050506130a6565b604051808273ffffffffffffffffffffffffffffffffffffffff1673ffffffffffffffffffffffffffffffffffffffff16815260200191505060405180910390f35b348015610a5857600080fd5b50610a8560048036036020811015610a6f57600080fd5b81019080803590602001909291905050506133b7565b6040518082815260200191505060405180910390f35b348015610aa757600080fd5b50610ab06135e4565b6040518080602001828103825283818151815260200191508051906020019060200280838360005b83811015610af3578082015181840152602081019050610ad8565b505050509050019250505060405180910390f35b600081600115156006600083815260200190815260200160002060000160149054906101000a900460ff161515141515610bcf576040517f08c379a00000000000000000000000000000000000000000000000000000000081526004018080602001828103825260228152602001807f436f6e74656e74206e6f74206c696e6b656420746f2074686520636174616c6f81526020017f672100000000000000000000000000000000000000000000000000000000000081525060400191505060405180910390fd5b6006600084815260200190815260200160002060050154915050919050565b6000809054906101000a900473ffffffffffffffffffffffffffffffffffffffff1681565b803373ffffffffffffffffffffffffffffffffffffffff166006600083815260200190815260200160002060000160009054906101000a900473ffffffffffffffffffffffffffffffffffffffff1673ffffffffffffffffffffffffffffffffffffffff16141515610d13576040517f08c379a00000000000000000000000000000000000000000000000000000000081526004018080602001828103825260298152602001807f416374696f6e20616c6c6f776564206f6e6c7920666f7220636f6e74656e742081526020017f636f6e747261637421000000000000000000000000000000000000000000000081525060400191505060405180910390fd5b600660008381526020019081526020016000206002016000815480929190600101919050555060066000838152602001908152602001600020600301600081548092919060010191905055506005600081548092919060010191905055506004546006600084815260200190815260200160002060030154101515610dca577fac155b80ac99b053a7aac59e5b6ef8a6b1624bab8eccc8682dcdf624d3408c82826040518082815260200191505060405180910390a15b5050565b6000809054906101000a900473ffffffffffffffffffffffffffffffffffffffff1673ffffffffffffffffffffffffffffffffffffffff163373ffffffffffffffffffffffffffffffffffffffff16141515610eb8576040517f08c379a000000000000000000000000000000000000000000000000000000000815260040180806020018281038252602e8152602001807f4f6e6c7920436174616c6f672063726561746f7220636f756c6420706572666f81526020017f726d207468697320616374696f6e00000000000000000000000000000000000081525060400191505060405180910390fd5b60008090505b600380549050811015610ff557600060055460066000600385815481101515610ee357fe5b90600052602060002001548152602001908152602001600020600201543073ffffffffffffffffffffffffffffffffffffffff163102811515610f2257fe5b04905060066000600384815481101515610f3857fe5b9060005260206000200154815260200190815260200160002060000160009054906101000a900473ffffffffffffffffffffffffffffffffffffffff1673ffffffffffffffffffffffffffffffffffffffff166108fc829081150290604051600060405180830381858888f19350505050158015610fba573d6000803e3d6000fd5b507f35dddbe5f23861a143d6b86a203158d3665e134051f4903d5971c8f2c041b7de60405160405180910390a1508080600101915050610ebe565b506000809054906101000a900473ffffffffffffffffffffffffffffffffffffffff1673ffffffffffffffffffffffffffffffffffffffff16ff5b6003829080600181540180825580915050906001820390600052602060002001600090919290919091505550336006600084815260200190815260200160002060000160006101000a81548173ffffffffffffffffffffffffffffffffffffffff021916908373ffffffffffffffffffffffffffffffffffffffff160217905550336006600084815260200190815260200160002060010160006101000a81548173ffffffffffffffffffffffffffffffffffffffff021916908373ffffffffffffffffffffffffffffffffffffffff160217905550600060066000848152602001908152602001600020600201819055506000600660008481526020019081526020016000206003018190555060016006600084815260200190815260200160002060000160146101000a81548160ff021916908315150217905550600060066000848152602001908152602001600020600401819055508060066000848152602001908152602001600020600501819055507f3e0a228e5d21027cd505a00bf02ca745bf685f1e76457509bf3261b604008333826040518082815260200191505060405180910390a15050565b600254803414151561127f576040517f08c379a000000000000000000000000000000000000000000000000000000000815260040180806020018281038252602b8152602001807f596f75206469646e2774207061792074686520636f727265637420616d6f756e81526020017f74206f66206d6f6e65792100000000000000000000000000000000000000000081525060400191505060405180910390fd5b6001600760003373ffffffffffffffffffffffffffffffffffffffff1673ffffffffffffffffffffffffffffffffffffffff16815260200190815260200160002060000160006101000a81548160ff02191690831515021790555043600760003373ffffffffffffffffffffffffffffffffffffffff1673ffffffffffffffffffffffffffffffffffffffff1681526020019081526020016000206001018190555050565b60025481565b6000600660008381526020019081526020016000206005015480341415156113e0576040517f08c379a000000000000000000000000000000000000000000000000000000000815260040180806020018281038252602b8152602001807f596f75206469646e2774207061792074686520636f727265637420616d6f756e81526020017f74206f66206d6f6e65792100000000000000000000000000000000000000000081525060400191505060405180910390fd5b82600115156006600083815260200190815260200160002060000160149054906101000a900460ff1615151415156114a6576040517f08c379a00000000000000000000000000000000000000000000000000000000081526004018080602001828103825260228152602001807f436f6e74656e74206e6f74206c696e6b656420746f2074686520636174616c6f81526020017f672100000000000000000000000000000000000000000000000000000000000081525060400191505060405180910390fd5b6006600085815260200190815260200160002060010160009054906101000a900473ffffffffffffffffffffffffffffffffffffffff1673ffffffffffffffffffffffffffffffffffffffff16630ae5e739336040518263ffffffff167c0100000000000000000000000000000000000000000000000000000000028152600401808273ffffffffffffffffffffffffffffffffffffffff1673ffffffffffffffffffffffffffffffffffffffff168152602001915050600060405180830381600087803b15801561157757600080fd5b505af115801561158b573d6000803e3d6000fd5b505050507ff20afd7b032307b01752ee91e3f6a4b83a5b4ab631f9ab279322fd45634382c08433604051808381526020018273ffffffffffffffffffffffffffffffffffffffff1673ffffffffffffffffffffffffffffffffffffffff1681526020019250505060405180910390a16006600085815260200190815260200160002060000160009054906101000a900473ffffffffffffffffffffffffffffffffffffffff1692505050919050565b60025480341415156116da576040517f08c379a000000000000000000000000000000000000000000000000000000000815260040180806020018281038252602b8152602001807f596f75206469646e2774207061792074686520636f727265637420616d6f756e81526020017f74206f66206d6f6e65792100000000000000000000000000000000000000000081525060400191505060405180910390fd5b6001600760008473ffffffffffffffffffffffffffffffffffffffff1673ffffffffffffffffffffffffffffffffffffffff16815260200190815260200160002060000160006101000a81548160ff02191690831515021790555043600760008473ffffffffffffffffffffffffffffffffffffffff1673ffffffffffffffffffffffffffffffffffffffff168152602001908152602001600020600101819055505050565b606080600060038054905014151515611801576040517f08c379a00000000000000000000000000000000000000000000000000000000081526004018080602001828103825260168152602001807f436f6e74656e74206c69737420697320656d707479210000000000000000000081525060200191505060405180910390fd5b60606003805490506040519080825280602002602001820160405280156118375781602001602082028038833980820191505090505b50905060008090505b6003805490508110156118a6576006600060038381548110151561186057fe5b9060005260206000200154815260200190815260200160002060020154828281518110151561188b57fe5b90602001906020020181815250508080600101915050611840565b50600381818054806020026020016040519081016040528092919081815260200182805480156118f557602002820191906000526020600020905b8154815260200190600101908083116118e1575b5050505050915092509250509091565b836006600082815260200190815260200160002060010160009054906101000a900473ffffffffffffffffffffffffffffffffffffffff1673ffffffffffffffffffffffffffffffffffffffff16632731ebd8336040518263ffffffff167c0100000000000000000000000000000000000000000000000000000000028152600401808273ffffffffffffffffffffffffffffffffffffffff1673ffffffffffffffffffffffffffffffffffffffff16815260200191505060206040518083038186803b1580156119d557600080fd5b505afa1580156119e9573d6000803e3d6000fd5b505050506040513d60208110156119ff57600080fd5b81019080805190602001909291905050501515611ad0576040517f08c379a00000000000000000000000000000000000000000000000000000000081526004018080602001828103825260428152602001807f596f752063616e206c65617665206120666565646261636b206f6e6c7920696681526020017f20796f7520616c726561647920636f6e73756d65642074686520636f6e74656e81526020017f742100000000000000000000000000000000000000000000000000000000000081525060600191505060405180910390fd5b600060038385870101811515611ae257fe5b04905060006006600088815260200190815260200160002060010160009054906101000a900473ffffffffffffffffffffffffffffffffffffffff1673ffffffffffffffffffffffffffffffffffffffff1663a6c3e6b96040518163ffffffff167c010000000000000000000000000000000000000000000000000000000002815260040160206040518083038186803b158015611b7f57600080fd5b505afa158015611b93573d6000803e3d6000fd5b505050506040513d6020811015611ba957600080fd5b8101908080519060200190929190505050905060006006600089815260200190815260200160002060010160009054906101000a900473ffffffffffffffffffffffffffffffffffffffff1673ffffffffffffffffffffffffffffffffffffffff166317de3a416040518163ffffffff167c010000000000000000000000000000000000000000000000000000000002815260040160206040518083038186803b158015611c5657600080fd5b505afa158015611c6a573d6000803e3d6000fd5b505050506040513d6020811015611c8057600080fd5b8101908080519060200190929190505050905082600660008a815260200190815260200160002060040181905550826008600101541015611cd05782600860010181905550876008600001819055505b866008600301541015611cf25786600860030181905550876008600201819055505b846008600501541015611d145784600860050181905550876008600401819055505b856008600701541015611d365785600860070181905550876008600601819055505b8260116000838152602001908152602001600020600101541015611d8b578260116000838152602001908152602001600020600101819055508760116000838152602001908152602001600020600001819055505b8660116000838152602001908152602001600020600301541015611de0578660116000838152602001908152602001600020600301819055508760116000838152602001908152602001600020600201819055505b8460116000838152602001908152602001600020600501541015611e35578460116000838152602001908152602001600020600501819055508760116000838152602001908152602001600020600401819055505b8560116000838152602001908152602001600020600701541015611e8a578560116000838152602001908152602001600020600701819055508760116000838152602001908152602001600020600601819055505b8260106000848152602001908152602001600020600101541015611edf578260106000848152602001908152602001600020600101819055508760106000848152602001908152602001600020600001819055505b8660106000848152602001908152602001600020600301541015611f34578660106000848152602001908152602001600020600301819055508760106000848152602001908152602001600020600201819055505b8460106000848152602001908152602001600020600501541015611f89578460106000848152602001908152602001600020600501819055508760106000848152602001908152602001600020600401819055505b8560106000848152602001908152602001600020600701541015611fde578560106000848152602001908152602001600020600701819055508760106000848152602001908152602001600020600601819055505b5050505050505050565b6000600760008373ffffffffffffffffffffffffffffffffffffffff1673ffffffffffffffffffffffffffffffffffffffff16815260200190815260200160002060000160009054906101000a900460ff16801561208b575043600154600760008573ffffffffffffffffffffffffffffffffffffffff1673ffffffffffffffffffffffffffffffffffffffff1681526020019081526020016000206001015401115b15612099576001905061209e565b600090505b919050565b60008060038111156120b157fe5b8214156120d65760106000848152602001908152602001600020600001549050612154565b600160038111156120e357fe5b8214156121085760106000848152602001908152602001600020600601549050612154565b6002600381111561211557fe5b82141561213a5760106000848152602001908152602001600020600401549050612154565b601060008481526020019081526020016000206002015490505b92915050565b600080600380549050141515156121d9576040517f08c379a00000000000000000000000000000000000000000000000000000000081526004018080602001828103825260168152602001807f436f6e74656e74206c69737420697320656d707479210000000000000000000081525060200191505060405180910390fd5b60008060016003805490500390505b60008110151561232257836006600060038481548110151561220657fe5b9060005260206000200154815260200190815260200160002060010160009054906101000a900473ffffffffffffffffffffffffffffffffffffffff1673ffffffffffffffffffffffffffffffffffffffff166317de3a416040518163ffffffff167c010000000000000000000000000000000000000000000000000000000002815260040160206040518083038186803b1580156122a457600080fd5b505afa1580156122b8573d6000803e3d6000fd5b505050506040513d60208110156122ce57600080fd5b81019080805190602001909291905050501415612306576003818154811015156122f457fe5b90600052602060002001549150612322565b600081141561231457612322565b8080600190039150506121e8565b5080915050919050565b600081600115156006600083815260200190815260200160002060000160149054906101000a900460ff1615151415156123f4576040517f08c379a00000000000000000000000000000000000000000000000000000000081526004018080602001828103825260228152602001807f436f6e74656e74206e6f74206c696e6b656420746f2074686520636174616c6f81526020017f672100000000000000000000000000000000000000000000000000000000000081525060400191505060405180910390fd5b6006600084815260200190815260200160002060000160009054906101000a900473ffffffffffffffffffffffffffffffffffffffff16915050919050565b600060106000838152602001908152602001600020600001549050919050565b600080600380549050141515156124d2576040517f08c379a00000000000000000000000000000000000000000000000000000000081526004018080602001828103825260168152602001807f436f6e74656e74206c69737420697320656d707479210000000000000000000081525060200191505060405180910390fd5b60008060016003805490500390505b60008110151561261b5783600660006003848154811015156124ff57fe5b9060005260206000200154815260200190815260200160002060010160009054906101000a900473ffffffffffffffffffffffffffffffffffffffff1673ffffffffffffffffffffffffffffffffffffffff1663a6c3e6b96040518163ffffffff167c010000000000000000000000000000000000000000000000000000000002815260040160206040518083038186803b15801561259d57600080fd5b505afa1580156125b1573d6000803e3d6000fd5b505050506040513d60208110156125c757600080fd5b810190808051906020019092919050505014156125ff576003818154811015156125ed57fe5b9060005260206000200154915061261b565b600081141561260d5761261b565b8080600190039150506124e1565b5080915050919050565b600030905090565b60045481565b60606000600380549050141515156126b3576040517f08c379a00000000000000000000000000000000000000000000000000000000081526004018080602001828103825260168152602001807f436f6e74656e74206c69737420697320656d707479210000000000000000000081525060200191505060405180910390fd5b6060826040519080825280602002602001820160405280156126e45781602001602082028038833980820191505090505b5090506000600160038054905003905060006001850390505b6000811015156127625760038281548110151561271657fe5b9060005260206000200154838281518110151561272f57fe5b9060200190602002018181525050818060019003925050600081141561275457612762565b8080600190039150506126fd565b508192505050919050565b600080600380549050141515156127ec576040517f08c379a00000000000000000000000000000000000000000000000000000000081526004018080602001828103825260168152602001807f436f6e74656e74206c69737420697320656d707479210000000000000000000081525060200191505060405180910390fd5b6000809050600080600090505b60038054905081101561298f57846006600060038481548110151561281a57fe5b9060005260206000200154815260200190815260200160002060010160009054906101000a900473ffffffffffffffffffffffffffffffffffffffff1673ffffffffffffffffffffffffffffffffffffffff1663a6c3e6b96040518163ffffffff167c010000000000000000000000000000000000000000000000000000000002815260040160206040518083038186803b1580156128b857600080fd5b505afa1580156128cc573d6000803e3d6000fd5b505050506040513d60208110156128e257600080fd5b810190808051906020019092919050505014801561292e5750826006600060038481548110151561290f57fe5b9060005260206000200154815260200190815260200160002060020154115b15612982576006600060038381548110151561294657fe5b9060005260206000200154815260200190815260200160002060020154925060038181548110151561297457fe5b906000526020600020015491505b80806001019150506127f9565b508092505050919050565b6000600760003373ffffffffffffffffffffffffffffffffffffffff1673ffffffffffffffffffffffffffffffffffffffff16815260200190815260200160002060000160009054906101000a900460ff168015612a3d575043600154600760003373ffffffffffffffffffffffffffffffffffffffff1673ffffffffffffffffffffffffffffffffffffffff1681526020019081526020016000206001015401115b1515612ad7576040517f08c379a00000000000000000000000000000000000000000000000000000000081526004018080602001828103825260268152602001807f416363657373207265737472696374656420746f205072656d69756d2061636381526020017f6f756e747321000000000000000000000000000000000000000000000000000081525060400191505060405180910390fd5b81600115156006600083815260200190815260200160002060000160149054906101000a900460ff161515141515612b9d576040517f08c379a00000000000000000000000000000000000000000000000000000000081526004018080602001828103825260228152602001807f436f6e74656e74206e6f74206c696e6b656420746f2074686520636174616c6f81526020017f672100000000000000000000000000000000000000000000000000000000000081525060400191505060405180910390fd5b6006600084815260200190815260200160002060010160009054906101000a900473ffffffffffffffffffffffffffffffffffffffff1673ffffffffffffffffffffffffffffffffffffffff16630ae5e739336040518263ffffffff167c0100000000000000000000000000000000000000000000000000000000028152600401808273ffffffffffffffffffffffffffffffffffffffff1673ffffffffffffffffffffffffffffffffffffffff168152602001915050600060405180830381600087803b158015612c6e57600080fd5b505af1158015612c82573d6000803e3d6000fd5b505050507ff20afd7b032307b01752ee91e3f6a4b83a5b4ab631f9ab279322fd45634382c08333604051808381526020018273ffffffffffffffffffffffffffffffffffffffff1673ffffffffffffffffffffffffffffffffffffffff1681526020019250505060405180910390a16006600084815260200190815260200160002060000160009054906101000a900473ffffffffffffffffffffffffffffffffffffffff16915050919050565b6000806003811115612d3e57fe5b821415612d635760116000848152602001908152602001600020600001549050612de1565b60016003811115612d7057fe5b821415612d955760116000848152602001908152602001600020600601549050612de1565b60026003811115612da257fe5b821415612dc75760116000848152602001908152602001600020600401549050612de1565b601160008481526020019081526020016000206002015490505b92915050565b80600454600660008381526020019081526020016000206003015410151515612e78576040517f08c379a000000000000000000000000000000000000000000000000000000000815260040180806020018281038252601c8152602001807f4e6f20766965777320656e6f75676820746f206265207061796564210000000081525060200191505060405180910390fd5b813373ffffffffffffffffffffffffffffffffffffffff166006600083815260200190815260200160002060000160009054906101000a900473ffffffffffffffffffffffffffffffffffffffff1673ffffffffffffffffffffffffffffffffffffffff16141515612f78576040517f08c379a00000000000000000000000000000000000000000000000000000000081526004018080602001828103825260298152602001807f416374696f6e20616c6c6f776564206f6e6c7920666f7220636f6e74656e742081526020017f636f6e747261637421000000000000000000000000000000000000000000000081525060400191505060405180910390fd5b3373ffffffffffffffffffffffffffffffffffffffff166108fc60066000868152602001908152602001600020600501546006600087815260200190815260200160002060040154029081150290604051600060405180830381858888f19350505050158015612fec573d6000803e3d6000fd5b506004546006600085815260200190815260200160002060030154036006600085815260200190815260200160002060030181905550505050565b600080600381111561303557fe5b821415613049576008600001549050613094565b6001600381111561305657fe5b82141561306a576008600601549050613094565b6002600381111561307757fe5b82141561308b576008600401549050613094565b60086002015490505b919050565b6000600380549050905090565b60006006600084815260200190815260200160002060050154803414151561315c576040517f08c379a000000000000000000000000000000000000000000000000000000000815260040180806020018281038252602b8152602001807f596f75206469646e2774207061792074686520636f727265637420616d6f756e81526020017f74206f66206d6f6e65792100000000000000000000000000000000000000000081525060400191505060405180910390fd5b83600115156006600083815260200190815260200160002060000160149054906101000a900460ff161515141515613222576040517f08c379a00000000000000000000000000000000000000000000000000000000081526004018080602001828103825260228152602001807f436f6e74656e74206e6f74206c696e6b656420746f2074686520636174616c6f81526020017f672100000000000000000000000000000000000000000000000000000000000081525060400191505060405180910390fd5b6006600086815260200190815260200160002060010160009054906101000a900473ffffffffffffffffffffffffffffffffffffffff1673ffffffffffffffffffffffffffffffffffffffff16630ae5e739856040518263ffffffff167c0100000000000000000000000000000000000000000000000000000000028152600401808273ffffffffffffffffffffffffffffffffffffffff1673ffffffffffffffffffffffffffffffffffffffff168152602001915050600060405180830381600087803b1580156132f357600080fd5b505af1158015613307573d6000803e3d6000fd5b505050507ff20afd7b032307b01752ee91e3f6a4b83a5b4ab631f9ab279322fd45634382c08585604051808381526020018273ffffffffffffffffffffffffffffffffffffffff1673ffffffffffffffffffffffffffffffffffffffff1681526020019250505060405180910390a16006600086815260200190815260200160002060000160009054906101000a900473ffffffffffffffffffffffffffffffffffffffff169250505092915050565b60008060038054905014151515613436576040517f08c379a00000000000000000000000000000000000000000000000000000000081526004018080602001828103825260168152602001807f436f6e74656e74206c69737420697320656d707479210000000000000000000081525060200191505060405180910390fd5b6000809050600080600090505b6003805490508110156135d957846006600060038481548110151561346457fe5b9060005260206000200154815260200190815260200160002060010160009054906101000a900473ffffffffffffffffffffffffffffffffffffffff1673ffffffffffffffffffffffffffffffffffffffff166317de3a416040518163ffffffff167c010000000000000000000000000000000000000000000000000000000002815260040160206040518083038186803b15801561350257600080fd5b505afa158015613516573d6000803e3d6000fd5b505050506040513d602081101561352c57600080fd5b81019080805190602001909291905050501480156135785750826006600060038481548110151561355957fe5b9060005260206000200154815260200190815260200160002060020154115b156135cc576006600060038381548110151561359057fe5b906000526020600020015481526020019081526020016000206002015492506003818154811015156135be57fe5b906000526020600020015491505b8080600101915050613443565b508092505050919050565b6060600380548060200260200160405190810160405280929190818152602001828054801561363257602002820191906000526020600020905b81548152602001906001019080831161361e575b505050505090509056fea165627a7a7230582002f28bf3b57e863602e107cd7e1a9397231a58b0da026b79c43eeab38a4606f30029",
  "source": "pragma solidity ^0.5.0;\nimport \"./BaseContentManagement.sol\";\n\ncontract Catalog {\n    address payable public creator;\n    uint premiumTime;\n    uint public premiumPrice;\n    bytes32[] contentList;\n    uint public paymentDelay;\n    uint allTheViews;\n\n    struct ContentMetadata{\n        address payable authorAddress;\n        bool isLinked;\n        BaseContentManagement content;\n        uint views;\n        uint viewsSincePayed;\n        uint averageRating;\n        uint requestedPrice;\n    }\n\n    mapping(bytes32 => ContentMetadata) addedContents;\n\n    constructor() public{\n        creator = msg.sender;\n        /* 1 day = (24 h * 60 min * 60 sec) / 14.93 seconds per block = 53788 blocks */\n        premiumTime = 53788;\n        premiumPrice = 500;\n        paymentDelay = 5;\n        allTheViews = 0;\n        contentList = new bytes32[](0);\n    }\n\n    /* events */\n    event AccessGranted(bytes32 _content, address _user);\n    event NewLinkedContent(bytes32 _content);\n    event PaymentAvailable(bytes32 _content);\n    event ClosedCatalog();\n\n    struct PremiumInfo{\n        bool isPremium;\n        uint blockNum;\n    }\n\n    /* user address => block number of premium subscription*/\n    mapping (address => PremiumInfo) premiumUsers;\n\n    enum Category {none, appreciation, quality, price}\n\n    /*\n    Content feedback includes 3 categories: appreciation of the content, content quality and price fairness.\n    Each category could be rated with a score from 0 to 5.\n    So maximum rating is 5*3=15.\n    */\n    struct MostRated{\n        bytes32 average;\n        uint averageValue;\n        bytes32 price;\n        uint priceValue;\n        bytes32 quality;\n        uint qualityValue;\n        bytes32 appreciation;\n        uint appreciationValue;\n    }\n\n    MostRated mostRated;\n    mapping (bytes32 => MostRated) authorToMostRated;\n    mapping (bytes32 => MostRated) genreToMostRated;\n\n    /* modifier to restrict a functionality only to Premium users */\n    modifier restrictToPremium{\n        require(\n            premiumUsers[msg.sender].isPremium &&\n            (premiumUsers[msg.sender].blockNum + premiumTime) > block.number,\n            \"Access restricted to Premium accounts!\"\n        );\n        _;\n    }\n\n    modifier ifLinkedContent(bytes32 _content){\n        require(\n            addedContents[_content].isLinked == true,\n            \"Content not linked to the catalog!\"\n        );\n        _;\n    }\n\n    /* Functionalities restricted to catalog creator only */\n    modifier onlyCreator{\n        require(\n            msg.sender == creator,\n            \"Only Catalog creator could perform this action\"\n        );\n        _;\n    }\n\n    /* Check that the caller is the content */\n    modifier onlyContent(bytes32 _content){\n        require(\n            addedContents[_content].authorAddress == msg.sender,\n            \"Action allowed only for content contract!\"  \n        );\n        _;\n    }\n\n    /* Check content views */\n    modifier checkViews(bytes32 _content){\n        require(\n            addedContents[_content].viewsSincePayed >= paymentDelay,\n            \"No views enough to be payed!\"\n        );\n        _;\n    }\n\n    /* Check payment value: transaction refused if value < amount and if value > amount */\n    modifier costs(uint _amount){\n        require(\n            msg.value == _amount,\n            \"You didn't pay the correct amount of money!\"\n        );\n        _;\n    }\n\n    /* Check if the content list is empty */\n    modifier ifNotEmpty{\n        require(\n            contentList.length != 0,\n            \"Content list is empty!\"\n        );\n        _;\n    }\n\n    /* Check if an user already consumed a certain content */\n    modifier onlyIfConsumed(bytes32 _content){\n        require(\n            addedContents[_content].content.hasConsumed(msg.sender),\n            \"You can leave a feedback only if you already consumed the content!\"\n            );\n        _;\n    }\n\n    function getContentPrice(bytes32 _title) external view ifLinkedContent(_title) returns(uint){\n        return addedContents[_title].requestedPrice;\n    }\n\n    function GetContentAddress(bytes32 _title) external view ifLinkedContent(_title) returns(address){\n        return address(addedContents[_title].authorAddress);\n    }\n\n    function getCatalogAddress() external view returns(address){\n        return address(this);\n    }\n\n    function NumberOfLinkedContents() external view returns(uint){\n        return uint(contentList.length);\n    }\n\n    function LinkToTheCatalog(bytes32 _title, uint _requestedPrice) external {\n        contentList.push(_title);\n        addedContents[_title].authorAddress = msg.sender;\n        addedContents[_title].content = BaseContentManagement(msg.sender);\n        addedContents[_title].views = 0;\n        addedContents[_title].viewsSincePayed = 0;\n        addedContents[_title].isLinked = true;\n        addedContents[_title].averageRating = 0;\n        addedContents[_title].requestedPrice = _requestedPrice;\n        emit NewLinkedContent(_title);\n    }\n\n    function GetStatistics() external view ifNotEmpty returns (bytes32[] memory, uint[] memory) {\n        uint[] memory views = new uint[](contentList.length);\n        for(uint i = 0; i < contentList.length; i++){\n            views[i] = addedContents[contentList[i]].views;\n        }\n        return (contentList, views);\n    }\n\n    function GetContentList() external view returns (bytes32[] memory) {\n        return contentList;\n    }\n\n    function GetNewContentsList(uint _x) external view ifNotEmpty returns (bytes32[] memory){\n        bytes32[] memory latests = new bytes32[](_x);\n        uint j = contentList.length - 1;\n        for (uint i = _x - 1; i>=0; i--){\n            latests[i] = contentList[j];\n            j--;\n            if(i==0) break;\n        }\n        return latests;\n    }\n\n    function GetLatestByGenre(bytes32 _genre) external view ifNotEmpty returns (bytes32){\n        bytes32 tmp;\n        for (uint i = contentList.length - 1; i>=0; i--){\n            if (addedContents[contentList[i]].content.genre() == _genre){\n                tmp = contentList[i];\n                break;\n            }\n            if(i == 0)\n                break;\n        }\n        return tmp;\n    }\n\n    function GetMostPopularByGenre(bytes32 _genre) external view ifNotEmpty returns (bytes32){\n        uint max = 0;\n        bytes32 tmp;\n        for(uint i = 0; i<contentList.length; i++){\n            if(addedContents[contentList[i]].content.genre() == _genre && \n            addedContents[contentList[i]].views > max){\n                max = addedContents[contentList[i]].views;\n                tmp = contentList[i];\n            }\n        }\n        return tmp;\n    }\n\n    function GetLatestByAuthor(bytes32 _author) external view ifNotEmpty returns (bytes32){\n        bytes32 tmp;\n        for (uint i = contentList.length - 1; i>=0; i--){\n            if (addedContents[contentList[i]].content.author() == _author){\n                tmp = contentList[i];\n                break;\n            }\n            if(i == 0)\n                break;\n        }\n        return tmp;\n\n    }\n\n    function GetMostPopularByAuthor(bytes32 _author) external view ifNotEmpty returns(bytes32){\n        uint max = 0;\n        bytes32 tmp;\n        for(uint i = 0; i<contentList.length; i++){\n            if(addedContents[contentList[i]].content.author() == _author &&\n            addedContents[contentList[i]].views > max){\n                max = addedContents[contentList[i]].views;\n                tmp = contentList[i];\n            }\n        }\n        return tmp;\n    }\n\n    /* Returns the title of the most rated content according to a certain category\n    (category is \"none\"  if not specified by the user and returns the average) */\n    function GetMostRated(uint _category) external view returns(bytes32){\n        if(_category == uint(Category.none)) return mostRated.average;\n        else if (_category == uint(Category.appreciation)) return mostRated.appreciation;\n        else if (_category == uint(Category.quality)) return mostRated.quality;  \n        else return mostRated.price;\n    }\n\n    /* Returns the title of the most rated content  with a specific genre according to a certain category\n    (category is \"none\"  if not specified by the user and returns the average) */\n    function GetMostRatedByGenre(bytes32 _genre, uint _category) external view returns(bytes32){\n        if(_category == uint(Category.none)) return genreToMostRated[_genre].average;\n        else if (_category == uint(Category.appreciation)) return genreToMostRated[_genre].appreciation;\n        else if (_category == uint(Category.quality)) return genreToMostRated[_genre].quality;  \n        else return genreToMostRated[_genre].price;\n    }\n\n    function GetMostRatedByAuthor(bytes32 _author) external view returns(bytes32){\n        return authorToMostRated[_author].average;\n    }\n\n    function GetMostRatedByAuthor(bytes32 _author, uint _category) external view returns(bytes32){\n        if(_category == uint(Category.none)) return authorToMostRated[_author].average;\n        else if (_category == uint(Category.appreciation)) return authorToMostRated[_author].appreciation;\n        else if (_category == uint(Category.quality)) return authorToMostRated[_author].quality;  \n        else return authorToMostRated[_author].price;\n    }\n\n    function LeaveFeedback(bytes32 _content, uint _price, uint _appreciation, uint _quality) external onlyIfConsumed(_content){\n        uint average = (_price + _appreciation + _quality) / 3;\n        bytes32 author = addedContents[_content].content.author();\n        bytes32 genre = addedContents[_content].content.genre();\n        /* for price base value */\n        addedContents[_content].averageRating = average;\n\n        /* absolute */\n\n        /* no category */\n        if(mostRated.averageValue < average){\n            mostRated.averageValue = average;\n            mostRated.average = _content;    \n        }\n        /* price fairness */\n        if(mostRated.priceValue < _price){\n            mostRated.priceValue = _price;\n            mostRated.price = _content;\n        }\n        /* content quality */\n        if(mostRated.qualityValue < _quality){\n            mostRated.qualityValue = _quality;\n            mostRated.quality = _content;\n        }\n        /* appreciation of the content */\n        if(mostRated.appreciationValue < _appreciation){\n            mostRated.appreciationValue = _appreciation;\n            mostRated.appreciation = _content;\n        }\n\n        /* genre */\n\n        /* no category */\n        if(genreToMostRated[genre].averageValue < average){\n            genreToMostRated[genre].averageValue = average;\n            genreToMostRated[genre].average = _content;    \n        }\n        /* price fairness */\n        if(genreToMostRated[genre].priceValue < _price){\n            genreToMostRated[genre].priceValue = _price;\n            genreToMostRated[genre].price = _content;\n        }\n        /* content quality */\n        if(genreToMostRated[genre].qualityValue < _quality){\n            genreToMostRated[genre].qualityValue = _quality;\n            genreToMostRated[genre].quality = _content;\n        }\n        /* appreciation of the content */\n        if(genreToMostRated[genre].appreciationValue < _appreciation){\n            genreToMostRated[genre].appreciationValue = _appreciation;\n            genreToMostRated[genre].appreciation = _content;\n        }\n\n        /* author */\n\n        /* no category */\n        if(authorToMostRated[author].averageValue < average){\n            authorToMostRated[author].averageValue = average;\n            authorToMostRated[author].average = _content;    \n        }\n        /* price fairness */\n        if(authorToMostRated[author].priceValue < _price){\n            authorToMostRated[author].priceValue = _price;\n            authorToMostRated[author].price = _content;\n        }\n        /* content quality */\n        if(authorToMostRated[author].qualityValue < _quality){\n            authorToMostRated[author].qualityValue = _quality;\n            authorToMostRated[author].quality = _content;\n        }\n        /* appreciation of the content */\n        if(authorToMostRated[author].appreciationValue < _appreciation){\n            authorToMostRated[author].appreciationValue = _appreciation;\n            authorToMostRated[author].appreciation = _content;\n        }\n    }\n\n    function IsPremium(address _user) external view returns (bool){\n        if(premiumUsers[_user].isPremium && \n        (premiumUsers[_user].blockNum + premiumTime > block.number))\n        return true;\n        else return false;\n    }\n\n    function GetContent(bytes32 _content) external payable costs(addedContents[_content].requestedPrice)\n        ifLinkedContent(_content) returns (address){\n        addedContents[_content].content.grantAccess(msg.sender);\n        emit AccessGranted(_content, msg.sender);\n        return addedContents[_content].authorAddress;\n    }\n\n    function GetContentPremium(bytes32 _content) external restrictToPremium  ifLinkedContent(_content) returns (address){\n        addedContents[_content].content.grantAccess(msg.sender);\n        emit AccessGranted(_content, msg.sender);\n        return addedContents[_content].authorAddress;\n    }\n\n    function GiftContent(bytes32 _content, address _user) external payable costs(addedContents[_content].requestedPrice)\n        ifLinkedContent(_content) returns(address){\n        addedContents[_content].content.grantAccess(_user);\n        emit AccessGranted(_content, _user);\n        return addedContents[_content].authorAddress;\n    }\n\n    function GiftPremium(address _user) external payable costs(premiumPrice) {\n        premiumUsers[_user].isPremium = true;\n        premiumUsers[_user].blockNum = block.number;\n    }\n\n    function BuyPremium() external payable costs(premiumPrice){\n        premiumUsers[msg.sender].isPremium = true;\n        premiumUsers[msg.sender].blockNum = block.number;\n    }\n\n    /* Add views to a content and emit an event if it reaches the views for a payment */\n    function AddViews(bytes32 _content) external onlyContent(_content){\n        addedContents[_content].views++;\n        addedContents[_content].viewsSincePayed++;\n        allTheViews++;\n        if(addedContents[_content].viewsSincePayed >= paymentDelay)\n            emit PaymentAvailable(_content);\n    }\n\n    // @notice to be simulated manually for the moment, with the frontend there will be a callback\n    function CollectPayment(bytes32 _content) external checkViews(_content) onlyContent(_content) {\n        msg.sender.transfer(addedContents[_content].averageRating * addedContents[_content].requestedPrice);\n        /* #views to be payed = #views since last time - #views payed this time \n            So no views are are lost between the notification of available payment and collecting the payment */\n        addedContents[_content].viewsSincePayed = addedContents[_content].viewsSincePayed - paymentDelay; \n    }\n\n    function CloseCatalog() external onlyCreator{\n        for(uint i = 0; i<contentList.length; i++){\n            uint toTransfer = address(this).balance * addedContents[contentList[i]].views / allTheViews;\n            addedContents[contentList[i]].authorAddress.transfer(toTransfer);\n            emit ClosedCatalog();\n        }\n        selfdestruct(creator);\n    }\n\n}",
  "sourcePath": "/home/chiara/Universit/Magistrale/P2P/CobraDapp/contracts/Catalog.sol",
  "compiler": {
    "name": "solc",
    "version": "0.5.0+commit.1d4f565a.Emscripten.clang"
  },
  "schemaVersion": "3.0.3",
  "updatedAt": "2019-03-20T10:24:17.513Z",
  "devdoc": {
    "methods": {}
  },
  "userdoc": {
    "methods": {}
  }
}