{
  "contractName": "Catalog",
  "abi": [
    {
      "constant": true,
      "inputs": [],
      "name": "creator",
      "outputs": [
        {
          "name": "",
          "type": "address"
        }
      ],
      "payable": false,
      "stateMutability": "view",
      "type": "function"
    },
    {
      "constant": true,
      "inputs": [],
      "name": "premiumPrice",
      "outputs": [
        {
          "name": "",
          "type": "uint256"
        }
      ],
      "payable": false,
      "stateMutability": "view",
      "type": "function"
    },
    {
      "constant": true,
      "inputs": [],
      "name": "paymentDelay",
      "outputs": [
        {
          "name": "",
          "type": "uint256"
        }
      ],
      "payable": false,
      "stateMutability": "view",
      "type": "function"
    },
    {
      "inputs": [],
      "payable": false,
      "stateMutability": "nonpayable",
      "type": "constructor"
    },
    {
      "anonymous": false,
      "inputs": [
        {
          "indexed": false,
          "name": "_content",
          "type": "bytes32"
        },
        {
          "indexed": false,
          "name": "_user",
          "type": "address"
        }
      ],
      "name": "AccessGranted",
      "type": "event"
    },
    {
      "anonymous": false,
      "inputs": [
        {
          "indexed": false,
          "name": "_content",
          "type": "bytes32"
        }
      ],
      "name": "NewLinkedContent",
      "type": "event"
    },
    {
      "anonymous": false,
      "inputs": [
        {
          "indexed": false,
          "name": "_content",
          "type": "bytes32"
        }
      ],
      "name": "PaymentAvailable",
      "type": "event"
    },
    {
      "anonymous": false,
      "inputs": [],
      "name": "ClosedCatalog",
      "type": "event"
    },
    {
      "constant": true,
      "inputs": [
        {
          "name": "_title",
          "type": "bytes32"
        }
      ],
      "name": "getContentPrice",
      "outputs": [
        {
          "name": "",
          "type": "uint256"
        }
      ],
      "payable": false,
      "stateMutability": "view",
      "type": "function"
    },
    {
      "constant": true,
      "inputs": [
        {
          "name": "_title",
          "type": "bytes32"
        }
      ],
      "name": "GetContentAddress",
      "outputs": [
        {
          "name": "",
          "type": "address"
        }
      ],
      "payable": false,
      "stateMutability": "view",
      "type": "function"
    },
    {
      "constant": true,
      "inputs": [],
      "name": "getCatalogAddress",
      "outputs": [
        {
          "name": "",
          "type": "address"
        }
      ],
      "payable": false,
      "stateMutability": "view",
      "type": "function"
    },
    {
      "constant": true,
      "inputs": [],
      "name": "NumberOfLinkedContents",
      "outputs": [
        {
          "name": "",
          "type": "uint256"
        }
      ],
      "payable": false,
      "stateMutability": "view",
      "type": "function"
    },
    {
      "constant": false,
      "inputs": [
        {
          "name": "_title",
          "type": "bytes32"
        },
        {
          "name": "_requestedPrice",
          "type": "uint256"
        }
      ],
      "name": "LinkToTheCatalog",
      "outputs": [],
      "payable": false,
      "stateMutability": "nonpayable",
      "type": "function"
    },
    {
      "constant": true,
      "inputs": [],
      "name": "GetStatistics",
      "outputs": [
        {
          "name": "",
          "type": "bytes32[]"
        },
        {
          "name": "",
          "type": "uint256[]"
        }
      ],
      "payable": false,
      "stateMutability": "view",
      "type": "function"
    },
    {
      "constant": true,
      "inputs": [],
      "name": "GetContentList",
      "outputs": [
        {
          "name": "",
          "type": "bytes32[]"
        }
      ],
      "payable": false,
      "stateMutability": "view",
      "type": "function"
    },
    {
      "constant": true,
      "inputs": [
        {
          "name": "_x",
          "type": "uint256"
        }
      ],
      "name": "GetNewContentsList",
      "outputs": [
        {
          "name": "",
          "type": "bytes32[]"
        }
      ],
      "payable": false,
      "stateMutability": "view",
      "type": "function"
    },
    {
      "constant": true,
      "inputs": [
        {
          "name": "_genre",
          "type": "bytes32"
        }
      ],
      "name": "GetLatestByGenre",
      "outputs": [
        {
          "name": "",
          "type": "bytes32"
        }
      ],
      "payable": false,
      "stateMutability": "view",
      "type": "function"
    },
    {
      "constant": true,
      "inputs": [
        {
          "name": "_genre",
          "type": "bytes32"
        }
      ],
      "name": "GetMostPopularByGenre",
      "outputs": [
        {
          "name": "",
          "type": "bytes32"
        }
      ],
      "payable": false,
      "stateMutability": "view",
      "type": "function"
    },
    {
      "constant": true,
      "inputs": [
        {
          "name": "_author",
          "type": "bytes32"
        }
      ],
      "name": "GetLatestByAuthor",
      "outputs": [
        {
          "name": "",
          "type": "bytes32"
        }
      ],
      "payable": false,
      "stateMutability": "view",
      "type": "function"
    },
    {
      "constant": true,
      "inputs": [
        {
          "name": "_author",
          "type": "bytes32"
        }
      ],
      "name": "GetMostPopularByAuthor",
      "outputs": [
        {
          "name": "",
          "type": "bytes32"
        }
      ],
      "payable": false,
      "stateMutability": "view",
      "type": "function"
    },
    {
      "constant": true,
      "inputs": [
        {
          "name": "_category",
          "type": "uint256"
        }
      ],
      "name": "GetMostRated",
      "outputs": [
        {
          "name": "",
          "type": "bytes32"
        }
      ],
      "payable": false,
      "stateMutability": "view",
      "type": "function"
    },
    {
      "constant": true,
      "inputs": [
        {
          "name": "_genre",
          "type": "bytes32"
        },
        {
          "name": "_category",
          "type": "uint256"
        }
      ],
      "name": "GetMostRatedByGenre",
      "outputs": [
        {
          "name": "",
          "type": "bytes32"
        }
      ],
      "payable": false,
      "stateMutability": "view",
      "type": "function"
    },
    {
      "constant": true,
      "inputs": [
        {
          "name": "_author",
          "type": "bytes32"
        },
        {
          "name": "_category",
          "type": "uint256"
        }
      ],
      "name": "GetMostRatedByAuthor",
      "outputs": [
        {
          "name": "",
          "type": "bytes32"
        }
      ],
      "payable": false,
      "stateMutability": "view",
      "type": "function"
    },
    {
      "constant": true,
      "inputs": [
        {
          "name": "_author",
          "type": "bytes32"
        }
      ],
      "name": "GetMostRatedByAuthor",
      "outputs": [
        {
          "name": "",
          "type": "bytes32"
        }
      ],
      "payable": false,
      "stateMutability": "view",
      "type": "function"
    },
    {
      "constant": false,
      "inputs": [
        {
          "name": "_content",
          "type": "bytes32"
        },
        {
          "name": "_price",
          "type": "uint256"
        },
        {
          "name": "_appreciation",
          "type": "uint256"
        },
        {
          "name": "_quality",
          "type": "uint256"
        }
      ],
      "name": "LeaveFeedback",
      "outputs": [],
      "payable": false,
      "stateMutability": "nonpayable",
      "type": "function"
    },
    {
      "constant": true,
      "inputs": [
        {
          "name": "_user",
          "type": "address"
        }
      ],
      "name": "IsPremium",
      "outputs": [
        {
          "name": "",
          "type": "bool"
        }
      ],
      "payable": false,
      "stateMutability": "view",
      "type": "function"
    },
    {
      "constant": false,
      "inputs": [
        {
          "name": "_content",
          "type": "bytes32"
        }
      ],
      "name": "GetContent",
      "outputs": [
        {
          "name": "",
          "type": "address"
        }
      ],
      "payable": true,
      "stateMutability": "payable",
      "type": "function"
    },
    {
      "constant": false,
      "inputs": [
        {
          "name": "_content",
          "type": "bytes32"
        }
      ],
      "name": "GetContentPremium",
      "outputs": [
        {
          "name": "",
          "type": "address"
        }
      ],
      "payable": false,
      "stateMutability": "nonpayable",
      "type": "function"
    },
    {
      "constant": false,
      "inputs": [
        {
          "name": "_content",
          "type": "bytes32"
        },
        {
          "name": "_user",
          "type": "address"
        }
      ],
      "name": "GiftContent",
      "outputs": [
        {
          "name": "",
          "type": "address"
        }
      ],
      "payable": true,
      "stateMutability": "payable",
      "type": "function"
    },
    {
      "constant": false,
      "inputs": [
        {
          "name": "_user",
          "type": "address"
        }
      ],
      "name": "GiftPremium",
      "outputs": [],
      "payable": true,
      "stateMutability": "payable",
      "type": "function"
    },
    {
      "constant": false,
      "inputs": [],
      "name": "BuyPremium",
      "outputs": [],
      "payable": true,
      "stateMutability": "payable",
      "type": "function"
    },
    {
      "constant": false,
      "inputs": [
        {
          "name": "_content",
          "type": "bytes32"
        }
      ],
      "name": "AddViews",
      "outputs": [],
      "payable": false,
      "stateMutability": "nonpayable",
      "type": "function"
    },
    {
      "constant": false,
      "inputs": [
        {
          "name": "_content",
          "type": "bytes32"
        }
      ],
      "name": "CollectPayment",
      "outputs": [],
      "payable": false,
      "stateMutability": "nonpayable",
      "type": "function"
    },
    {
      "constant": false,
      "inputs": [],
      "name": "CloseCatalog",
      "outputs": [],
      "payable": false,
      "stateMutability": "nonpayable",
      "type": "function"
    }
  ],
  "bytecode": "0x60806040523480156200001157600080fd5b50336000806101000a81548173ffffffffffffffffffffffffffffffffffffffff021916908373ffffffffffffffffffffffffffffffffffffffff16021790555061d21c6001819055506101f4600281905550600560048190555060006005819055506000604051908082528060200260200182016040528015620000a55781602001602082028038833980820191505090505b5060039080519060200190620000bd929190620000c4565b5062000144565b82805482825590600052602060002090810192821562000109579160200282015b8281111562000108578251829060001916905591602001919060010190620000e5565b5b5090506200011891906200011c565b5090565b6200014191905b808211156200013d57600081600090555060010162000123565b5090565b90565b6138eb80620001546000396000f300608060405260043610610174576000357c0100000000000000000000000000000000000000000000000000000000900463ffffffff1680624296571461017957806302d05d3f146101be578063158a33931461021557806315be77241461024657806324b338a21461025d5780632eefa37f1461029857806330654e13146102a25780633a20d676146102cd5780634dc1e1681461033157806351d25fe6146103675780635474a7731461041b5780635ab66bea1461046a5780636cf40725146104c55780638e2b47cd1461051c5780638e500e4f146105695780639eef4471146105da578063aeed4de314610627578063bdac076314610674578063c2ab2651146106cb578063d1628fb0146106f6578063d94cf6e014610778578063d97c0065146107c5578063dd3e046314610836578063e1e8bc3e1461088d578063e61ecdd9146108be578063ef79616c14610907578063f15b363a14610932578063f867cff7146109b6578063ff70f85914610a03575b600080fd5b34801561018557600080fd5b506101a86004803603810190808035600019169060200190929190505050610a6f565b6040518082815260200191505060405180910390f35b3480156101ca57600080fd5b506101d3610b66565b604051808273ffffffffffffffffffffffffffffffffffffffff1673ffffffffffffffffffffffffffffffffffffffff16815260200191505060405180910390f35b34801561022157600080fd5b506102446004803603810190808035600019169060200190929190505050610b8b565b005b34801561025257600080fd5b5061025b610d6e565b005b34801561026957600080fd5b50610296600480360381019080803560001916906020019092919080359060200190929190505050610fde565b005b6102a06111d3565b005b3480156102ae57600080fd5b506102b7611318565b6040518082815260200191505060405180910390f35b6102ef600480360381019080803560001916906020019092919050505061131e565b604051808273ffffffffffffffffffffffffffffffffffffffff1673ffffffffffffffffffffffffffffffffffffffff16815260200191505060405180910390f35b610365600480360381019080803573ffffffffffffffffffffffffffffffffffffffff169060200190929190505050611656565b005b34801561037357600080fd5b5061037c61179c565b604051808060200180602001838103835285818151815260200191508051906020019060200280838360005b838110156103c35780820151818401526020810190506103a8565b50505050905001838103825284818151815260200191508051906020019060200280838360005b838110156104055780820151818401526020810190506103ea565b5050505090500194505050505060405180910390f35b34801561042757600080fd5b50610468600480360381019080803560001916906020019092919080359060200190929190803590602001909291908035906020019092919050505061192d565b005b34801561047657600080fd5b506104ab600480360381019080803573ffffffffffffffffffffffffffffffffffffffff169060200190929190505050612125565b604051808215151515815260200191505060405180910390f35b3480156104d157600080fd5b506104fe6004803603810190808035600019169060200190929190803590602001909291905050506121e0565b60405180826000191660001916815260200191505060405180910390f35b34801561052857600080fd5b5061054b60048036038101908080356000191690602001909291905050506122b7565b60405180826000191660001916815260200191505060405180910390f35b34801561057557600080fd5b50610598600480360381019080803560001916906020019092919050505061249b565b604051808273ffffffffffffffffffffffffffffffffffffffff1673ffffffffffffffffffffffffffffffffffffffff16815260200191505060405180910390f35b3480156105e657600080fd5b5061060960048036038101908080356000191690602001909291905050506125b2565b60405180826000191660001916815260200191505060405180910390f35b34801561063357600080fd5b5061065660048036038101908080356000191690602001909291905050506125da565b60405180826000191660001916815260200191505060405180910390f35b34801561068057600080fd5b506106896127be565b604051808273ffffffffffffffffffffffffffffffffffffffff1673ffffffffffffffffffffffffffffffffffffffff16815260200191505060405180910390f35b3480156106d757600080fd5b506106e06127c6565b6040518082815260200191505060405180910390f35b34801561070257600080fd5b50610721600480360381019080803590602001909291905050506127cc565b6040518080602001828103825283818151815260200191508051906020019060200280838360005b83811015610764578082015181840152602081019050610749565b505050509050019250505060405180910390f35b34801561078457600080fd5b506107a7600480360381019080803560001916906020019092919050505061290e565b60405180826000191660001916815260200191505060405180910390f35b3480156107d157600080fd5b506107f46004803603810190808035600019169060200190929190505050612b5e565b604051808273ffffffffffffffffffffffffffffffffffffffff1673ffffffffffffffffffffffffffffffffffffffff16815260200191505060405180910390f35b34801561084257600080fd5b5061086f600480360381019080803560001916906020019092919080359060200190929190505050612f14565b60405180826000191660001916815260200191505060405180910390f35b34801561089957600080fd5b506108bc6004803603810190808035600019169060200190929190505050612feb565b005b3480156108ca57600080fd5b506108e96004803603810190808035906020019092919050505061325b565b60405180826000191660001916815260200191505060405180910390f35b34801561091357600080fd5b5061091c6132cd565b6040518082815260200191505060405180910390f35b6109746004803603810190808035600019169060200190929190803573ffffffffffffffffffffffffffffffffffffffff1690602001909291905050506132da565b604051808273ffffffffffffffffffffffffffffffffffffffff1673ffffffffffffffffffffffffffffffffffffffff16815260200191505060405180910390f35b3480156109c257600080fd5b506109e56004803603810190808035600019169060200190929190505050613613565b60405180826000191660001916815260200191505060405180910390f35b348015610a0f57600080fd5b50610a18613863565b6040518080602001828103825283818151815260200191508051906020019060200280838360005b83811015610a5b578082015181840152602081019050610a40565b505050509050019250505060405180910390f35b6000816001151560066000836000191660001916815260200190815260200160002060000160149054906101000a900460ff161515141515610b3f576040517f08c379a00000000000000000000000000000000000000000000000000000000081526004018080602001828103825260228152602001807f436f6e74656e74206e6f74206c696e6b656420746f2074686520636174616c6f81526020017f672100000000000000000000000000000000000000000000000000000000000081525060400191505060405180910390fd5b60066000846000191660001916815260200190815260200160002060050154915050919050565b6000809054906101000a900473ffffffffffffffffffffffffffffffffffffffff1681565b803373ffffffffffffffffffffffffffffffffffffffff1660066000836000191660001916815260200190815260200160002060000160009054906101000a900473ffffffffffffffffffffffffffffffffffffffff1673ffffffffffffffffffffffffffffffffffffffff16141515610c93576040517f08c379a00000000000000000000000000000000000000000000000000000000081526004018080602001828103825260298152602001807f416374696f6e20616c6c6f776564206f6e6c7920666f7220636f6e74656e742081526020017f636f6e747261637421000000000000000000000000000000000000000000000081525060400191505060405180910390fd5b600660008360001916600019168152602001908152602001600020600201600081548092919060010191905055506006600083600019166000191681526020019081526020016000206003016000815480929190600101919050555060056000815480929190600101919050555060045460066000846000191660001916815260200190815260200160002060030154101515610d6a577fac155b80ac99b053a7aac59e5b6ef8a6b1624bab8eccc8682dcdf624d3408c828260405180826000191660001916815260200191505060405180910390a15b5050565b6000806000809054906101000a900473ffffffffffffffffffffffffffffffffffffffff1673ffffffffffffffffffffffffffffffffffffffff163373ffffffffffffffffffffffffffffffffffffffff16141515610e5b576040517f08c379a000000000000000000000000000000000000000000000000000000000815260040180806020018281038252602e8152602001807f4f6e6c7920436174616c6f672063726561746f7220636f756c6420706572666f81526020017f726d207468697320616374696f6e00000000000000000000000000000000000081525060400191505060405180910390fd5b600091505b600380549050821015610fa45760055460066000600385815481101515610e8357fe5b906000526020600020015460001916600019168152602001908152602001600020600201543073ffffffffffffffffffffffffffffffffffffffff163102811515610eca57fe5b04905060066000600384815481101515610ee057fe5b90600052602060002001546000191660001916815260200190815260200160002060000160009054906101000a900473ffffffffffffffffffffffffffffffffffffffff1673ffffffffffffffffffffffffffffffffffffffff166108fc829081150290604051600060405180830381858888f19350505050158015610f6a573d6000803e3d6000fd5b507f35dddbe5f23861a143d6b86a203158d3665e134051f4903d5971c8f2c041b7de60405160405180910390a18180600101925050610e60565b6000809054906101000a900473ffffffffffffffffffffffffffffffffffffffff1673ffffffffffffffffffffffffffffffffffffffff16ff5b60038290806001815401808255809150509060018203906000526020600020016000909192909190915090600019169055503360066000846000191660001916815260200190815260200160002060000160006101000a81548173ffffffffffffffffffffffffffffffffffffffff021916908373ffffffffffffffffffffffffffffffffffffffff1602179055503360066000846000191660001916815260200190815260200160002060010160006101000a81548173ffffffffffffffffffffffffffffffffffffffff021916908373ffffffffffffffffffffffffffffffffffffffff160217905550600060066000846000191660001916815260200190815260200160002060020181905550600060066000846000191660001916815260200190815260200160002060030181905550600160066000846000191660001916815260200190815260200160002060000160146101000a81548160ff02191690831515021790555060006006600084600019166000191681526020019081526020016000206004018190555080600660008460001916600019168152602001908152602001600020600501819055507f3e0a228e5d21027cd505a00bf02ca745bf685f1e76457509bf3261b6040083338260405180826000191660001916815260200191505060405180910390a15050565b6002548034141515611273576040517f08c379a000000000000000000000000000000000000000000000000000000000815260040180806020018281038252602b8152602001807f596f75206469646e2774207061792074686520636f727265637420616d6f756e81526020017f74206f66206d6f6e65792100000000000000000000000000000000000000000081525060400191505060405180910390fd5b6001600760003373ffffffffffffffffffffffffffffffffffffffff1673ffffffffffffffffffffffffffffffffffffffff16815260200190815260200160002060000160006101000a81548160ff02191690831515021790555043600760003373ffffffffffffffffffffffffffffffffffffffff1673ffffffffffffffffffffffffffffffffffffffff1681526020019081526020016000206001018190555050565b60025481565b60006006600083600019166000191681526020019081526020016000206005015480341415156113dc576040517f08c379a000000000000000000000000000000000000000000000000000000000815260040180806020018281038252602b8152602001807f596f75206469646e2774207061792074686520636f727265637420616d6f756e81526020017f74206f66206d6f6e65792100000000000000000000000000000000000000000081525060400191505060405180910390fd5b826001151560066000836000191660001916815260200190815260200160002060000160149054906101000a900460ff1615151415156114aa576040517f08c379a00000000000000000000000000000000000000000000000000000000081526004018080602001828103825260228152602001807f436f6e74656e74206e6f74206c696e6b656420746f2074686520636174616c6f81526020017f672100000000000000000000000000000000000000000000000000000000000081525060400191505060405180910390fd5b60066000856000191660001916815260200190815260200160002060010160009054906101000a900473ffffffffffffffffffffffffffffffffffffffff1673ffffffffffffffffffffffffffffffffffffffff16630ae5e739336040518263ffffffff167c0100000000000000000000000000000000000000000000000000000000028152600401808273ffffffffffffffffffffffffffffffffffffffff1673ffffffffffffffffffffffffffffffffffffffff168152602001915050600060405180830381600087803b15801561158357600080fd5b505af1158015611597573d6000803e3d6000fd5b505050507ff20afd7b032307b01752ee91e3f6a4b83a5b4ab631f9ab279322fd45634382c084336040518083600019166000191681526020018273ffffffffffffffffffffffffffffffffffffffff1673ffffffffffffffffffffffffffffffffffffffff1681526020019250505060405180910390a160066000856000191660001916815260200190815260200160002060000160009054906101000a900473ffffffffffffffffffffffffffffffffffffffff1692505050919050565b60025480341415156116f6576040517f08c379a000000000000000000000000000000000000000000000000000000000815260040180806020018281038252602b8152602001807f596f75206469646e2774207061792074686520636f727265637420616d6f756e81526020017f74206f66206d6f6e65792100000000000000000000000000000000000000000081525060400191505060405180910390fd5b6001600760008473ffffffffffffffffffffffffffffffffffffffff1673ffffffffffffffffffffffffffffffffffffffff16815260200190815260200160002060000160006101000a81548160ff02191690831515021790555043600760008473ffffffffffffffffffffffffffffffffffffffff1673ffffffffffffffffffffffffffffffffffffffff168152602001908152602001600020600101819055505050565b606080606060008060038054905014151515611820576040517f08c379a00000000000000000000000000000000000000000000000000000000081526004018080602001828103825260168152602001807f436f6e74656e74206c69737420697320656d707479210000000000000000000081525060200191505060405180910390fd5b6003805490506040519080825280602002602001820160405280156118545781602001602082028038833980820191505090505b509150600090505b6003805490508110156118ca576006600060038381548110151561187c57fe5b9060005260206000200154600019166000191681526020019081526020016000206002015482828151811015156118af57fe5b9060200190602002018181525050808060010191505061185c565b6003828180548060200260200160405190810160405280929190818152602001828054801561191c57602002820191906000526020600020905b81546000191681526020019060010190808311611904575b505050505091509350935050509091565b60008060008660066000826000191660001916815260200190815260200160002060010160009054906101000a900473ffffffffffffffffffffffffffffffffffffffff1673ffffffffffffffffffffffffffffffffffffffff16632731ebd8336040518263ffffffff167c0100000000000000000000000000000000000000000000000000000000028152600401808273ffffffffffffffffffffffffffffffffffffffff1673ffffffffffffffffffffffffffffffffffffffff168152602001915050602060405180830381600087803b158015611a0c57600080fd5b505af1158015611a20573d6000803e3d6000fd5b505050506040513d6020811015611a3657600080fd5b81019080805190602001909291905050501515611b07576040517f08c379a00000000000000000000000000000000000000000000000000000000081526004018080602001828103825260428152602001807f596f752063616e206c65617665206120666565646261636b206f6e6c7920696681526020017f20796f7520616c726561647920636f6e73756d65642074686520636f6e74656e81526020017f742100000000000000000000000000000000000000000000000000000000000081525060600191505060405180910390fd5b60038587890101811515611b1757fe5b04935060066000896000191660001916815260200190815260200160002060010160009054906101000a900473ffffffffffffffffffffffffffffffffffffffff1673ffffffffffffffffffffffffffffffffffffffff1663a6c3e6b96040518163ffffffff167c0100000000000000000000000000000000000000000000000000000000028152600401602060405180830381600087803b158015611bbc57600080fd5b505af1158015611bd0573d6000803e3d6000fd5b505050506040513d6020811015611be657600080fd5b8101908080519060200190929190505050925060066000896000191660001916815260200190815260200160002060010160009054906101000a900473ffffffffffffffffffffffffffffffffffffffff1673ffffffffffffffffffffffffffffffffffffffff166317de3a416040518163ffffffff167c0100000000000000000000000000000000000000000000000000000000028152600401602060405180830381600087803b158015611c9b57600080fd5b505af1158015611caf573d6000803e3d6000fd5b505050506040513d6020811015611cc557600080fd5b8101908080519060200190929190505050915083600660008a6000191660001916815260200190815260200160002060040181905550836008600101541015611d21578360086001018190555087600860000181600019169055505b866008600301541015611d47578660086003018190555087600860020181600019169055505b846008600501541015611d6d578460086005018190555087600860040181600019169055505b856008600701541015611d93578560086007018190555087600860060181600019169055505b83601160008460001916600019168152602001908152602001600020600101541015611e045783601160008460001916600019168152602001908152602001600020600101819055508760116000846000191660001916815260200190815260200160002060000181600019169055505b86601160008460001916600019168152602001908152602001600020600301541015611e755786601160008460001916600019168152602001908152602001600020600301819055508760116000846000191660001916815260200190815260200160002060020181600019169055505b84601160008460001916600019168152602001908152602001600020600501541015611ee65784601160008460001916600019168152602001908152602001600020600501819055508760116000846000191660001916815260200190815260200160002060040181600019169055505b85601160008460001916600019168152602001908152602001600020600701541015611f575785601160008460001916600019168152602001908152602001600020600701819055508760116000846000191660001916815260200190815260200160002060060181600019169055505b83601060008560001916600019168152602001908152602001600020600101541015611fc85783601060008560001916600019168152602001908152602001600020600101819055508760106000856000191660001916815260200190815260200160002060000181600019169055505b866010600085600019166000191681526020019081526020016000206003015410156120395786601060008560001916600019168152602001908152602001600020600301819055508760106000856000191660001916815260200190815260200160002060020181600019169055505b846010600085600019166000191681526020019081526020016000206005015410156120aa5784601060008560001916600019168152602001908152602001600020600501819055508760106000856000191660001916815260200190815260200160002060040181600019169055505b8560106000856000191660001916815260200190815260200160002060070154101561211b5785601060008560001916600019168152602001908152602001600020600701819055508760106000856000191660001916815260200190815260200160002060060181600019169055505b5050505050505050565b6000600760008373ffffffffffffffffffffffffffffffffffffffff1673ffffffffffffffffffffffffffffffffffffffff16815260200190815260200160002060000160009054906101000a900460ff1680156121c8575043600154600760008573ffffffffffffffffffffffffffffffffffffffff1673ffffffffffffffffffffffffffffffffffffffff1681526020019081526020016000206001015401115b156121d657600190506121db565b600090505b919050565b60008060038111156121ee57fe5b82141561221b576010600084600019166000191681526020019081526020016000206000015490506122b1565b6001600381111561222857fe5b821415612255576010600084600019166000191681526020019081526020016000206006015490506122b1565b6002600381111561226257fe5b82141561228f576010600084600019166000191681526020019081526020016000206004015490506122b1565b6010600084600019166000191681526020019081526020016000206002015490505b92915050565b60008060008060038054905014151515612339576040517f08c379a00000000000000000000000000000000000000000000000000000000081526004018080602001828103825260168152602001807f436f6e74656e74206c69737420697320656d707479210000000000000000000081525060200191505060405180910390fd5b60016003805490500390505b6000811015156124915783600019166006600060038481548110151561236757fe5b90600052602060002001546000191660001916815260200190815260200160002060010160009054906101000a900473ffffffffffffffffffffffffffffffffffffffff1673ffffffffffffffffffffffffffffffffffffffff166317de3a416040518163ffffffff167c0100000000000000000000000000000000000000000000000000000000028152600401602060405180830381600087803b15801561240f57600080fd5b505af1158015612423573d6000803e3d6000fd5b505050506040513d602081101561243957600080fd5b81019080805190602001909291905050506000191614156124755760038181548110151561246357fe5b90600052602060002001549150612491565b600081141561248357612491565b808060019003915050612345565b8192505050919050565b6000816001151560066000836000191660001916815260200190815260200160002060000160149054906101000a900460ff16151514151561256b576040517f08c379a00000000000000000000000000000000000000000000000000000000081526004018080602001828103825260228152602001807f436f6e74656e74206e6f74206c696e6b656420746f2074686520636174616c6f81526020017f672100000000000000000000000000000000000000000000000000000000000081525060400191505060405180910390fd5b60066000846000191660001916815260200190815260200160002060000160009054906101000a900473ffffffffffffffffffffffffffffffffffffffff16915050919050565b6000601060008360001916600019168152602001908152602001600020600001549050919050565b6000806000806003805490501415151561265c576040517f08c379a00000000000000000000000000000000000000000000000000000000081526004018080602001828103825260168152602001807f436f6e74656e74206c69737420697320656d707479210000000000000000000081525060200191505060405180910390fd5b60016003805490500390505b6000811015156127b45783600019166006600060038481548110151561268a57fe5b90600052602060002001546000191660001916815260200190815260200160002060010160009054906101000a900473ffffffffffffffffffffffffffffffffffffffff1673ffffffffffffffffffffffffffffffffffffffff1663a6c3e6b96040518163ffffffff167c0100000000000000000000000000000000000000000000000000000000028152600401602060405180830381600087803b15801561273257600080fd5b505af1158015612746573d6000803e3d6000fd5b505050506040513d602081101561275c57600080fd5b81019080805190602001909291905050506000191614156127985760038181548110151561278657fe5b906000526020600020015491506127b4565b60008114156127a6576127b4565b808060019003915050612668565b8192505050919050565b600030905090565b60045481565b606080600080600060038054905014151515612850576040517f08c379a00000000000000000000000000000000000000000000000000000000081526004018080602001828103825260168152602001807f436f6e74656e74206c69737420697320656d707479210000000000000000000081525060200191505060405180910390fd5b8460405190808252806020026020018201604052801561287f5781602001602082028038833980820191505090505b50925060016003805490500391506001850390505b600081101515612903576003828154811015156128ad57fe5b906000526020600020015483828151811015156128c657fe5b90602001906020020190600019169081600019168152505081806001900392505060008114156128f557612903565b808060019003915050612894565b829350505050919050565b600080600080600060038054905014151515612992576040517f08c379a00000000000000000000000000000000000000000000000000000000081526004018080602001828103825260168152602001807f436f6e74656e74206c69737420697320656d707479210000000000000000000081525060200191505060405180910390fd5b60009250600090505b600380549050811015612b53578460001916600660006003848154811015156129c057fe5b90600052602060002001546000191660001916815260200190815260200160002060010160009054906101000a900473ffffffffffffffffffffffffffffffffffffffff1673ffffffffffffffffffffffffffffffffffffffff1663a6c3e6b96040518163ffffffff167c0100000000000000000000000000000000000000000000000000000000028152600401602060405180830381600087803b158015612a6857600080fd5b505af1158015612a7c573d6000803e3d6000fd5b505050506040513d6020811015612a9257600080fd5b810190808051906020019092919050505060001916148015612aea57508260066000600384815481101515612ac357fe5b90600052602060002001546000191660001916815260200190815260200160002060020154115b15612b465760066000600383815481101515612b0257fe5b906000526020600020015460001916600019168152602001908152602001600020600201549250600381815481101515612b3857fe5b906000526020600020015491505b808060010191505061299b565b819350505050919050565b6000600760003373ffffffffffffffffffffffffffffffffffffffff1673ffffffffffffffffffffffffffffffffffffffff16815260200190815260200160002060000160009054906101000a900460ff168015612c01575043600154600760003373ffffffffffffffffffffffffffffffffffffffff1673ffffffffffffffffffffffffffffffffffffffff1681526020019081526020016000206001015401115b1515612c9b576040517f08c379a00000000000000000000000000000000000000000000000000000000081526004018080602001828103825260268152602001807f416363657373207265737472696374656420746f205072656d69756d2061636381526020017f6f756e747321000000000000000000000000000000000000000000000000000081525060400191505060405180910390fd5b816001151560066000836000191660001916815260200190815260200160002060000160149054906101000a900460ff161515141515612d69576040517f08c379a00000000000000000000000000000000000000000000000000000000081526004018080602001828103825260228152602001807f436f6e74656e74206e6f74206c696e6b656420746f2074686520636174616c6f81526020017f672100000000000000000000000000000000000000000000000000000000000081525060400191505060405180910390fd5b60066000846000191660001916815260200190815260200160002060010160009054906101000a900473ffffffffffffffffffffffffffffffffffffffff1673ffffffffffffffffffffffffffffffffffffffff16630ae5e739336040518263ffffffff167c0100000000000000000000000000000000000000000000000000000000028152600401808273ffffffffffffffffffffffffffffffffffffffff1673ffffffffffffffffffffffffffffffffffffffff168152602001915050600060405180830381600087803b158015612e4257600080fd5b505af1158015612e56573d6000803e3d6000fd5b505050507ff20afd7b032307b01752ee91e3f6a4b83a5b4ab631f9ab279322fd45634382c083336040518083600019166000191681526020018273ffffffffffffffffffffffffffffffffffffffff1673ffffffffffffffffffffffffffffffffffffffff1681526020019250505060405180910390a160066000846000191660001916815260200190815260200160002060000160009054906101000a900473ffffffffffffffffffffffffffffffffffffffff16915050919050565b6000806003811115612f2257fe5b821415612f4f57601160008460001916600019168152602001908152602001600020600001549050612fe5565b60016003811115612f5c57fe5b821415612f8957601160008460001916600019168152602001908152602001600020600601549050612fe5565b60026003811115612f9657fe5b821415612fc357601160008460001916600019168152602001908152602001600020600401549050612fe5565b6011600084600019166000191681526020019081526020016000206002015490505b92915050565b806004546006600083600019166000191681526020019081526020016000206003015410151515613084576040517f08c379a000000000000000000000000000000000000000000000000000000000815260040180806020018281038252601c8152602001807f4e6f20766965777320656e6f75676820746f206265207061796564210000000081525060200191505060405180910390fd5b813373ffffffffffffffffffffffffffffffffffffffff1660066000836000191660001916815260200190815260200160002060000160009054906101000a900473ffffffffffffffffffffffffffffffffffffffff1673ffffffffffffffffffffffffffffffffffffffff1614151561318c576040517f08c379a00000000000000000000000000000000000000000000000000000000081526004018080602001828103825260298152602001807f416374696f6e20616c6c6f776564206f6e6c7920666f7220636f6e74656e742081526020017f636f6e747261637421000000000000000000000000000000000000000000000081525060400191505060405180910390fd5b3373ffffffffffffffffffffffffffffffffffffffff166108fc6006600086600019166000191681526020019081526020016000206005015460066000876000191660001916815260200190815260200160002060040154029081150290604051600060405180830381858888f19350505050158015613210573d6000803e3d6000fd5b50600454600660008560001916600019168152602001908152602001600020600301540360066000856000191660001916815260200190815260200160002060030181905550505050565b600080600381111561326957fe5b82141561327d5760086000015490506132c8565b6001600381111561328a57fe5b82141561329e5760086006015490506132c8565b600260038111156132ab57fe5b8214156132bf5760086004015490506132c8565b60086002015490505b919050565b6000600380549050905090565b6000600660008460001916600019168152602001908152602001600020600501548034141515613398576040517f08c379a000000000000000000000000000000000000000000000000000000000815260040180806020018281038252602b8152602001807f596f75206469646e2774207061792074686520636f727265637420616d6f756e81526020017f74206f66206d6f6e65792100000000000000000000000000000000000000000081525060400191505060405180910390fd5b836001151560066000836000191660001916815260200190815260200160002060000160149054906101000a900460ff161515141515613466576040517f08c379a00000000000000000000000000000000000000000000000000000000081526004018080602001828103825260228152602001807f436f6e74656e74206e6f74206c696e6b656420746f2074686520636174616c6f81526020017f672100000000000000000000000000000000000000000000000000000000000081525060400191505060405180910390fd5b60066000866000191660001916815260200190815260200160002060010160009054906101000a900473ffffffffffffffffffffffffffffffffffffffff1673ffffffffffffffffffffffffffffffffffffffff16630ae5e739856040518263ffffffff167c0100000000000000000000000000000000000000000000000000000000028152600401808273ffffffffffffffffffffffffffffffffffffffff1673ffffffffffffffffffffffffffffffffffffffff168152602001915050600060405180830381600087803b15801561353f57600080fd5b505af1158015613553573d6000803e3d6000fd5b505050507ff20afd7b032307b01752ee91e3f6a4b83a5b4ab631f9ab279322fd45634382c085856040518083600019166000191681526020018273ffffffffffffffffffffffffffffffffffffffff1673ffffffffffffffffffffffffffffffffffffffff1681526020019250505060405180910390a160066000866000191660001916815260200190815260200160002060000160009054906101000a900473ffffffffffffffffffffffffffffffffffffffff169250505092915050565b600080600080600060038054905014151515613697576040517f08c379a00000000000000000000000000000000000000000000000000000000081526004018080602001828103825260168152602001807f436f6e74656e74206c69737420697320656d707479210000000000000000000081525060200191505060405180910390fd5b60009250600090505b600380549050811015613858578460001916600660006003848154811015156136c557fe5b90600052602060002001546000191660001916815260200190815260200160002060010160009054906101000a900473ffffffffffffffffffffffffffffffffffffffff1673ffffffffffffffffffffffffffffffffffffffff166317de3a416040518163ffffffff167c0100000000000000000000000000000000000000000000000000000000028152600401602060405180830381600087803b15801561376d57600080fd5b505af1158015613781573d6000803e3d6000fd5b505050506040513d602081101561379757600080fd5b8101908080519060200190929190505050600019161480156137ef575082600660006003848154811015156137c857fe5b90600052602060002001546000191660001916815260200190815260200160002060020154115b1561384b576006600060038381548110151561380757fe5b90600052602060002001546000191660001916815260200190815260200160002060020154925060038181548110151561383d57fe5b906000526020600020015491505b80806001019150506136a0565b819350505050919050565b606060038054806020026020016040519081016040528092919081815260200182805480156138b557602002820191906000526020600020905b8154600019168152602001906001019080831161389d575b50505050509050905600a165627a7a72305820826a78bfe88c1e5c3074c766b07adb5eae1f6ac1ee2be62ba8a9d5cd65e29ccd0029",
  "source": "pragma solidity ^0.4.23;\nimport \"./BaseContentManagement.sol\";\n\ncontract Catalog {\n    address public creator;\n    uint premiumTime;\n    uint public premiumPrice;\n    bytes32[] contentList;\n    uint public paymentDelay;\n    uint allTheViews;\n\n    struct ContentMetadata{\n        address authorAddress;\n        bool isLinked;\n        BaseContentManagement content;\n        uint views;\n        uint viewsSincePayed;\n        uint averageRating;\n        uint requestedPrice;\n    }\n\n    mapping(bytes32 => ContentMetadata) addedContents;\n\n    constructor() public{\n        creator = msg.sender;\n        /* 1 day = (24 h * 60 min * 60 sec) / 14.93 seconds per block = 53788 blocks */\n        premiumTime = 53788;\n        premiumPrice = 500;\n        paymentDelay = 5;\n        allTheViews = 0;\n        contentList = new bytes32[](0);\n    }\n\n    /* events */\n    event AccessGranted(bytes32 _content, address _user);\n    event NewLinkedContent(bytes32 _content);\n    event PaymentAvailable(bytes32 _content);\n    event ClosedCatalog();\n\n    struct PremiumInfo{\n        bool isPremium;\n        uint blockNum;\n    }\n\n    /* user address => block number of premium subscription*/\n    mapping (address => PremiumInfo) premiumUsers;\n\n    enum Category {none, appreciation, quality, price}\n\n    /*\n    Content feedback includes 3 categories: appreciation of the content, content quality and price fairness.\n    Each category could be rated with a score from 0 to 5.\n    So maximum rating is 5*3=15.\n    */\n    struct MostRated{\n        bytes32 average;\n        uint averageValue;\n        bytes32 price;\n        uint priceValue;\n        bytes32 quality;\n        uint qualityValue;\n        bytes32 appreciation;\n        uint appreciationValue;\n    }\n\n    MostRated mostRated;\n    mapping (bytes32 => MostRated) authorToMostRated;\n    mapping (bytes32 => MostRated) genreToMostRated;\n\n    /* modifier to restrict a functionality only to Premium users */\n    modifier restrictToPremium{\n        require(\n            premiumUsers[msg.sender].isPremium &&\n            (premiumUsers[msg.sender].blockNum + premiumTime) > block.number,\n            \"Access restricted to Premium accounts!\"\n        );\n        _;\n    }\n\n    modifier ifLinkedContent(bytes32 _content){\n        require(\n            addedContents[_content].isLinked == true,\n            \"Content not linked to the catalog!\"\n        );\n        _;\n    }\n\n    /* Functionalities restricted to catalog creator only */\n    modifier onlyCreator{\n        require(\n            msg.sender == creator,\n            \"Only Catalog creator could perform this action\"\n        );\n        _;\n    }\n\n    /* Check that the caller is the content */\n    modifier onlyContent(bytes32 _content){\n        require(\n            addedContents[_content].authorAddress == msg.sender,\n            \"Action allowed only for content contract!\"  \n        );\n        _;\n    }\n\n    /* Check content views */\n    modifier checkViews(bytes32 _content){\n        require(\n            addedContents[_content].viewsSincePayed >= paymentDelay,\n            \"No views enough to be payed!\"\n        );\n        _;\n    }\n\n    /* Check payment value: transaction refused if value < amount and if value > amount */\n    modifier costs(uint _amount){\n        require(\n            msg.value == _amount,\n            \"You didn't pay the correct amount of money!\"\n        );\n        _;\n    }\n\n    /* Check if the content list is empty */\n    modifier ifNotEmpty{\n        require(\n            contentList.length != 0,\n            \"Content list is empty!\"\n        );\n        _;\n    }\n\n    /* Check if an user already consumed a certain content */\n    modifier onlyIfConsumed(bytes32 _content){\n        require(\n            addedContents[_content].content.hasConsumed(msg.sender),\n            \"You can leave a feedback only if you already consumed the content!\"\n            );\n        _;\n    }\n\n    function getContentPrice(bytes32 _title) external view ifLinkedContent(_title) returns(uint){\n        return addedContents[_title].requestedPrice;\n    }\n\n    function GetContentAddress(bytes32 _title) external view ifLinkedContent(_title) returns(address){\n        return address(addedContents[_title].authorAddress);\n    }\n\n    function getCatalogAddress() external view returns(address){\n        return address(this);\n    }\n\n    function NumberOfLinkedContents() external view returns(uint){\n        return uint(contentList.length);\n    }\n\n    function LinkToTheCatalog(bytes32 _title, uint _requestedPrice) external {\n        contentList.push(_title);\n        addedContents[_title].authorAddress = msg.sender;\n        addedContents[_title].content = BaseContentManagement(msg.sender);\n        addedContents[_title].views = 0;\n        addedContents[_title].viewsSincePayed = 0;\n        addedContents[_title].isLinked = true;\n        addedContents[_title].averageRating = 0;\n        addedContents[_title].requestedPrice = _requestedPrice;\n        emit NewLinkedContent(_title);\n    }\n\n    function GetStatistics() external view ifNotEmpty returns (bytes32[], uint[]) {\n        uint[] memory views = new uint[](contentList.length);\n        for(uint i = 0; i < contentList.length; i++){\n            views[i] = addedContents[contentList[i]].views;\n        }\n        return (contentList, views);\n    }\n\n    function GetContentList() external view returns (bytes32[]) {\n        return contentList;\n    }\n\n    function GetNewContentsList(uint _x) external view ifNotEmpty returns (bytes32[]){\n        bytes32[] memory latests = new bytes32[](_x);\n        uint j = contentList.length - 1;\n        for (uint i = _x - 1; i>=0; i--){\n            latests[i] = contentList[j];\n            j--;\n            if(i==0) break;\n        }\n        return latests;\n    }\n\n    function GetLatestByGenre(bytes32 _genre) external view ifNotEmpty returns (bytes32){\n        bytes32 tmp;\n        for (uint i = contentList.length - 1; i>=0; i--){\n            if (addedContents[contentList[i]].content.genre() == _genre){\n                tmp = contentList[i];\n                break;\n            }\n            if(i == 0)\n                break;\n        }\n        return tmp;\n    }\n\n    function GetMostPopularByGenre(bytes32 _genre) external view ifNotEmpty returns (bytes32){\n        uint max = 0;\n        bytes32 tmp;\n        for(uint i = 0; i<contentList.length; i++){\n            if(addedContents[contentList[i]].content.genre() == _genre && \n            addedContents[contentList[i]].views > max){\n                max = addedContents[contentList[i]].views;\n                tmp = contentList[i];\n            }\n        }\n        return tmp;\n    }\n\n    function GetLatestByAuthor(bytes32 _author) external view ifNotEmpty returns (bytes32){\n        bytes32 tmp;\n        for (uint i = contentList.length - 1; i>=0; i--){\n            if (addedContents[contentList[i]].content.author() == _author){\n                tmp = contentList[i];\n                break;\n            }\n            if(i == 0)\n                break;\n        }\n        return tmp;\n\n    }\n\n    function GetMostPopularByAuthor(bytes32 _author) external view ifNotEmpty returns(bytes32){\n        uint max = 0;\n        bytes32 tmp;\n        for(uint i = 0; i<contentList.length; i++){\n            if(addedContents[contentList[i]].content.author() == _author &&\n            addedContents[contentList[i]].views > max){\n                max = addedContents[contentList[i]].views;\n                tmp = contentList[i];\n            }\n        }\n        return tmp;\n    }\n\n    /* Returns the title of the most rated content according to a certain category\n    (category is \"none\"  if not specified by the user and returns the average) */\n    function GetMostRated(uint _category) external view returns(bytes32){\n        if(_category == uint(Category.none)) return mostRated.average;\n        else if (_category == uint(Category.appreciation)) return mostRated.appreciation;\n        else if (_category == uint(Category.quality)) return mostRated.quality;  \n        else return mostRated.price;\n    }\n\n    /* Returns the title of the most rated content  with a specific genre according to a certain category\n    (category is \"none\"  if not specified by the user and returns the average) */\n    function GetMostRatedByGenre(bytes32 _genre, uint _category) external view returns(bytes32){\n        if(_category == uint(Category.none)) return genreToMostRated[_genre].average;\n        else if (_category == uint(Category.appreciation)) return genreToMostRated[_genre].appreciation;\n        else if (_category == uint(Category.quality)) return genreToMostRated[_genre].quality;  \n        else return genreToMostRated[_genre].price;\n    }\n\n    function GetMostRatedByAuthor(bytes32 _author) external view returns(bytes32){\n        return authorToMostRated[_author].average;\n    }\n\n    function GetMostRatedByAuthor(bytes32 _author, uint _category) external view returns(bytes32){\n        if(_category == uint(Category.none)) return authorToMostRated[_author].average;\n        else if (_category == uint(Category.appreciation)) return authorToMostRated[_author].appreciation;\n        else if (_category == uint(Category.quality)) return authorToMostRated[_author].quality;  \n        else return authorToMostRated[_author].price;\n    }\n\n    function LeaveFeedback(bytes32 _content, uint _price, uint _appreciation, uint _quality) external onlyIfConsumed(_content){\n        uint average = (_price + _appreciation + _quality) / 3;\n        bytes32 author = addedContents[_content].content.author();\n        bytes32 genre = addedContents[_content].content.genre();\n        /* for price base value */\n        addedContents[_content].averageRating = average;\n\n        /* absolute */\n\n        /* no category */\n        if(mostRated.averageValue < average){\n            mostRated.averageValue = average;\n            mostRated.average = _content;    \n        }\n        /* price fairness */\n        if(mostRated.priceValue < _price){\n            mostRated.priceValue = _price;\n            mostRated.price = _content;\n        }\n        /* content quality */\n        if(mostRated.qualityValue < _quality){\n            mostRated.qualityValue = _quality;\n            mostRated.quality = _content;\n        }\n        /* appreciation of the content */\n        if(mostRated.appreciationValue < _appreciation){\n            mostRated.appreciationValue = _appreciation;\n            mostRated.appreciation = _content;\n        }\n\n        /* genre */\n\n        /* no category */\n        if(genreToMostRated[genre].averageValue < average){\n            genreToMostRated[genre].averageValue = average;\n            genreToMostRated[genre].average = _content;    \n        }\n        /* price fairness */\n        if(genreToMostRated[genre].priceValue < _price){\n            genreToMostRated[genre].priceValue = _price;\n            genreToMostRated[genre].price = _content;\n        }\n        /* content quality */\n        if(genreToMostRated[genre].qualityValue < _quality){\n            genreToMostRated[genre].qualityValue = _quality;\n            genreToMostRated[genre].quality = _content;\n        }\n        /* appreciation of the content */\n        if(genreToMostRated[genre].appreciationValue < _appreciation){\n            genreToMostRated[genre].appreciationValue = _appreciation;\n            genreToMostRated[genre].appreciation = _content;\n        }\n\n        /* author */\n\n        /* no category */\n        if(authorToMostRated[author].averageValue < average){\n            authorToMostRated[author].averageValue = average;\n            authorToMostRated[author].average = _content;    \n        }\n        /* price fairness */\n        if(authorToMostRated[author].priceValue < _price){\n            authorToMostRated[author].priceValue = _price;\n            authorToMostRated[author].price = _content;\n        }\n        /* content quality */\n        if(authorToMostRated[author].qualityValue < _quality){\n            authorToMostRated[author].qualityValue = _quality;\n            authorToMostRated[author].quality = _content;\n        }\n        /* appreciation of the content */\n        if(authorToMostRated[author].appreciationValue < _appreciation){\n            authorToMostRated[author].appreciationValue = _appreciation;\n            authorToMostRated[author].appreciation = _content;\n        }\n    }\n\n    function IsPremium(address _user) external view returns (bool){\n        if(premiumUsers[_user].isPremium && \n        (premiumUsers[_user].blockNum + premiumTime > block.number))\n        return true;\n        else return false;\n    }\n\n    function GetContent(bytes32 _content) external payable costs(addedContents[_content].requestedPrice)\n        ifLinkedContent(_content) returns (address){\n        addedContents[_content].content.grantAccess(msg.sender);\n        emit AccessGranted(_content, msg.sender);\n        return addedContents[_content].authorAddress;\n    }\n\n    function GetContentPremium(bytes32 _content) external restrictToPremium  ifLinkedContent(_content) returns (address){\n        addedContents[_content].content.grantAccess(msg.sender);\n        emit AccessGranted(_content, msg.sender);\n        return addedContents[_content].authorAddress;\n    }\n\n    function GiftContent(bytes32 _content, address _user) external payable costs(addedContents[_content].requestedPrice)\n        ifLinkedContent(_content) returns(address){\n        addedContents[_content].content.grantAccess(_user);\n        emit AccessGranted(_content, _user);\n        return addedContents[_content].authorAddress;\n    }\n\n    function GiftPremium(address _user) external payable costs(premiumPrice) {\n        premiumUsers[_user].isPremium = true;\n        premiumUsers[_user].blockNum = block.number;\n    }\n\n    function BuyPremium() external payable costs(premiumPrice){\n        premiumUsers[msg.sender].isPremium = true;\n        premiumUsers[msg.sender].blockNum = block.number;\n    }\n\n    /* Add views to a content and emit an event if it reaches the views for a payment */\n    function AddViews(bytes32 _content) external onlyContent(_content){\n        addedContents[_content].views++;\n        addedContents[_content].viewsSincePayed++;\n        allTheViews++;\n        if(addedContents[_content].viewsSincePayed >= paymentDelay)\n            emit PaymentAvailable(_content);\n    }\n\n    // @notice to be simulated manually for the moment, with the frontend there will be a callback\n    function CollectPayment(bytes32 _content) external checkViews(_content) onlyContent(_content) {\n        msg.sender.transfer(addedContents[_content].averageRating * addedContents[_content].requestedPrice);\n        /* #views to be payed = #views since last time - #views payed this time \n            So no views are are lost between the notification of available payment and collecting the payment */\n        addedContents[_content].viewsSincePayed = addedContents[_content].viewsSincePayed - paymentDelay; \n    }\n\n    function CloseCatalog() external onlyCreator{\n        for(uint i = 0; i<contentList.length; i++){\n            uint toTransfer = address(this).balance * addedContents[contentList[i]].views / allTheViews;\n            addedContents[contentList[i]].authorAddress.transfer(toTransfer);\n            emit ClosedCatalog();\n        }\n        selfdestruct(creator);\n    }\n\n}",
  "sourcePath": "/home/chiara/Universit/Magistrale/P2P/CobraDapp/contracts/Catalog.sol",
  "compiler": {
    "name": "solc",
    "version": "0.4.24+commit.e67f0147.Emscripten.clang"
  },
  "schemaVersion": "2.0.1",
  "updatedAt": "2018-09-25T13:22:43.612Z"
}