{
  "contractName": "MovieContentManagement",
  "abi": [
    {
      "constant": false,
      "inputs": [
        {
          "name": "_user",
          "type": "address"
        }
      ],
      "name": "grantAccess",
      "outputs": [],
      "payable": false,
      "stateMutability": "nonpayable",
      "type": "function"
    },
    {
      "constant": false,
      "inputs": [],
      "name": "consumeContent",
      "outputs": [
        {
          "name": "",
          "type": "bytes32[]"
        }
      ],
      "payable": false,
      "stateMutability": "nonpayable",
      "type": "function"
    },
    {
      "constant": true,
      "inputs": [],
      "name": "genre",
      "outputs": [
        {
          "name": "",
          "type": "bytes32"
        }
      ],
      "payable": false,
      "stateMutability": "view",
      "type": "function"
    },
    {
      "constant": true,
      "inputs": [
        {
          "name": "_user",
          "type": "address"
        }
      ],
      "name": "hasConsumed",
      "outputs": [
        {
          "name": "",
          "type": "bool"
        }
      ],
      "payable": false,
      "stateMutability": "view",
      "type": "function"
    },
    {
      "constant": true,
      "inputs": [],
      "name": "title",
      "outputs": [
        {
          "name": "",
          "type": "bytes32"
        }
      ],
      "payable": false,
      "stateMutability": "view",
      "type": "function"
    },
    {
      "constant": true,
      "inputs": [],
      "name": "author",
      "outputs": [
        {
          "name": "",
          "type": "bytes32"
        }
      ],
      "payable": false,
      "stateMutability": "view",
      "type": "function"
    },
    {
      "inputs": [
        {
          "name": "_title",
          "type": "bytes32"
        },
        {
          "name": "_author",
          "type": "bytes32"
        },
        {
          "name": "_encoding",
          "type": "bytes32"
        },
        {
          "name": "_bitrate",
          "type": "uint256"
        },
        {
          "name": "_duration",
          "type": "uint256"
        },
        {
          "name": "_width",
          "type": "uint256"
        },
        {
          "name": "_height",
          "type": "uint256"
        },
        {
          "name": "_catalogAddress",
          "type": "address"
        },
        {
          "name": "_price",
          "type": "uint256"
        }
      ],
      "payable": false,
      "stateMutability": "nonpayable",
      "type": "constructor"
    }
  ],
  "bytecode": "0x608060405234801561001057600080fd5b5060405161012080610b32833981018060405281019080805190602001909291908051906020019092919080519060200190929190805190602001909291908051906020019092919080519060200190929190805190602001909291908051906020019092919080519060200190929190505050886000816000191690555087600181600019169055507f3664366637363639363500000000000000000000000000000000000000000000600281600019169055506003879080600181540180825580915050906001820390600052602060002001600090919290919091509060001916905550600386600102908060018154018082558091505090600182039060005260206000200160009091929091909150906000191690555060038560010290806001815401808255809150509060018203906000526020600020016000909192909190915090600019169055506003846001029080600181540180825580915050906001820390600052602060002001600090919290919091509060001916905550600383600102908060018154018082558091505090600182039060005260206000200160009091929091909150906000191690555081600460006101000a81548173ffffffffffffffffffffffffffffffffffffffff021916908373ffffffffffffffffffffffffffffffffffffffff160217905550600460009054906101000a900473ffffffffffffffffffffffffffffffffffffffff16600560006101000a81548173ffffffffffffffffffffffffffffffffffffffff021916908373ffffffffffffffffffffffffffffffffffffffff160217905550600560009054906101000a900473ffffffffffffffffffffffffffffffffffffffff1673ffffffffffffffffffffffffffffffffffffffff166324b338a2600054836040518363ffffffff167c010000000000000000000000000000000000000000000000000000000002815260040180836000191660001916815260200182815260200192505050600060405180830381600087803b15801561031257600080fd5b505af1158015610326573d6000803e3d6000fd5b505050505050505050505050506107f0806103426000396000f300608060405260043610610078576000357c0100000000000000000000000000000000000000000000000000000000900463ffffffff1680630ae5e7391461007d578063178ff556146100c057806317de3a411461012c5780632731ebd81461015f5780634a79d50c146101ba578063a6c3e6b9146101ed575b600080fd5b34801561008957600080fd5b506100be600480360381019080803573ffffffffffffffffffffffffffffffffffffffff169060200190929190505050610220565b005b3480156100cc57600080fd5b506100d56103c4565b6040518080602001828103825283818151815260200191508051906020019060200280838360005b838110156101185780820151818401526020810190506100fd565b505050509050019250505060405180910390f35b34801561013857600080fd5b50610141610759565b60405180826000191660001916815260200191505060405180910390f35b34801561016b57600080fd5b506101a0600480360381019080803573ffffffffffffffffffffffffffffffffffffffff16906020019092919050505061075f565b604051808215151515815260200191505060405180910390f35b3480156101c657600080fd5b506101cf6107b8565b60405180826000191660001916815260200191505060405180910390f35b3480156101f957600080fd5b506102026107be565b60405180826000191660001916815260200191505060405180910390f35b600460009054906101000a900473ffffffffffffffffffffffffffffffffffffffff1673ffffffffffffffffffffffffffffffffffffffff163373ffffffffffffffffffffffffffffffffffffffff1614151561030b576040517f08c379a000000000000000000000000000000000000000000000000000000000815260040180806020018281038252602b8152602001807f4f6e6c792074686520436174616c6f6720636f756c6420706572666f726d207481526020017f68697320616374696f6e2100000000000000000000000000000000000000000081525060400191505060405180910390fd5b6001600660008373ffffffffffffffffffffffffffffffffffffffff1673ffffffffffffffffffffffffffffffffffffffff16815260200190815260200160002060000160006101000a81548160ff0219169083151502179055506000600660008373ffffffffffffffffffffffffffffffffffffffff1673ffffffffffffffffffffffffffffffffffffffff16815260200190815260200160002060000160016101000a81548160ff02191690831515021790555050565b606060011515600660003373ffffffffffffffffffffffffffffffffffffffff1673ffffffffffffffffffffffffffffffffffffffff16815260200190815260200160002060000160009054906101000a900460ff161515141515610491576040517f08c379a00000000000000000000000000000000000000000000000000000000081526004018080602001828103825260108152602001807f55736572206e6f7420616c6c6f7765640000000000000000000000000000000081525060200191505060405180910390fd5b6000600660003373ffffffffffffffffffffffffffffffffffffffff1673ffffffffffffffffffffffffffffffffffffffff16815260200190815260200160002060000160006101000a81548160ff0219169083151502179055506001600660003373ffffffffffffffffffffffffffffffffffffffff1673ffffffffffffffffffffffffffffffffffffffff16815260200190815260200160002060000160016101000a81548160ff02191690831515021790555060001515600560009054906101000a900473ffffffffffffffffffffffffffffffffffffffff1673ffffffffffffffffffffffffffffffffffffffff16635ab66bea336040518263ffffffff167c0100000000000000000000000000000000000000000000000000000000028152600401808273ffffffffffffffffffffffffffffffffffffffff1673ffffffffffffffffffffffffffffffffffffffff168152602001915050602060405180830381600087803b15801561060857600080fd5b505af115801561061c573d6000803e3d6000fd5b505050506040513d602081101561063257600080fd5b8101908080519060200190929190505050151514156106ff57600560009054906101000a900473ffffffffffffffffffffffffffffffffffffffff1673ffffffffffffffffffffffffffffffffffffffff1663158a33936000546040518263ffffffff167c0100000000000000000000000000000000000000000000000000000000028152600401808260001916600019168152602001915050600060405180830381600087803b1580156106e657600080fd5b505af11580156106fa573d6000803e3d6000fd5b505050505b600380548060200260200160405190810160405280929190818152602001828054801561074f57602002820191906000526020600020905b81546000191681526020019060010190808311610737575b5050505050905090565b60025481565b6000600660008373ffffffffffffffffffffffffffffffffffffffff1673ffffffffffffffffffffffffffffffffffffffff16815260200190815260200160002060000160019054906101000a900460ff169050919050565b60005481565b600154815600a165627a7a72305820306c4f745f03a088408ab69911f0cea5fa3a6566057eda976e1f695c95e44c230029",
  "source": "pragma solidity ^0.4.23;\n\nimport \"./BaseContentManagement.sol\";\n\ncontract BookContentManagement is BaseContentManagement{\n\n    bytes32 private encoding;\n    uint private pages;\n    \n    constructor(bytes32 _title, bytes32 _author, bytes32 _encoding, uint _pages, address _catalogAddress, uint _price) public{\n        title = _title;\n        author = _author;\n        genre = \"626f6f6b\";\n        content.push(_encoding);\n        content.push(bytes32(_pages));\n        catalogAddress = _catalogAddress;\n        catalog = Catalog(catalogAddress);\n        catalog.LinkToTheCatalog(title, _price);\n    }\n}\n\ncontract MovieContentManagement is BaseContentManagement{\n\n    bytes32 private encoding;\n    uint private bitrate;\n    uint private duration;\n    uint private width;\n    uint private height;\n    \n    constructor(bytes32 _title, bytes32 _author, bytes32 _encoding, uint _bitrate, uint _duration,\n    uint _width, uint _height, address _catalogAddress, uint _price) public{\n        title = _title;\n        author = _author;\n        genre = \"6d6f766965\";\n        content.push(_encoding);\n        content.push(bytes32(_bitrate));\n        content.push(bytes32(_duration));\n        content.push(bytes32(_width));\n        content.push(bytes32(_height));\n        catalogAddress = _catalogAddress;\n        catalog = Catalog(catalogAddress);\n        catalog.LinkToTheCatalog(title, _price);\n    }\n}\n\ncontract MusicContentManagement is BaseContentManagement{\n\n    bytes32 private encoding;\n    uint private bitrate;\n    uint private duration;\n    \n    constructor(bytes32 _title, bytes32 _author, bytes32 _encoding, uint _bitrate, uint _duration, address _catalogAddress, uint _price) public{\n        title = _title;\n        author = _author;\n        genre = \"736f6e67\";\n        content.push(_encoding);\n        content.push(bytes32(_bitrate));\n        content.push(bytes32(_duration));\n        catalogAddress = _catalogAddress;\n        catalog = Catalog(catalogAddress);\n        catalog.LinkToTheCatalog(title, _price);\n    }\n}",
  "sourcePath": "/home/chiara/Università/Magistrale/P2P/CobraDapp/contracts/ContentManagement.sol",
  "compiler": {
    "name": "solc",
    "version": "0.4.24+commit.e67f0147.Emscripten.clang"
  },
  "schemaVersion": "2.0.1",
  "updatedAt": "2018-09-12T17:05:35.021Z"
}